:100000000C94AC000C94DB000C94DB000C94DB0033
:100010000C94DB000C94DB000C94DB000C94DB00F4
:100020000C94DB000C94DB000C94DB000C94DB00E4
:100030000C94DB000C94DB000C94DB000C94DB00D4
:100040000C9403020C94DB000C94240A0C94AE0A6A
:100050000C94DB000C94DB000C94DB000C94DB00B4
:100060000C94DB000C94DB000C94DB000C94DB00A4
:100070000C94DB000C94DB000C945F0A0C94E80AEF
:100080000C94DB000C94DB000C94DB0000000008F7
:10009000090A000000000000010304050000000040
:1000A0000000000000000000000000000000000050
:1000B000000000000000000000000000000000013F
:1000C0000204081020408001020408102040800132
:1000D00002040810204080010201020408102040A0
:1000E000800480402010080402010102040810204E
:1000F000408005050505050505050202020202020C
:1001000002020404040404040404070703030303B1
:1001100003030303070101010101010101060606B2
:1001200006060606060000390036003300300021BE
:10013000002000630000003B00380035003200233F
:10014000006200650000003A0037003400310022F0
:10015000006100640000C90C11241FBECFEFD0E184
:10016000DEBFCDBF12E0A0E0B1E0ECE0F6E300E0DE
:100170000BBF02C007900D92A432B107D9F723E05C
:10018000A4E2B2E001C01D92A838B207E1F711E085
:10019000C8E5D1E000E006C022970109FE010BBFCF
:1001A0000E94F11AC635D10780E00807A9F70E941E
:1001B00085090C9468170C940000EF92FF920F933E
:1001C0001F93CF93DF93CDB7DEB7C054D1090FB6DD
:1001D000F894DEBF0FBECDBF6CE071E08FE292E01D
:1001E0000E947A04CE0101967C018E010F5C1F4FA4
:1001F000FC011192E017F107E1F720E330E0A701DD
:100200006AE08FE292E00E940E090297F0F0D801B6
:10021000F701CF018E199F092191222311F02D930F
:10022000F8CFF801E80FF91F108260E071E0C80113
:100230000E94A917892B49F46DE171E08FE292E0E9
:100240000E947A0481E090E008C066E471E08FE2E9
:1002500092E00E947A0480E090E0C05CDF4F0FB62D
:10026000F894DEBF0FBECDBFDF91CF911F910F91EC
:10027000FF90EF9008956DE671E08FE292E00E94AA
:100280007A0482B3805882BB08956DE771E08FE2F3
:1002900092E00E947A0488B3805888BB08950F9337
:1002A0001F93CF93DF93CDB7DEB727970FB6F894A0
:1002B000DEBF0FBECDBFFE0131968F019F01201B17
:1002C000310BDC014D91CD01442311F04193F6CF68
:1002D000F801E20FF31F10826FE871E0C8010E947D
:1002E000A917892B81F40E94DD00892BF9F027964C
:1002F0000FB6F894DEBF0FBECDBFDF91CF911F9137
:100300000F910C943B0163E971E0C8010E94A917A9
:10031000892B61F427960FB6F894DEBF0FBECDBFD0
:10032000DF91CF911F910F910C94450127960FB645
:10033000F894DEBF0FBECDBFDF91CF911F910F911B
:100340000895BF9A8F9A8E9A82B3805882BB82B3E7
:1003500090E4892782BB61E08DE00E94FF0240E8C3
:1003600055E260E070E08FE292E00C946B0BCF936B
:10037000DF93CDB7DEB7E0970FB6F894DEBF0FBEC0
:10038000CDBF61E08DE00E94380369E971E08FE242
:1003900092E00E947A0448E95AE360E070E08FE25C
:1003A00092E00E94550780E090E0E1E0F0E0EC0F81
:1003B000FD1FE80FF91F1082019680339105ACF301
:1003C000909325028093240220E330E0AE014F5F3A
:1003D0005F4F6AE08FE292E00E940E09029720F0E0
:1003E000CE0101960E944F0168EE73E080E090E03C
:1003F0000E947D02E0960FB6F894DEBF0FBECDBF1F
:10040000DF91CF9108951F920F920FB60F92112492
:100410002F933F938F939F93AF93BF938091270226
:1004200090912802A0912902B0912A0230912602CF
:1004300023E0230F2D3720F40196A11DB11D05C027
:1004400026E8230F0296A11DB11D2093260280935A
:10045000270290932802A0932902B0932A02809148
:100460002B0290912C02A0912D02B0912E020196A8
:10047000A11DB11D80932B0290932C02A0932D02FD
:10048000B0932E02BF91AF919F918F913F912F9189
:100490000F900FBE0F901F9018952FB7F894609192
:1004A0002702709128028091290290912A022FBF81
:1004B00008953FB7F89480912B0290912C02A0915F
:1004C0002D02B0912E0222B706B600FE05C02F3FC6
:1004D00019F00196A11DB11D3FBF6627782F892F06
:1004E0009A2F620F711D811D911D42E0660F771FCB
:1004F000881F991F4A95D1F70895CF92DF92EF9206
:10050000FF92CF93DF936B017C010E945902EB01B4
:10051000C114D104E104F10479F00E9459026C1B6A
:100520007D0B683E7340A0F381E0C81AD108E10852
:10053000F108C851DC4FECCFDF91CF91FF90EF90E5
:10054000DF90CF9008950197009739F0880F991F99
:10055000880F991F02970197F1F70895789483B750
:10056000846083BF87B7816087BF1EBC8EB5826001
:100570008EBD8EB581608EBD8FB581608FBD85B516
:10058000846085BD85B5806485BDEAE8F0E0808142
:1005900082608083808181608083EBE8F0E08081ED
:1005A00081608083329A319A309A379A1AB80895C6
:1005B0008530B9F028F4833069F0843071F0089503
:1005C000893099F08A30A9F08830C1F480918B008D
:1005D0008F7712C08FB58F7702C08FB58F7D8FBD9B
:1005E000089585B58F7D85BD089580918B008F7DA1
:1005F00003C080918B00877F80938B000895CF93F9
:10060000DF9390E0FC01E154FF4F2491FC01EE5098
:10061000FF4F8491882349F190E0880F991FFC01D6
:10062000EB5BFE4FA591B4918B5C9E4FFC01C59195
:10063000D4919FB7611108C0F8948C9120958223C2
:100640008C93888182230AC0623051F4F8948C9193
:10065000322F309583238C938881822B888304C02A
:10066000F8948C91822B8C939FBFDF91CF9108954A
:100670000F931F93CF93DF931F92CDB7DEB7282F31
:1006800030E0F901E457FF4F8491F901E154FF4F45
:100690001491F901EE50FF4F04910023C9F0882313
:1006A00021F069830E94D8026981E02FF0E0EE0F0B
:1006B000FF1FEB5CFE4FA591B4919FB7F8948C910E
:1006C000611103C01095812301C0812B8C939FBFC2
:1006D0000F90DF91CF911F910F910895CF93DF93EA
:1006E000282F30E0F901E457FF4F8491F901E154DC
:1006F000FF4FD491F901EE50FF4FC491CC2391F0FC
:1007000081110E94D802EC2FF0E0EE0FFF1FEB5D8D
:10071000FE4FA591B4912C912D2381E090E021F41E
:1007200080E002C080E090E0DF91CF910895CF9209
:10073000DF92EF92FF920F931F93CF93DF936C01A1
:100740007A01EB01E60EF71E00E010E0CE15DF05A2
:1007500061F06991D601ED91FC910190F081E02D5D
:10076000C6010995080F191FF1CFC801DF91CF917C
:100770001F910F91FF90EF90DF90CF90089561153A
:10078000710581F0DB010D900020E9F7AD014150CA
:100790005109461B570BDC01ED91FC910280F3815E
:1007A000E02D099480E090E00895EF92FF920F937E
:1007B0001F93CF93DF938C01FB01C0E0D0E06491E5
:1007C0007F018FEFE81AF80A662361F0D801ED91F6
:1007D000FC910190F081E02DC8010995C80FD91F47
:1007E000F701EDCFCE01DF91CF911F910F91FF90D7
:1007F000EF900895AF92BF92CF92DF92EF92FF9267
:100800000F931F93CF93DF937C016B01C0E0D0E087
:1008100000E010E0D60114968D919C911597C817B1
:10082000D90788F4D701ED91FC91A080B180BE0179
:10083000C6010E943E12682FC701F5010995080FF5
:10084000191F2196E7CFC801DF91CF911F910F911A
:10085000FF90EF90DF90CF90BF90AF9008950C94F1
:10086000BF03DC01ED91FC910190F081E02D099432
:10087000DB01ED91FC9111970190F081E02DBC011D
:10088000CD0109940F931F93CF93DF93EC016DE09B
:100890000E9431048C016AE0CE010E943104800F75
:1008A000911FDF91CF911F910F9108950F931F9387
:1008B000CF93DF93EC010E94D5038C01CE010E94FF
:1008C0004204800F911FDF91CF911F910F910895E6
:1008D0000F931F93CF93DF93EC010E94FA038C01D7
:1008E000CE010E944204800F911FDF91CF911F9192
:1008F0000F9108950F931F93CF93DF93EC010E9404
:10090000BF038C01CE010E944204800F911FDF9132
:10091000CF911F910F9108950F931F93CF93DF9362
:10092000EC010E9431048C01CE010E944204800F30
:10093000911FDF91CF911F910F9108950F931F93F6
:10094000CF93DF93EC010E9438048C01CE010E940A
:100950004204800F911FDF91CF911F910F91089555
:100960008F929F92AF92BF92CF92DF92EF92FF92BF
:100970000F931F93CF93DF93CDB7DEB7A1970FB639
:10098000F894DEBF0FBECDBF7C01C42EE52FCB0196
:10099000D22E19A221E02D1510F02AE0D22E8E01C0
:1009A0000F5D1F4F8D2C912CA12CB12C6C2D7E2F07
:1009B000A50194010E94C41A8C2DD29E8019112485
:1009C000015011098A3014F4805D01C0895CF8017E
:1009D0008083211531054105510521F0C22EE32FF9
:1009E000CA01E4CFB801C7010E94BF03A1960FB6A8
:1009F000F894DEBF0FBECDBFDF91CF911F910F9155
:100A0000FF90EF90DF90CF90BF90AF909F908F902E
:100A10000895CF92DF92EF92FF920F931F93CF939F
:100A2000DF93EC016A017B012115310579F4E8813E
:100A3000F9810190F081E02D642FDF91CF911F911A
:100A40000F91FF90EF90DF90CF9009942A303105FD
:100A5000E9F477FF1AC06DE20E9431048C0144274B
:100A60005527BA014C195D096E097F092AE0CE01AC
:100A70000E94B004800F911FDF91CF911F910F91C1
:100A8000FF90EF90DF90CF9008952AE0B701A60184
:100A9000CE01DF91CF911F910F91FF90EF90DF90EA
:100AA000CF900C94B0049A01AB01662757FD609576
:100AB000762F0C9409050F931F93CF93DF93EC01CE
:100AC0009A01AB01662757FD6095762F0E940905B4
:100AD0008C01CE010E944204800F911FDF91CF91C3
:100AE0001F910F9108950F931F93CF93DF93EC0104
:100AF0000E9409058C01CE010E944204800F911FC3
:100B0000DF91CF911F910F9108952115310541F487
:100B1000DC01ED91FC910190F081E02D642F0994AE
:100B20000C94B0049A01462F50E060E070E00C9401
:100B300085050F931F93CF93DF93EC019A01462F06
:100B400050E060E070E00E9485058C01CE010E94BB
:100B50004204800F911FDF91CF911F910F91089553
:100B60009A01AB0160E070E00C9485050F931F9330
:100B7000CF93DF93EC019A01AB0160E070E00E943B
:100B800085058C01CE010E944204800F911FDF91E8
:100B9000CF911F910F9108950F931F93CF93DF93E0
:100BA000EC010E9485058C01CE010E944204800F59
:100BB000911FDF91CF911F910F9108954F925F92F6
:100BC0006F927F928F929F92AF92BF92CF92DF925D
:100BD000EF92FF920F931F93CF93DF93EC016A0183
:100BE0007B01B22E9A01AB01C701B6010E94AD1A7A
:100BF000882319F060EF71E027C026013701E894DF
:100C000077F82FEF3FEF4FE75FE7C301B2010E9494
:100C1000AD1A81110DC02FEF3FEF4FE75FE7C30122
:100C2000B2010E94F71818161CF464EF71E00CC0B2
:100C30002FEF3FEF4FE75FE4C701B6010E94461A6E
:100C40001816ACF468EF71E0CE01DF91CF911F91DF
:100C50000F91FF90EF90DF90CF90BF90AF909F905B
:100C60008F907F906F905F904F900C94BF032FEF09
:100C70003FEF4FE75FECC701B6010E94F71887FD11
:100C8000E1CF20E030E0A901C701B6010E94F718CA
:100C900087FF0AC06DE2CE010E9431048C01F7FA91
:100CA000F094F7F8F09402C000E010E0A12C60E0AE
:100CB00070E080E09FE3AB1441F020E030E040E2E0
:100CC00051E40E94FB18A394F6CF9B01AC01C7012D
:100CD000B6010E9493186B017C010E9468192B01D8
:100CE0003C010E9494199B01AC01C701B6010E940E
:100CF00092186B017C012AE0B301A201CE010E948F
:100D0000B004080F191FBB2039F06BE671E0CE016B
:100D10000E94BF03080F191F7B2C772041F120E0B0
:100D200030E040E251E4C701B6010E944A1A6B016B
:100D30007C010E9463194B01AA2497FCA094BA2C51
:100D40002AE030E0B501A401CE010E940905080F98
:100D5000191FC501B4010E9496199B01AC01C7017E
:100D6000B6010E9492186B017C017A94D6CFC8011B
:100D7000DF91CF911F910F91FF90EF90DF90CF9077
:100D8000BF90AF909F908F907F906F905F904F90AB
:100D900008950C94DE050F931F93CF93DF93EC011E
:100DA0000E94DE058C01CE010E944204800F911F3B
:100DB000DF91CF911F910F9108950F931F93CF93C0
:100DC000DF93EC010E944D02688779878A879B87B1
:100DD000E881F9810680F781E02DCE01099597FF22
:100DE00015C00E944D02088519852A853B85601B28
:100DF000710B820B930B0C811D812E813F8160173B
:100E000071078207930720F38FEF9FEFDF91CF9158
:100E10001F910F9108950F931F93CF93DF93EC01D0
:100E20000E944D02688779878A879B87E881F981CC
:100E30000084F185E02DCE01099597FF15C00E9431
:100E40004D02088519852A853B85601B710B820B35
:100E5000930B0C811D812E813F81601771078207E2
:100E6000930720F38FEF9FEFDF91CF911F910F91A9
:100E70000895CF93DF93EC01CE010E940B0797FDFD
:100E800011C08D32910571F09C01205331092A3037
:100E9000310540F0E881F9810680F781E02DCE012F
:100EA0000995EACFDF91CF910895FC0144835583E2
:100EB0006683778308956F927F928F929F92AF920D
:100EC000BF92CF92DF92EF92FF920F931F93CF9337
:100ED000DF935C016B014A013901FB0180818823AA
:100EE000E9F1E12CF12CC0E0D0E0C5010E94DD0663
:100EF000181619068CF5F601EC0FFD1F208133271B
:100F000027FD30958217930711F0C0E0D0E0F6017D
:100F1000EC0FFD1F2081332727FD309582179307A3
:100F200021F42196C815D905C8F40115110589F0D9
:100F3000F301EE0DFF1D2081332727FD3095821729
:100F4000930739F4FFEFEF1AFF0AE016F10668F293
:100F500003C0E12CF12CC9CF80E001C081E0DF911A
:100F6000CF911F910F91FF90EF90DF90CF90BF90A6
:100F7000AF909F908F907F906F9008950F931F93E5
:100F800000E010E020E030E00E945B071F910F912D
:100F900008950F931F939A01FA0101900020E9F739
:100FA0008F0101501109041B150BFB01019000205A
:100FB000E9F7AF0141505109461B570B0E945B07EF
:100FC0001F910F91089540E050E00C94C907CF9213
:100FD000DF92FF920F931F93CF93DF9300D000D047
:100FE000CDB7DEB76C01062F0E943907FC0197FDD3
:100FF0004BC020E030E0A901F12C112707FD10952E
:10100000E017F107E9F0ED32F105C1F0CF01C0972B
:101010000A97B0F4AAE0B0E00E94E61A9B01AC0186
:10102000CF01AA2797FDA095BA2F280F391F4A1F75
:101030005B1F205331094109510902C0FF24F39479
:10104000D601ED91FC910680F781E02DC601298340
:101050003A834B835C830995C6010E940B07FC0110
:10106000C09729813A814B815C810A9748F2E01749
:10107000F10731F2FF2061F066277727CB01621B71
:10108000730B840B950B06C060E070E0CB0102C0CF
:10109000CA01B9010F900F900F900F90DF91CF917F
:1010A0001F910F91FF90DF90CF90089561E00C9415
:1010B000E7077F928F929F92AF92BF92CF92DF927B
:1010C000EF92FF920F931F93CF93DF93EC01762E55
:1010D0000E943907E82F87FD6AC0812C912C80E897
:1010E000A82E8FE3B82EC12CD12C760110E000E0A1
:1010F000E71579F1ED3251F1EE3251F180ED8E0FBD
:101100008A3038F5AAE0B0E0A70196010E94E61AFD
:101110006B017C014E2F552747FD5095652F752F8C
:10112000C40ED51EE61EF71E80E3C81AD108E108DA
:10113000F108112371F02DEC3CEC4CEC5DE3C501A2
:10114000B4010E944A1A4B015C0102C001E001C0D7
:1011500011E0E881F9810680F781E02DCE01099543
:10116000CE010E940B07E82F90ED980F9A3008F4FB
:10117000BFCF8E3209F4BCCF871509F4B9CF002355
:1011800041F0F094E094D094C094C11CD11CE11CB7
:10119000F11CC701B601112339F00E949619A5016F
:1011A00094010E944A1A06C00E94961903C060E08A
:1011B00070E0CB01DF91CF911F910F91FF90EF90E5
:1011C000DF90CF90BF90AF909F908F907F900895C9
:1011D00061E00C945908CF92DF92EF92FF920F9347
:1011E0001F93CF93DF937C016A01EB0100E010E0D5
:1011F0000C151D0549F0C7010E94DD0697FD04C0CE
:1012000089930F5F1F4FF4CFC801DF91CF911F91DA
:101210000F91FF90EF90DF90CF900895AF92BF9223
:10122000CF92DF92EF92FF920F931F93CF93DF93B2
:101230006C01790121153105B9F08A01C0E0D0E0D7
:10124000A62EBB24A7FCB094C6010E94DD0697FD24
:101250000EC08A159B0559F0F80181938F012196E4
:10126000CE15DF0589F703C080E090E001C0CE0114
:10127000DF91CF911F910F91FF90EF90DF90CF9072
:10128000BF90AF9008950F931F93CF93DF93EC011E
:101290008B016CE171E00E94F60DC8010E94DD0631
:1012A00097FD05C0682FCE010E94860FF6CFCE01B4
:1012B000DF91CF911F910F910895EF92FF920F93BD
:1012C0001F93CF93DF93EC018B01E42E6CE171E06F
:1012D0000E94F60DC8010E94DD06FF24E7FCF09491
:1012E00097FD0BC08E159F0541F0682FCE010E941F
:1012F000860FC8010E94DD06F3CFCE01DF91CF91AA
:101300001F910F91FF90EF9008950E94AE020E94EE
:10131000A101CDE9DAE00E94B7012097E1F30E9434
:101320009D0AF9CFFC0124853585F901E05CFF4F6A
:1013300080819181329620813181821B930B8F7342
:1013400099270895FC0184859585FC01E05CFF4F99
:10135000408151813296208131814217530741F0FB
:101360000190F081E02DE80FF91F808190E0089551
:101370008FEF9FEF0895FC0184859585FC01E05C6B
:10138000FF4F4081518132962081318142175307AE
:1013900079F0A081B181A80FB91F8C912081318192
:1013A0002F5F3F4F2F7333273183208390E00895C1
:1013B0008FEF9FEF0895FC0181A1882329F0A48974
:1013C000B5898C9186FFFBCF11A20895CF93DF934F
:1013D000FC0126853785D901A05CBF4F8D919C917A
:1013E000119701968F739927E901CE5BDF4F4881F2
:1013F000598184179507D9F30D90BC91A02DA20FA8
:10140000B31F6C93A685B785A05CBF4F11969C93C4
:101410008E93A689B7892C9181E090E0078C02C059
:10142000880F991F0A94E2F7282B2C9381E081A35F
:101430000488F589E02D80818064808381E090E0DC
:10144000DF91CF91089508951F920F920FB60F92DA
:1014500011240BB60F922F933F934F938F939F932B
:10146000EF93FF935A991BC04CB180917F039091E9
:10147000800301968F739927209181033091820315
:101480008217930769F0E0917F03F0918003E15C9C
:10149000FC4F40839093800380937F0301C08CB105
:1014A000FF91EF919F918F914F913F912F910F90CD
:1014B0000BBE0F900FBE0F901F90189508951F92AE
:1014C0000F920FB60F9211240BB60F922F933F93EA
:1014D0004F938F939F93EF93FF9380919B0082FD97
:1014E0001CC040919C008091F7029091F8020196F7
:1014F0008F7399272091F9023091FA02821793078E
:1015000071F0E091F702F091F802E954FD4F408349
:101510009093F8028093F70202C080919C00FF91A3
:10152000EF919F918F914F913F912F910F900BBE13
:101530000F900FBE0F901F90189581E592E00E94CA
:101540009209892B11F00E94230A8FE292E00E94F7
:101550009209892B11F00C945E0A08951F920F9244
:101560000FB60F9211240BB60F922F933F938F93C8
:101570009F93EF93FF9320913B0330913C03809125
:101580003D0390913E032817390711F4559813C075
:10159000E0913D03F0913E03E550FD4F20818091A5
:1015A0003D0390913E0301968F73992790933E03DC
:1015B00080933D032CB9FF91EF919F918F913F91C3
:1015C0002F910F900BBE0F900FBE0F901F9018958C
:1015D0001F920F920FB60F9211240BB60F922F93FA
:1015E0003F938F939F93EF93FF932091B30230919A
:1015F000B4028091B5029091B6022817390731F4F0
:1016000080919A008F7D80939A0014C0E091B5027A
:10161000F091B602ED58FD4F20818091B502909176
:10162000B60201968F7399279093B6028093B50204
:1016300020939C00FF91EF919F918F913F912F916B
:101640000F900BBE0F900FBE0F901F9018958F92AA
:101650009F92AF92BF92CF92DF92EF92FF920F9341
:101660001F93CF93DF93CDB7DEB7FC0113821282B5
:1016700088EE93E0A0E0B0E084839583A683B783EF
:1016800088E192E0918380837587648757874687D6
:10169000318B208B138B028BF58AE48AD78AC68A1A
:1016A000B18EA08E938E828E8F85848F8889858F50
:1016B0008989868F8A89878F8B8980A3DF91CF91D3
:1016C0001F910F91FF90EF90DF90CF90BF90AF9060
:1016D0009F908F900895CF92DF92EF92FF92CF93D9
:1016E000DF93EC016A017B01411581EE580761052A
:1016F0007105F9F0EC89FD8981E090E008A002C055
:10170000880F991F0A94E2F7808360E079E08DE307
:1017100090E0A70196010E94C41A215031094109A5
:1017200051095695479537952795211580E138073A
:1017300098F0EC89FD89108260E874E88EE190E011
:10174000A70196010E94C41A21503109410951098B
:101750005695479537952795E889F9893083EA8921
:10176000FB89208319A2EE89FF89408181E090E006
:101770009C010C8C02C0220F331F0A94E2F7422B0B
:101780004083EE89FF8940819C010D8C02C0220FAD
:10179000331F0A94E2F7422B4083EE89FF89408190
:1017A0009C010E8C02C0220F331F0A94E2F7422BD9
:1017B0004083EE89FF8920810F8C02C0880F991F1A
:1017C0000A94E2F7809582238083DF91CF91FF9086
:1017D000EF90DF90CF900895BF92CF92DF92EF927B
:1017E000FF92CF93DF93EC016A017B01B22E41158A
:1017F00081EE580761057105F9F0EC89FD8981E0FA
:1018000090E008A002C0880F991F0A94E2F7808335
:1018100060E079E08DE390E0A70196010E94C41A90
:10182000215031094109510956954795379527951A
:10183000211580E1380798F0EC89FD89108260E875
:1018400074E88EE190E0A70196010E94C41A21502D
:101850003109410951095695479537952795E889EA
:10186000F9893083EA89FB892083E88DF98DB0827C
:10187000EE89FF89408181E090E09C010C8C02C0E0
:10188000220F331F0A94E2F7422B4083EE89FF892F
:1018900040819C010D8C02C0220F331F0A94E2F795
:1018A000422B4083EE89FF8940819C010E8C02C04F
:1018B000220F331F0A94E2F7422B4083EE89FF89FF
:1018C00020810F8C02C0880F991F0A94E2F780953F
:1018D00082238083DF91CF91FF90EF90DF90CF90B4
:1018E000BF900895CF93DF93FC0186859785DC0137
:1018F000A05CBF4FEC01CE5BDF4F4D915C91119727
:101900002881398142175307C1F7A689B7894C91BD
:1019100081E090E09C01048C02C0220F331F0A94E6
:10192000E2F7209524232C93A689B7894C919C013A
:10193000058C02C0220F331F0A94E2F7209524235E
:101940002C93A689B7894C919C01068C02C0220F6A
:10195000331F0A94E2F7209524232C93A689B78994
:101960002C91078C02C0880F991F0A94E2F780958A
:1019700082238C9384859585FC01EE5BFF4F20814B
:101980003181329731832083DF91CF91089581E0B7
:101990000895109254021092530288EE93E0A0E052
:1019A000B0E08093550290935602A0935702B093F3
:1019B000580228E132E030935202209351024FE363
:1019C00053E050935E0240935D024BEF52E0509320
:1019D000600240935F0240E950E0509362024093FE
:1019E000610249E250E050936402409363024BE28B
:1019F00050E050936602409365024AE250E05093F3
:101A000068024093670245E950E050936A024093B0
:101A100069024CE250E050936C0240936B02E4E0A8
:101A2000E0936D0273E070936E0267E060936F0263
:101A300055E05093700241E04093710210923202DF
:101A4000109231028093330290933402A0933502B6
:101A5000B09336023093300220932F0287EB92E04E
:101A600090933C0280933B0283E792E090933E0286
:101A700080933D0288E990E09093400280933F027A
:101A800089E990E090934202809341028BE990E0D3
:101A900090934402809343028AE990E09093460237
:101AA000809345028DE990E090934802809347022D
:101AB0008CE990E090934A0280934902E0934B02B4
:101AC00070934C0260934D0250934E0240934F022C
:101AD00008950C941A160C941A160C94B2160C94C1
:101AE000B216FC0181E090E02081222311F080E019
:101AF00090E0089521E0FC01208308950895089561
:101B00000C94FB170C9411180C946D180C9440183D
:101B1000FC01808191810C94B216CF93DF93EC018C
:101B200088819981009711F00E94B216198218825B
:101B30001D821C821B821A82DF91CF9108950F9320
:101B40001F93CF93DF93EC018B016F5F7F4F8881F1
:101B500099810E943115009731F0998388831B8306
:101B60000A8381E001C080E0DF91CF911F910F9146
:101B70000895CF93DF93EC0188819981892B29F017
:101B80008A819B818617970760F4CE010E949F0D82
:101B9000882341F08C819D81892B19F4E881F9819A
:101BA000108281E0DF91CF910895EF92FF920F9321
:101BB0001F93CF93DF93EC017B018A01BA010E944E
:101BC000B90D811104C0CE010E948D0D07C01D8387
:101BD0000C83B701888199810E94B217CE01DF91F1
:101BE000CF911F910F91FF90EF900895FC0111820A
:101BF0001082138212821582148216826115710579
:101C000059F0FB0101900020E9F7AF014150510963
:101C1000461B570B0C94D50D0895CF93DF93EC0121
:101C2000FB018617970761F060817181611571056D
:101C300029F0448155810E94D50D02C00E948D0D6E
:101C4000CE01DF91CF910895FC01118210821382A1
:101C500012821582148216820C940D0ECF93DF939C
:101C6000EC016115710561F0FB0101900020E9F7BD
:101C7000AF0141505109461B570B0E94D50D02C0C0
:101C80000E948D0DCE01DF91CF910895CF93DF9308
:101C900000D0CDB7DEB7FC01118210821382128210
:101CA00015821482168269831A82BE016F5F7F4F8C
:101CB0000E942E0E0F900F90DF91CF9108950F93F9
:101CC0001F93CF93DF93CDB7DEB729970FB6F89464
:101CD000DEBF0FBECDBF8C01862FF80111821082AE
:101CE0001382128215821482168250E0BE016F5F49
:101CF0007F4F90E00E946D18BE016F5F7F4FC8015B
:101D00000E942E0E29960FB6F894DEBF0FBECDBFEF
:101D1000DF91CF911F910F9108950F931F93CF9350
:101D2000DF93CDB7DEB762970FB6F894DEBF0FBE74
:101D3000CDBF8C01CB01F801118210821382128277
:101D400015821482168250E0BE016F5F7F4F0E94A1
:101D5000FB17BE016F5F7F4FC8010E942E0E629677
:101D60000FB6F894DEBF0FBECDBFDF91CF911F91AC
:101D70000F9108950F931F93CF93DF93CDB7DEB7E5
:101D800061970FB6F894DEBF0FBECDBF8C01CB01BB
:101D9000F801118210821382128215821482168237
:101DA00050E0BE016F5F7F4F0E946D18BE016F5FF4
:101DB0007F4FC8010E942E0E61960FB6F894DEBFC9
:101DC0000FBECDBFDF91CF911F910F9108950F935B
:101DD0001F93CF93DF93CDB7DEB7A2970FB6F894DA
:101DE000DEBF0FBECDBF8C01CB01BA01F80111825D
:101DF00010821382128215821482168230E0AE01A4
:101E00004F5F5F4F0E941118BE016F5F7F4FC80187
:101E10000E942E0EA2960FB6F894DEBF0FBECDBF65
:101E2000DF91CF911F910F9108950F931F93CF933F
:101E3000DF93CDB7DEB7A1970FB6F894DEBF0FBE24
:101E4000CDBF8C01CB01BA01F8011182108213823F
:101E5000128215821482168230E0AE014F5F5F4F0E
:101E60000E944018BE016F5F7F4FC8010E942E0E76
:101E7000A1960FB6F894DEBF0FBECDBFDF91CF9114
:101E80001F910F910895EF92FF920F931F93CF939D
:101E9000DF93EC017B010C811D816115710511F44B
:101EA00080E016C04115510591F0040F151FB801CF
:101EB0000E94B90D8823A1F3288139818C819D81ED
:101EC000B701820F931F0E94B2171D830C8381E01C
:101ED000DF91CF911F910F91FF90EF900895FB013B
:101EE00044815581608171810C94430F61157105A6
:101EF00059F0FB0101900020E9F7AF014150510971
:101F0000461B570B0C94430F80E00895CF93DF934B
:101F100000D0CDB7DEB769831A8241E050E0BE0140
:101F20006F5F7F4F0E94430F0F900F90DF91CF9113
:101F30000895EF92FF920F931F93CF93DF9300D0FA
:101F400000D0CDB7DEB77C01862F4AE050E08E018D
:101F50000F5F1F4FB80190E00E94FB17F80101903E
:101F60000020E9F7AF0141505109401B510BB80166
:101F7000C7010E94430F0F900F900F900F90DF91B9
:101F8000CF911F910F91FF90EF900895EF92FF92E4
:101F90000F931F93CF93DF93CDB7DEB727970FB67D
:101FA000F894DEBF0FBECDBF7C01CB014AE050E00C
:101FB0008E010F5F1F4FB8010E94FB17F8010190BF
:101FC0000020E9F7AF0141505109401B510BB80106
:101FD000C7010E94430F27960FB6F894DEBF0FBECD
:101FE000CDBFDF91CF911F910F91FF90EF9008959A
:101FF000EF92FF920F931F93CF93DF9300D000D007
:1020000000D0CDB7DEB77C01CB014AE050E08E01B5
:102010000F5F1F4FB8010E946D18F801019000205A
:10202000E9F7AF0141505109401B510BB801C701FD
:102030000E94430F26960FB6F894DEBF0FBECDBFA9
:10204000DF91CF911F910F91FF90EF900895EF9244
:10205000FF920F931F93CF93DF93CDB7DEB72C97EB
:102060000FB6F894DEBF0FBECDBF7C01CB01BA0125
:102070002AE030E08E010F5F1F4FA8010E94111867
:10208000F80101900020E9F7AF0141505109401BD0
:10209000510BB801C7010E94430F2C960FB6F8945C
:1020A000DEBF0FBECDBFDF91CF911F910F91FF908B
:1020B000EF900895EF92FF920F931F93CF93DF93CA
:1020C000CDB7DEB72B970FB6F894DEBF0FBECDBFEE
:1020D0007C01CB01BA012AE030E08E010F5F1F4F77
:1020E000A8010E944018F80101900020E9F7AF0113
:1020F00041505109401B510BB801C7010E94430FC9
:102100002B960FB6F894DEBF0FBECDBFDF91CF91F7
:102110001F910F91FF90EF900895CF93DF93EC0103
:10212000FB0144815581608171810E94430F8111BF
:1021300003C0CE010E948D0DCE01DF91CF91089595
:10214000CF93DF93EC016115710569F0FB010190FC
:102150000020E9F7AF0141505109461B570B0E947F
:10216000430F811103C0CE010E948D0DCE01DF917E
:10217000CF910895CF93DF93EC010E94860F8111D8
:1021800003C0CE010E948D0DCE01DF91CF91089545
:10219000CF93DF93EC010E94990F811103C0CE0110
:1021A0000E948D0DCE01DF91CF910895CF93DF93E3
:1021B000EC010E94C60F811103C0CE010E948D0D5B
:1021C000CE01DF91CF910895CF93DF93EC010E9470
:1021D000F80F811103C0CE010E948D0DCE01DF9159
:1021E000CF910895CF93DF93EC010E9427108111C6
:1021F00003C0CE010E948D0DCE01DF91CF910895D5
:10220000CF93DF93EC010E945A10811103C0CE01DD
:102210000E948D0DCE01DF91CF910895CF93DF9372
:10222000DC01ED91FC91EB01A881B981309711F0AF
:102230001097C9F4109759F0EB012C813D81232BA5
:1022400031F08C9190E091958195910914C030976F
:1022500081F0DC0114968D919C911597892B49F0A2
:10226000808190E008C0BD01CF01DF91CF910C9437
:10227000A91780E090E0DF91CF910895FC0144819F
:102280005581FB01248135814217530741F40E9497
:102290000E1121E0892B09F020E0822F089580E0C3
:1022A0000895FC0124813581232B31F421E061154F
:1022B0007105A1F0FB0108C0FC01808191816115CD
:1022C000710531F421E0FC018081882339F005C0DB
:1022D0000E94A91721E0892B09F020E0822F0895A0
:1022E0000E940E11892F881F8827881F08950E9439
:1022F0000E1121E0181619060CF020E0822F089527
:102300000E940E1121E0181619060CF420E0822F0D
:1023100008950E940E11892F8095881F8827881F95
:102320000895EF92FF920F931F93CF93DF93861739
:10233000970731F1FC0124813581FB0144815581EE
:1023400024173507F9F4232BD9F0FC010081118102
:10235000FB01C081D181F80181918F01882381F037
:10236000992787FD90950E9473177C018991992781
:1023700087FD90950E947317E816F90661F302C075
:1023800081E001C080E0DF91CF911F910F91FF901C
:10239000EF900895FA01DB0114964D915C91159729
:1023A000DC0114962D913C911597241B350B2E17AB
:1023B0003F0788F08D919C91009769F0DB016D914A
:1023C0007C916115710539F08E0F9F1F0E94B9171E
:1023D00021E0892B09F020E0822F0895FC0144813F
:1023E0005581FB01248135814217530720F040E0DD
:1023F00050E00C94CA1180E00895FC01848195811D
:10240000DB0114964D915C9115978417950798F010
:10241000208131812115310571F06D917C9161151B
:10242000710549F0841B950B820F931F0E94A91719
:1024300021E0892B09F020E0822F0895DC01149619
:102440002D913C9115976217730728F4ED91FC913B
:10245000E60FF71F40830895FC018481958168177A
:10246000790720F480819181009729F410928303E9
:1024700083E893E00895860F971F0895FC01248157
:1024800035816217730748F480819181009729F0A4
:10249000FC01E60FF71F8081089580E008950C94F9
:1024A0003E120F931F93CF93DF93EB01411551051C
:1024B000E9F02097D9F0FC01648175812617370770
:1024C000A0F4621B730B8A01015011096017710798
:1024D00008F48B01FC0160817181620F731FA801F8
:1024E000CE010E94C717C00FD11F1882DF91CF9174
:1024F0001F910F910895CF93DF93FC018481958103
:102500004817590778F4C081D181772767FD709506
:10251000CE01840F951F0E949E17009719F08C1B07
:102520009D0B02C08FEF9FEFDF91CF91089540E0A8
:1025300050E00C947B12CF93DF93FC018481958152
:102540004817590778F4C081D181FB0160817181FE
:10255000CE01840F951F0E94E117009719F08C1B84
:102560009D0B02C08FEF9FEFDF91CF91089540E068
:1025700050E00C949B12DF92EF92FF920F931F9307
:10258000CF93DF93EC018C819D814817590718F098
:102590008FEF9FEF1BC08A010F5F1F4FE881F9810A
:1025A000E00FF11FD0801082E880F980772767FD67
:1025B0007095C7010E94D617F701E00FF11FD08276
:1025C000009731F328813981821B930BDF91CF91E2
:1025D0001F910F91FF90EF90DF900895FC014481CF
:1025E0005581415051090C94BB12AF92BF92CF92CA
:1025F000DF92EF92FF920F931F93CF93DF937B01B4
:10260000EA01FB01448155814115510569F1FC0145
:10261000248135812115310539F12417350720F141
:10262000C217D30710F0E9012197FC010081118145
:10263000C801AA24AA94BB24BA946801CC0EDD1E5A
:10264000C816D906A0F0F701608171810E94E117D8
:10265000009769F09C01201B310BC217D30708F4C7
:10266000950101965901ECCF8FEF9FEF01C0C50195
:10267000DF91CF911F910F91FF90EF90DF90CF905E
:10268000BF90AF900895FC0144815581FB012481E6
:102690003581421B530B0C94F512BF92CF92DF92FF
:1026A000EF92FF920F931F93CF93DF936C017B0107
:1026B000EA0189012417350720F48D2FE901042F41
:1026C000182F6CE171E0C6010E94F60DD701149637
:1026D0008D919C9115978C179D07C8F080179107D5
:1026E00008F48C01D701ED91FC911197E00FF11FD7
:1026F000B08010826D917C916C0F7D1FC6010E948D
:102700002E0ED701ED91FC91E00FF11FB082C601B2
:10271000DF91CF911F910F91FF90EF90DF90CF90BD
:10272000BF900895CF93DF93EC01FB0124813581A5
:102730000E944D13CE01DF91CF910895DC01ED9100
:10274000FC91309729F40895861301C04083319697
:1027500080818111F9CF08952F923F924F925F921D
:102760006F927F928F929F92AF92BF92CF92DF92A1
:10277000EF92FF920F931F93CF93DF93EC015B01D6
:102780007A014C805D804114510409F4C5C0FB01FD
:10279000648075806114710409F4BEC0FA01C480BC
:1027A000D580C618D70808811981C114D104C1F495
:1027B000F50160817181C8010E94E117EC01009769
:1027C00009F4AAC0F7016081718144815581CE016D
:1027D0000E948317F701048115810C0F1D1FE8CF9C
:1027E000D7FC05C0FB0120803180420143C0480175
:1027F000F50160817181C8010E94E1172C010097E9
:1028000019F13201601A710AA301B801C4010E94D2
:102810008317680C791CF7016081718144815581AF
:10282000C3010E948317F70184809580860C971C52
:10283000F50104811581040D151D8C819D818C0D80
:102840009D1D9D838C83D4CFB801C401DF91CF91AE
:102850001F910F91FF90EF90DF90CF90BF90AF90BE
:102860009F908F907F906F905F904F903F902F90B0
:102870000C94B217B101C8010E94E117009731F022
:102880008C01060D171D8C0C9D1CF4CF841495042F
:1028900009F442C08A819B818815990530F4B401FE
:1028A000CE010E949F0D8823B9F14C815D8141507A
:1028B000510957FD31C0B501CE010E94F5128C01BE
:1028C00097FD2AC088819981F50124813581200FE7
:1028D000311F820F931F4C815D81421B530BBC0142
:1028E0008C0D9D1D0E948C178C819D818C0D9D1DD2
:1028F0009D838C83E881F981E80FF91F108288811C
:102900009981F7016081718144815581800F911F08
:102910000E948317A801CBCFDF91CF911F910F9118
:10292000FF90EF90DF90CF90BF90AF909F908F90EF
:102930007F906F905F904F903F902F900895CF932E
:10294000DF93FC01C081D181209751F088818823D9
:1029500039F0992787FD90950E9473178993F6CFD8
:10296000DF91CF910895CF93DF93FC01C081D18196
:10297000209751F08881882339F0992787FD909519
:102980000E947B178993F6CFDF91CF910895AF9284
:10299000BF92CF92DF92EF92FF920F931F93CF934C
:1029A000DF937C01DC01CD90DC901197C114D10440
:1029B00009F441C01496CD91DC9115972097D9F177
:1029C00056018501BFEFAB1ABB0AF8018081992738
:1029D00087FD90950E946B17892B99F72197CC0D55
:1029E000DD1D8881992787FD90950E946B17892BA3
:1029F00091F4AE014F5F5F4F401B510BD70115960D
:102A00005C934E931497C016D10650F4B801C601DA
:102A10000E94831705C0C017D10758F32197E1CF53
:102A2000D701ED91FC91119714968D919C9115977A
:102A3000E80FF91F1082DF91CF911F910F91FF9046
:102A4000EF90DF90CF90BF90AF900895FC01808110
:102A50009181009711F00C94411760E070E0CB0178
:102A600008956F927F928F929F92AF92BF92CF9272
:102A7000DF92EF92FF920F931F93CF93DF93EC01BE
:102A8000CB01209781F4DF91CF911F910F91FF909F
:102A9000EF90DF90CF90BF90AF909F908F907F90FE
:102AA0006F900C941A16FE01E60FF71F9E0122503C
:102AB0003109E217F30708F4ACC0D9010D911C915C
:102AC000119706171707B8F00530110508F49FC0D5
:102AD000A801445051094617570708F498C00250FE
:102AE0001109061B170B019311936D937C93CF0172
:102AF0000E94B2168CC05B01A01AB10A4E01800E72
:102B0000911EA0918603B0918703612C712C60E027
:102B100070E0109709F449C0A815B905C9F5ED9002
:102B2000FC901197670142E0C40ED11CCA14DB046B
:102B300078F147018A189B08640142E0C40ED11C59
:102B40001296BC9012971396AC91B5E0CB16D104B7
:102B500040F0B282A38391828082D9018D939C93AD
:102B600009C00E5F1F4F0E0D1F1DF9011183008359
:102B7000EB2DFA2F6115710531F0DB011396FC93F3
:102B8000EE93129744C0F0938703E09386033FC00F
:102B90006D917C9111976616770608F43B01BD0193
:102BA00012960D90BC91A02DB4CF609184037091CA
:102BB000850368157905E9F468167906D0F4409123
:102BC0000601509107014115510541F44DB75EB71B
:102BD00060910A0170910B01461B570BE417F50732
:102BE000C0F4F0938503E0938403F901918380831B
:102BF0000EC00E941A167C01009759F0A801BE0170
:102C00000E948317CE010E94B216C70104C0CE01F4
:102C100002C080E090E0DF91CF911F910F91FF9073
:102C2000EF90DF90CF90BF90AF909F908F907F906C
:102C30006F900895CF93DF938230910510F482E076
:102C400090E0E0918603F091870320E030E0A0E07F
:102C5000B0E0309739F14081518148175907B8F0F9
:102C60004817590771F482819381109729F01396C0
:102C70009C938E9312972CC0909387038093860326
:102C800027C02115310531F04217530718F0A9016B
:102C9000DB0101C0EF019A01BD01DF010280F38178
:102CA000E02DD7CF21153105F9F0281B390B243041
:102CB000310580F48A819B816115710521F0FB014A
:102CC0009383828304C09093870380938603FE01DD
:102CD000329644C0FE01E20FF31F8193919322507C
:102CE0003109398328833AC02091840330918503C8
:102CF000232B41F420910801309109013093850381
:102D0000209384032091060130910701211531059C
:102D100041F42DB73EB740910A0150910B01241B9D
:102D2000350BE0918403F0918503E217F307A0F4DB
:102D30002E1B3F0B2817390778F0AC014E5F5F4F11
:102D40002417350748F04E0F5F1F509385034093BB
:102D500084038193919302C0E0E0F0E0CF01DF9122
:102D6000CF910895CF93DF93009709F487C0FC01BA
:102D7000329713821282C0918603D09187032097E5
:102D800081F420813181280F391F80918403909133
:102D900085038217930779F5F0938503E093840305
:102DA0006DC0DE0120E030E0AE17BF0750F4129690
:102DB0004D915C9113979D014115510509F1DA017F
:102DC000F3CFB383A28340815181840F951F8A176B
:102DD0009B0771F48D919C911197840F951F02961A
:102DE0009183808312968D919C9113979383828314
:102DF0002115310529F4F0938703E09386033EC043
:102E0000D9011396FC93EE9312974D915D91A40F07
:102E1000B51FEA17FB0779F480819181840F951F14
:102E20000296D90111969C938E9382819381139679
:102E30009C938E931297E0E0F0E08A819B8100974B
:102E400019F0FE01EC01F9CFCE01029628813981FB
:102E5000820F931F2091840330918503281739072F
:102E600069F4309729F4109287031092860302C008
:102E700013821282D0938503C0938403DF91CF9194
:102E800008951F93FC0199278827BC01E8941191AC
:102E90001032E9F3193010F01E30C8F31B3251F034
:102EA0001D3249F4689406C00E942B18610F711DF1
:102EB000811D911D119110531A30B0F33EF490957D
:102EC0008095709561957F4F8F4F9F4F1F9108950B
:102ED000F8940C94041B911144C3803219F089506A
:102EE0008550D0F708959111089581548A5108F4BE
:102EF000805E855A08959111089581568A5108F48B
:102F0000805285580895FB01DC0102C001900D92AA
:102F100041505040D8F708956817790768F4FB01CD
:102F2000DC01E40FF51FA40FB51F02C002900E9242
:102F300041505040D8F708950C948317FC018191BB
:102F4000861721F08823D9F7992708953197CF0163
:102F50000895FB01DC018D91019080190110D9F3D6
:102F6000990B0895FB01DC0101900D920020E1F71F
:102F70000895FB01DC014150504030F08D910190EB
:102F8000801919F40020B9F7881B990B0895FB01EB
:102F9000DC014150504048F001900D920020C9F7EB
:102FA00001C01D9241505040E0F70895FC0181E0BE
:102FB00090E00190061609F4CF010020D1F70197A7
:102FC0000895FB0151915523A9F0BF01DC014D91FA
:102FD00045174111E1F759F4CD010190002049F066
:102FE0004D9140154111C9F3FB014111EFCF81E033
:102FF00090E0019708954532510520F4423010F0D9
:103000000C940618FB011082CB010895BB274A30AF
:1030100031F4992322F4BDE2909581959F4F0C9451
:1030200079182532310520F4223010F00C941C1848
:10303000FA011082CA010895BB272A3051F499235E
:1030400042F4BDE290958095709561957F4F8F4FCA
:103050009F4F0C944C18592F482F372F262F660F4F
:10306000771F881F991F660F771F881F991F620F90
:10307000731F841F951F660F771F881F991F089560
:103080002532310520F4223010F00C944B18FA014F
:103090001082CA010895BB27FA01A62F6217710595
:1030A00081059105330B30FB66F0AA27660F771F69
:1030B000881F991FAA1FA21710F0A21B63953850F2
:1030C000A9F7A05DAA3308F0A95DA19336F7B11165
:1030D000B1931082CA010C94B41A4532510520F400
:1030E000423010F00C947818FB011082CB01089547
:1030F000BB27FB015527AA27880F991FAA1FA417D2
:1031000010F0A41B83955051B9F7A05DAA3308F0C5
:10311000A95DA193009779F7B111B1931192CB01F9
:103120000C94B41A5058BB27AA270ED075C166D18B
:1031300030F06BD120F031F49F3F11F41EF45BC1ED
:103140000EF4E095E7FB51C1E92F77D180F3BA1770
:10315000620773078407950718F071F49EF58FC115
:103160000EF4E0950B2EBA2FA02D0B01B9019001A2
:103170000C01CA01A0011124FF27591B99F0593FE6
:1031800050F4503E68F11A16F040A22F232F342F2E
:103190004427585FF3CF469537952795A795F0407C
:1031A0005395C9F77EF41F16BA0B620B730B840B91
:1031B000BAF09150A1F0FF0FBB1F661F771F881F49
:1031C000C2F70EC0BA0F621F731F841F48F48795A1
:1031D00077956795B795F7959E3F08F0B3CF939590
:1031E000880F08F09927EE0F979587950895D9D005
:1031F00008F481E008950CD00FC107D140F0FED053
:1032000030F021F45F3F19F0F0C0511139C1F3C023
:1032100014D198F39923C9F35523B1F3951B550B9A
:10322000BB27AA2762177307840738F09F5F5F4F99
:10323000220F331F441FAA1FA9F333D00E2E3AF0DA
:10324000E0E830D091505040E695001CCAF729D0F4
:10325000FE2F27D0660F771F881FBB1F2617370743
:103260004807AB07B0E809F0BB0B802DBF01FF2773
:1032700093585F4F2AF09E3F510568F0B6C000C1D9
:103280005F3FECF3983EDCF3869577956795B795AD
:10329000F7959F5FC9F7880F911D9695879597F9C8
:1032A0000895E1E0660F771F881FBB1F6217730741
:1032B0008407BA0720F0621B730B840BBA0BEE1F56
:1032C00088F7E095089504D06894B111D9C00895A5
:1032D000BCD088F09F5790F0B92F9927B751A0F034
:1032E000D1F0660F771F881F991F1AF0BA95C9F79A
:1032F00012C0B13081F0C3D0B1E00895C0C0672FD3
:10330000782F8827B85F39F0B93FCCF38695779549
:103310006795B395D9F73EF4909580957095619532
:103320007F4F8F4F9F4F0895E89409C097FB3EF45D
:1033300090958095709561957F4F8F4F9F4F992302
:10334000A9F0F92F96E9BB279395F6958795779580
:103350006795B795F111F8CFFAF4BB0F11F460FF40
:103360001BC06F5F7F4F8F4F9F4F16C0882311F098
:1033700096E911C0772321F09EE8872F762F05C0AC
:10338000662371F096E8862F70E060E02AF09A9547
:10339000660F771F881FDAF7880F9695879597F93C
:1033A0000895990F0008550FAA0BE0E8FEEF1616D6
:1033B0001706E807F907C0F012161306E407F50729
:1033C00098F0621B730B840B950B39F40A2661F09D
:1033D000232B242B252B21F408950A2609F4A14040
:1033E000A6958FEF811D811D089597F99F6780E84D
:1033F00070E060E008959FEF80EC089500240A9447
:103400001616170618060906089500240A941216BF
:103410001306140605060895092E0394000C11F4F2
:10342000882352F0BB0F40F4BF2B11F460FF04C09F
:103430006F5F7F4F8F4F9F4F089557FD9058440FF8
:10344000551F59F05F3F71F04795880F97FB991F03
:1034500061F09F3F79F087950895121613061406C0
:10346000551FF2CF4695F1DF08C01616170618064D
:10347000991FF1CF86957105610508940895E89428
:10348000BB2766277727CB0197F908958ADF08F4D1
:103490008FEF08950BD0C0CFB1DF28F0B6DF18F062
:1034A000952309F0A2CFA7CF1124EACFC6DFA0F35E
:1034B000959FD1F3950F50E0551F629FF001729FC9
:1034C000BB27F00DB11D639FAA27F00DB11DAA1FE8
:1034D000649F6627B00DA11D661F829F2227B00D35
:1034E000A11D621F739FB00DA11D621F839FA00DC0
:1034F000611D221F749F3327A00D611D231F849F10
:10350000600D211D822F762F6A2F11249F57504066
:103510008AF0E1F088234AF0EE0FFF1FBB1F661F01
:10352000771F881F91505040A9F79E3F510570F0BA
:103530005CCFA6CF5F3FECF3983EDCF386957795A2
:103540006795B795F795E7959F5FC1F7FE2B880FB5
:10355000911D9695879597F9089523DF880B990B10
:103560000895992788270895DC01FC01672F719140
:103570007723E1F7329704C07C916D937083629159
:10358000AE17BF07C8F30895A1E21A2EAA1BBB1BF2
:10359000FD010DC0AA1FBB1FEE1FFF1FA217B3071F
:1035A000E407F50720F0A21BB30BE40BF50B661F35
:1035B000771F881F991F1A9469F7609570958095F9
:1035C00090959B01AC01BD01CF0108950E94F51AB1
:1035D000A59F900DB49F900DA49F800D911D112467
:1035E00008950790F691E02D0994A29FB001B39F32
:1035F000C001A39F700D811D1124911DB29F700DFC
:0C360000811D1124911D0895F894FFCF46
:10360C004D6963726F00000088038000456E74651D
:10361C00722070617373776F72643A2000436F721B
:10362C00726563742070617373776F7264210A0A18
:10363C0057616974206120666577207365636F6ECE
:10364C0064732E2E2E0057726F6E67207061737329
:10365C00776F7264210A0A5761697420612066656C
:10366C0077207365636F6E64732E2E2E0052656423
:10367C0020626C696E6B20626C696E6B00477265C0
:10368C00656E20626C696E6B20626C696E6B007289
:10369C00656400677265656E0043686F6F736520C3
:1036AC00796F757220636F6C6F7220746F206C6908
:1036BC00676874206F6E3A2072656420282A204E49
:1036CC006565642070617373776F7264292C206751
:1036DC007265656E2E20596F752068617665206F56
:1036EC006E6C79203135207365636F6E64732100C5
:1036FC006E616E00696E66006F76660000000000F9
:10370C007F0D9703000000007F0D97037F0D7F0D49
:10371C007F0D7F0D00000000E60997039209BB099D
:04372C00A209DB090A
:00000001FF
