:100000000C9446000C9450000C9450000C9450003A
:100010000C9450000C9450000C9450000C94500020
:100020000C9450000C9450000C9450000C94500010
:100030000C9450000C9450000C9450000C94500000
:100040000C9450000C9450000C9450000C945000F0
:100050000C9450000C9450000C9450000C945000E0
:100060000C9450000C9450000C9450000C945000D0
:100070000C9450000C9450000C9450000C945000C0
:100080000C9450000C9450000C94500011241FBE8E
:10009000CFEFD0E1DEBFCDBF0E9452000C946900CB
:1000A0000C940000BF9A8F9A8E9A90E482B38927AD
:1000B00082BB82B3805882BB88B3805888BB2FEF45
:1000C00033ED80E3215030408040E1F700C0000074
:0600D000EDCFF894FFCF14
:00000001FF
