:100000000C9446000C9450000C9450000C9450003A
:100010000C9450000C9450000C9450000C94500020
:100020000C9450000C9450000C9450000C94500010
:100030000C9450000C9450000C9450000C94500000
:100040000C9450000C9450000C9450000C945000F0
:100050000C9450000C9450000C9450000C945000E0
:100060000C9450000C9450000C9450000C945000D0
:100070000C9450000C9450000C9450000C945000C0
:100080000C9450000C9450000C94500011241FBE8E
:10009000CFEFD0E1DEBFCDBF0E9456000C946F00C1
:1000A0000C9400005D9BFECF8CB9089510929000D7
:1000B00087E689B98AB188698AB9809195008E608E
:1000C0008093950088E40E9452002FEF83ED90E327
:1000D000215080409040E1F700C00000F3CFF89439
:0200E000FFCF50
:00000001FF
