:020000020000FC
:100000000C94300118951895189518951895189511
:100010001895189518951895189518951895189578
:100020001895189518951895189518951895189568
:100030001895189518951895189518951895189558
:100040001895189518951895189518951895189548
:100050001895189518951895189518951895189538
:100060001895189518951895189518951895189528
:100070001895189518951895189518951895189518
:1000800018951895189518951895189569979E01C3
:10009000E0E4F1E08E014BE050E00E94B702255F02
:1000A0003F4F89014BE00E94B702E0E4F1E006898E
:1000B0001789208D0E8B1F8B288F9E01255F3F4F48
:1000C0008E010E94780343E050E09E01255F3F4F80
:1000D0000E94D40321E630E08E010E948A0321E6CB
:1000E00030E08E010E9433049E01255F3F4F8E0158
:1000F0000E94950343E050E09E01255F3F4F8E0133
:100100000E94EA039E01255F3F4F8E010E94AB03D0
:1001100043E050E09E01255F3F4F0E9407049E018F
:100120002A5E3F4F8E010E941E049E01255F3F4FB5
:100130008E010E94580423E731E08E010E947C0466
:100140008E010E94CA0343E050E09E01255F3F4FAD
:100150008E010E94FE0243E050E021E630E08E0175
:100160000E94D60243E050E09E01255F3F4F8E0182
:100170000E94E60243E050E09E01255F3F4F8E0162
:100180000E940D0343E050E021E630E08E010E9422
:100190002E03699608956A924A92AA939A938A9333
:1001A000AE9700E007BB80E090E0A0E09E01235FF7
:1001B0003F4FE9E5F1E089014DE050E00E94B702D0
:1001C0008E014DE00E94B7022BC0482E8E01035FC6
:1001D0001F4F0E94CA03C801042D000F0A1BA02F45
:1001E00069B29E018E01035F1F4F0E94AB03142D65
:1001F000149D040C0A0E080E06180394088201E0F0
:1002000006BB8C01990F990B292F392F0E94910160
:10021000A801B9010E944C020E949C01C80136DF6E
:1002200006B3002391F209B3FE017A96E80FF91F95
:1002300000838E01065E1F4F0E94CA03C80102960A
:100240009E01235F3F4F8E010E94AB03833300E08A
:10025000900734F30FEF0ABBE3CF00008895FECF81
:100260000FE30DBF01E00EBFC0E2D1E00E94D40257
:10027000002311F00E9447030E94CB000E942D0131
:100280000C942D0136952795179507954A95D2F729
:10029000089530952095109501951F4F2F4F3F4F92
:1002A0000895FF27112477FB660F771F089409F440
:1002B000771F679517F8EE27002437FB220F331FAF
:1002C000089409F4331F279507F8089527FD0EC0F9
:1002D000EE0F001F111F221F3A953230B8F733235B
:1002E00019F427FD31E002C027FF30E0E03821F4A7
:1002F00000FF08940EF488940F4F1F4F2F4F3F4F6D
:10030000323038F4332319F427FD31E002C027FFDF
:1003100030E03F3F29F0220F000C379527950895D4
:10032000A7C0032E002012F40E944901E02F012FE4
:10033000122F232F3EE9D1CFBEDF432F4F5748F076
:100340004F3148F007FC8EC03FE72FEF1FEF0FEF54
:100350000895332789C0322F212F102F0E2F4F5190
:1003600041950E94460107FE08950C944901F90148
:10037000EE0FFF1F37FBFF3F31F0EF2BE12BE02BA0
:100380008894B8940895E02BE12B21F00894989478
:10039000B89408959894889438940895FB01EE0FCA
:1003A000FF1F77FBFF3F31F0EF2BE52BE42B889409
:1003B000B8940895E42BE52B69F3E8CFEFDF68F0FC
:1003C00021F43723262F8A010895372FFBCFE6DF4C
:1003D00020F00BF008957327EAF74EC0C8DFE8F36A
:1003E000B3F361F3DBDFC8F383F3A1F35ADF401704
:1003F00051076207730731F4011411F10024E894E6
:1004000088942BC078F0332E372F732D322E262F61
:10041000632D312E152F532D302E042F432D302CCC
:10042000012C132C371739F0669557954795F7959A
:10043000E0407395F7CFE7FBEE0FE0E010246AF0A1
:10044000EF0F041F151F261F60F4279517950795BA
:10045000E79508F46894339540CFEF0B040B150B28
:10046000260B3BCF302D3078222711270027089507
:100470003FE7302920E8F9CF3FEF2FEFF6CF8EDFAF
:10048000D8F3D1F370783727089588DFA8F3A3F362
:10049000F9CF3078372796CF6ADF70F383F3A9F36B
:1004A0007DDF50F3B3F3A9F3FCDE0124E8943F575A
:1004B000E040370FEF1F12F0D9F603C03A3E90F23A
:1004C0006894E0E00A92AA933A93AA27332422245C
:1004D0003327049FF001059FF00D712D731F149FAA
:1004E000F00D711D221C069F700D211C331C159FE1
:1004F000700D211C331E249F700D211C331E169F6E
:10050000200C311CAA1F259F200C311CA31F269FE5
:10051000300CA11D39915EF43395A695379427943C
:100520007795F795E79533953130BCF316C0AA233C
:1005300022F0332351F4339510C0339571F4A9910F
:10054000099096CFA7FD09C03A95EE0FFF1F771FC0
:10055000221C331CAA1F3230A8F7E894FE2B09F0A6
:1005600068942A2F8101E72FA9910990BFCEAF93FC
:10057000BF93D80101900D9241505040D9F7BF91DF
:10058000AF9108955A924A92BA93AA939A938A93F2
:1005900008955D804C80BB81AA8199818881F0E0BB
:1005A000EC0FFD1FEF01089501E0089502C00F5FF9
:1005B0001F4FBA0141505040672B29F0F80170815C
:1005C0002717A9F7089500E010E0089506C00F5F0F
:1005D0001F4F2F5F3F4F41505040642F652B59F004
:1005E000F8016081F9017081671789F310E0671BDA
:1005F000062F1040089500E010E008950D01D80185
:1006000005C0F90160816D932F5F3F4FBA014150E2
:100610005040672BB1F7D0010895BD01D801F90111
:1006200098010E171F0780F08F01040F151F0A177E
:100630001B0750F0A40FB51FF8010BD039F0029141
:100640000E93FBCF01910D9304D0E1F78901DB01FB
:1006500008958A0141505040012B0895F80101C0CE
:100660002193BA0141505040672BD1F7089520E003
:1006700008D0E9F708953BBF27913BB702D0D9F7DF
:1006800008952D9301501040202F212B08950EE541
:10069000402E09E0502E00E0602EF201362D6BBE98
:1006A00007911691F201EE5FFF4F3F4F3BBFA791BD
:1006B000B691F201362DEC5FFF4F3F4F3BBF4791A4
:1006C00057916691242F252B262B21F0FA01362FE6
:1006D000D2DF01C0CCDF07E0400E00E0501E601EFC
:1006E00005E619E020E0401651066206B0F20895D2
:1006F000A80102C00F5F1F4FF80160816623D1F788
:10070000F90161919F01F80161938F016623C1F79F
:100710008A010895F8015081521731F041918F01FB
:100720004423C1F700E010E0089502C02F5F3F4F5F
:10073000F8014081F9015081451741F4F8013196E3
:100740008F01442399F700E010E0089510E0451B65
:10075000042F10400895A801F90161919F01F8014B
:1007600061938F016623C1F78A010895BD01D80105
:1007700000E010E003C011960F5F1F4F4C9144231F
:1007800039F0F90141914423B1F35C914517D1F758
:10079000DB010895F80101C0319620812223E1F7A1
:1007A000E01BF10B8F010895BD01F801D9019801FB
:1007B00001910023E9F731970D910193002339F05E
:1007C0008A0141505040012BB9F700E002938901A2
:1007D000DB010895BD01D80102C041505040042FF3
:1007E000052B89F00D91F90111919F01011719F461
:1007F000002399F708C010E021503040F901208112
:10080000021B104002C000E010E0DB010895BD01B2
:10081000D801F90198010DD049F001910D93002301
:10082000D1F707D019F000E00D93FBCF8901DB0170
:1008300008958A0141505040012B0895BD0102C026
:100840000F5F1F4FF8014081442349F0D9014C91BB
:100850004423B1F340815D914517C9F702C000E020
:1008600010E0DB01089540E050E006C0762F7217DB
:1008700009F4A8010F5F1F4FF80160816623B1F7EB
:100880008A0108950E94C402F80180E090E005C04A
:100890001081011731F4019631960081002321F077
:1008A000D9010D910023A1F78C01E4E00C94CB0257
:1008B0000E94C402F90140814423A1F4E4E00C94B5
:1008C000CB02FD0141814423C9F30196D901A80F50
:1008D000B91FF801E80FF91F40815C91451789F3B2
:1008E0000F5F1F4FF8014081442319F080E090E032
:1008F000EDCF00E010E0E2CF0E94C202C901202F3C
:10090000212B11F0280104C0EDE7F1E04080518077
:10091000282F82010E944204400E511EF2010081E4
:10092000002349F40CE711E0EDE7F1E000831183C7
:1009300000E010E011C09C0182010E94B603F201A8
:10094000E00FF11F0081002311F000E00193ADE7FB
:10095000B1E0ED93FC938201E6E00C94C9023F0004
:1009600040016509003132333435363738393000CB
:100970004142434445464748494A0025640054657E
:100980007374546573745465737400416263416297
:1009900063416263416263007A7978767177657248
:0409A00000007C01D6
:040000030000026097
:00000001FF
