:020000020000FC
:100000000C944201189518951895189518951895FF
:100010001895189518951895189518951895189578
:100020001895189518951895189518951895189568
:100030001895189518951895189518951895189558
:100040001895189518951895189518951895189548
:100050001895189518951895189518951895189538
:100060001895189518951895189518951895189528
:100070001895189518951895189518951895189518
:100080001895189518951895189518950E94EC02D2
:1000900008950E949B0308950E94320408950E94CF
:1000A000470408950E946804089569979E01890194
:1000B000E0E4F1E04BE050E00E94CB02255F3F4FCF
:1000C00089014BE00E94CB02E0E4F1E00689178948
:1000D000208D0E8B1F8B288F9E01255F3F4F8E0139
:1000E0000E948A0343E050E09E01255F3F4F0E943B
:1000F000E60321E630E08E010E94490021E630E06F
:100100008E010E944F009E01255F3F4F8E010E948D
:10011000A50343E050E09E01255F3F4F8E010E9402
:1001200001049E01255F3F4F8E010E94BC0343E006
:1001300050E09E01255F3F4F0E941C049E012A5EF5
:100140003F4F8E010E944C009E01255F3F4F8E0164
:100150000E94520023E731E08E010E9491048E013B
:100160000E94DC0343E050E09E01255F3F4F8E017B
:100170000E94130343E050E021E630E08E010E942C
:10018000460043E050E09E01255F3F4F8E010E94F4
:10019000FC0243E050E09E01255F3F4F8E010E942C
:1001A000200343E050E021E630E08E010E9440034E
:1001B000699608950E94D602AE9700E007BB80E0E2
:1001C00090E0A0E0B0E09E01235F3F4F8901E9E5A8
:1001D000F1E04DE050E00E94CB029E0189014DE02C
:1001E0000E94CB0230C02C018E01035F1F4F0E9482
:1001F000DC03C8018201000F111F0A1B1B0BD80171
:100200003C01660C09B3601A9E018E01035F1F4F0B
:100210000E94BC03142D149D040C0A0E081A060C2F
:100220000394088201E006BB8C01212F220F220BD0
:10023000322F0E94A501A801B9010E9460020E940C
:10024000B001C80132DF06B3002369F209B3FE0131
:100250007A96E80FF91F00838E01065E1F4F0E94F9
:10026000DC03C80102969E01235F3F4F8E010E946E
:10027000BC03833300E0900734F30FEF0ABBE3CFF6
:100280000C94C7040FE30DBF01E00EBFC0E2D1E044
:100290000E94EA02002311F00E9459030E94DA0032
:1002A0000E9454010C9440010C944001369527950E
:1002B000179507954A95D2F7089530952095109592
:1002C00001951F4F2F4F3F4F0895FF27112477FBB4
:1002D000660F771F089409F4771F679517F8EE27C4
:1002E000002437FB220F331F089409F4331F27958E
:1002F00007F8089527FD0EC0EE0F001F111F221FE3
:100300003A953230B8F7332319F427FD31E002C0B3
:1003100027FF30E0E03821F400FF08940EF48894C1
:100320000F4F1F4F2F4F3F4F323038F4332319F404
:1003300027FD31E002C027FF30E03F3F29F0220FC8
:10034000000C379527950895A7C0032E002012F4BE
:100350000E945D01E02F012F122F232F3EE9D1CF04
:10036000BEDF432F4F5748F04F3148F007FC8EC097
:100370003FE72FEF1FEF0FEF0895332789C0322F8C
:10038000212F102F0E2F4F5141950E945A0107FE29
:1003900008950C945D01F901EE0FFF1F37FBFF3F3D
:1003A00031F0EF2BE12BE02B8894B8940895E02BEB
:1003B000E12B21F008949894B89408959894889427
:1003C00038940895FB01EE0FFF1F77FBFF3F31F0DC
:1003D000EF2BE52BE42B8894B8940895E42BE52BC0
:1003E00069F3E8CFEFDF68F021F43723262F8A0185
:1003F0000895372FFBCFE6DF20F00BF00895732729
:10040000EAF74EC0C8DFE8F3B3F361F3DBDFC8F30C
:1004100083F3A1F35ADF401751076207730731F4E2
:10042000011411F10024E89488942BC078F0332E45
:10043000372F732D322E262F632D312E152F532D4E
:10044000302E042F432D302C012C132C371739F06C
:10045000669557954795F795E0407395F7CFE7FB7D
:10046000EE0FE0E010246AF0EF0F041F151F261FA7
:1004700060F4279517950795E79508F468943395E8
:1004800040CFEF0B040B150B260B3BCF302D3078F4
:1004900022271127002708953FE7302920E8F9CFC8
:1004A0003FEF2FEFF6CF8EDFD8F3D1F370783727F9
:1004B000089588DFA8F3A3F3F9CF3078372796CFD4
:1004C0006ADF70F383F3A9F37DDF50F3B3F3A9F38D
:1004D000FCDE0124E8943F57E040370FEF1F12F095
:1004E000D9F603C03A3E90F26894E0E00A92AA93EB
:1004F0003A93AA27332422243327049FF001059F2F
:10050000F00D712D731F149FF00D711D221C069F9D
:10051000700D211C331C159F700D211C331E249F50
:10052000700D211C331E169F200C311CAA1F259F05
:10053000200C311CA31F269F300CA11D39915EF4A5
:100540003395A695379427947795F795E795339546
:100550003130BCF316C0AA2322F0332351F4339573
:1005600010C0339571F4A991099096CFA7FD09C0E9
:100570003A95EE0FFF1F771F221C331CAA1F323043
:10058000A8F7E894FE2B09F068942A2F8101E72F41
:10059000A9910990BFCEAF93BF93D80101900D925E
:1005A00041505040D9F7BF91AF9108957A926A9225
:1005B0005A924A92BA93AA939A938A9308955D8025
:1005C0004C80BB81AA8199818881F0E0EC0FFD1FEE
:1005D000EF01089501E00895F80103C031964150FC
:1005E0005040042F052B29F000810217B9F78F0125
:1005F000089500E010E00895BD01F801D90102C09E
:1006000041505040042F052B51F001911D910117CD
:10061000B9F318F40FEF1FEF04C001E001C000E0D0
:1006200010E0DB010895BD01D801F90104C021915A
:100630002D9341505040242F252BC9F7DB010895FD
:10064000BD01D801F90120173107A8F4240F351F87
:100650000217130780F4A40FB51FE40FF51F242F12
:10066000252B61F022912E9341505040F8CF2191DB
:100670002D9341505040242F252BC9F7DB010895BD
:10068000F80103C0219341505040342F352BD1F74E
:10069000089520E008D0E9F708953BBF27913BB7C4
:1006A00002D0D9F708952D9301501040202F212B0F
:1006B000089500E9402E09E0502E00E0602EF2017E
:1006C000362D6BBE07911691F201EE5FFF4F3F4F43
:1006D0003BBFA791B691F201362DEC5FFF4F3F4F24
:1006E0003BBF479157916691242F252B262B21F054
:1006F000FA01362FD2DF01C0CCDF07E0400E00E068
:10070000501E601E0EE919E020E0401651066206F8
:10071000B0F208955B2F6A2FD80101C011964C9159
:100720004423E1F7F90141919F014D934423D1F70F
:10073000A62FB52F0895F8013191321729F08F01B6
:100740003323C9F700E010E0089502C02F5F3F4F48
:10075000F8014081F9015081451739F4F8013196CB
:100760008F01442399F700E005C018F40FEF1FEF45
:10077000089501E010E008955B2F6A2FD801F90178
:1007800041919F014D934423D1F7A62FB52F089592
:10079000BD01D80101C011964C91442341F0F901EB
:1007A00040814423C1F34C9151914517C9F7A01BD7
:1007B000B10B8D01DB010895F80101C03196208154
:1007C0002223E1F7E01BF10B8F0108957B2F0A2E06
:1007D000D80101C011966C916623E1F7642F652B57
:1007E00059F0F9016191662339F09F01FD01619390
:1007F000DF0141505040F2CF20E02C93A02DB72FC5
:100800000895BD01D80104C02F5F3F4F41505040B3
:10081000042F052B69F00D91F9011081011731F0BA
:1008200018F40FEF1FEF06C001E003C0002361F7CB
:1008300000E010E0DB010895BD01D901F80103C01B
:10084000219341505040242F252B51F02D912223EC
:10085000B9F720E0219341505040242F252BC9F7B0
:10086000DB010895AD01D80101C011960C91002360
:1008700051F0F90100810023C1F30C91119101178E
:10088000C9F78D0102C000E010E0DA010895422F9F
:1008900020E030E0F8015191541709F498018F01DC
:1008A0005523C1F789010895BD01F80105C04081B4
:1008B0005D91451729F431964081442321F0D901F7
:1008C0004C914423A1F7E01BF10B8F01DB0108954C
:1008D0000E94DA02F9014081442351F414C00196C8
:1008E000FC014081FD0150814517B1F00F5F1F4FA2
:1008F000F9014081F8010081041741F0319600238D
:10090000D1F700E010E0E4E00C94E1028F01EF2B5E
:10091000C1F3802F9F2FD90111964C914423F9F6F2
:10092000F2CF0E94D802C901202F212B91F028017B
:10093000282F82010E945404400E511EF2010081B2
:10094000002389F400E010E0ECE7F1E0008301838C
:100950001BC0ECE7F1E040805180042D052941F7F0
:1009600000E010E011C09C0182010E94C803F20166
:10097000E00FF11F0081002311F000E00193ACE7CC
:10098000B1E0ED93FC938201E6E00C94DF02FFCF2F
:100990003C0040019E090002007C01000000313251
:1009A00033343536373839300041424344454647C1
:1009B00048494A002564005465737454657374543F
:1009C00065737400416263416263416263416263C3
:0A09D000007A79787671776572007D
:040000030000028473
:00000001FF
