:100000000C9446000C9450000C9450000C9450003A
:100010000C9450000C9450000C9450000C94500020
:100020000C9450000C9450000C9450000C94500010
:100030000C9450000C9450000C9450000C94500000
:100040000C9450000C9450000C9450000C945000F0
:100050000C9450000C9450000C9450000C945000E0
:100060000C9450000C9450000C9450000C945000D0
:100070000C9450000C9450000C9450000C945000C0
:100080000C9450000C9450000C94500011241FBE8E
:10009000CFEFD0E1DEBFCDBF0E9459000C947500B8
:1000A0000C94000090919B0095FFFCCF80939C00E6
:1000B00008951092980087E68093990080919A00A5
:1000C000886980939A0080919D008E6080939D0046
:1000D00088E40E9452002FEF80E792E02150804098
:0E00E0009040E1F700C00000F3CFF894FFCF8E
:00000001FF
