:100000000C9482010C94AA010C94AA010C94AA01EC
:100010000C94AA010C94AA010C94AA010C94AA01B4
:100020000C94AA010C94AA010C9447160C94DE14AB
:100030000C94AA010C94AA010C94AA010C94AA0194
:100040000C94AA010C94AA010C94AA010C94AA0184
:100050000C94AA010C94AA010C94AA010C947902A4
:100060000C94AA010C94AA010C94AA010C94AA0164
:100070000C94AA010C94AA010C94AA010C94AA0154
:100080000C94AA010C94AA010C94AA010C94AA0144
:100090000C94AA010C94AA010C94AA010C94AA0134
:1000A0000C94AA010C94AA010C94AA018D0390034C
:1000B00083038703B103B103B103940398039C0343
:1000C000A203A603B103AC03070605040100080A56
:1000D0000B0C0D090000000200080E0000030401D3
:1000E000000B000000000000000000000000000005
:1000F0000000040802011040804010204080408031
:1001000008020401804020100201108010204040AD
:1001100004040404040304050202020204030202AC
:100120000202060606060606040402020204000095
:1001300000002300260029002C002F0000000000F2
:10014000250028002B002E003100000000002400B4
:1001500027002A002D003000080B000202020100D7
:10016000090400000102020000052400100105241A
:10017000010101042402060524060001070581038C
:1001800010004009040100020A00000007050202F5
:100190004000000705830240000000C18081C112B9
:1001A00001000202000040412336800001010200EC
:1001B00001120100020000004041233680000101CD
:1001C0000200011803410072006400750069006EAE
:1001D000006F0020004C004C0043002203410072DD
:1001E000006400750069006E006F0020004C00651F
:1001F000006F006E006100720064006F000403096C
:100200000400000000000000002A2B28000000006D
:1002100000000000000000000000000000000000DE
:10022000002C9EB4A0A1A2A434A6A7A5AE362D375B
:1002300038271E1F20212223242526B333B62EB7AC
:10024000B89F8485868788898A8B8C8D8E8F9091C4
:1002500092939495969798999A9B9C9D2F3130A351
:10026000AD350405060708090A0B0C0D0E0F101119
:1002700012131415161718191A1B1C1DAFB1B0B59F
:10028000000904020001030000000921010100012E
:100290002265000705840340000105010902A10150
:1002A0000901A1008501050919012903150025018E
:1002B00095037501810295017505810305010930DA
:1002C000093109381581257F750895038106C0C05D
:1002D00005010906A1018502050719E029E71500B6
:1002E0002501750195088102950175088103950620
:1002F0007508150025650507190029658100C000EE
:10030000510B451A11241FBECFEFDAE0DEBFCDBF7F
:1003100011E0A0E0B1E0E2E3FCE302C005900D9241
:10032000A23EB107D9F722E0A2EEB1E001C01D92D2
:10033000A835B207E1F713E0C4E0D3E004C0229788
:10034000FE010E94F91DC030D107C9F70E94380A8A
:100350000C94791A0C94000060E875E28BEE91E041
:100360000E94400B61E070E080E090E00E94F202A9
:1003700061E08DE00E94B20361E070E080E090E017
:100380000E94F20261E08DE00E94EB0362E171E005
:100390008BEE91E00E942D0563E371E08BEE91E01E
:1003A0000C942D056DE371E08BEE91E00E942D051C
:1003B00061E08DE00E94EB0380E090E0089564E44A
:1003C00071E08BEE91E00E942D0560E08DE00E94CF
:1003D000EB0380E090E00895EF92FF920F931F935C
:1003E000CF93DF9300D000D01F92CDB7DEB7FE01D0
:1003F00031967F019F012E193F09261737072CF4EC
:10040000DC012D91CD012193F5CF8B0177FF02C047
:1004100000E010E0F701E00FF11F108261E471E0ED
:10042000C7010E94BA1A892B19F40E94D20110C088
:1004300068E471E0C7010E94BA1A892B19F40E947E
:10044000DF0106C06CE471E08BEE91E00E942D05A7
:10045000C8010F900F900F900F900F90DF91CF91E8
:100460001F910F91FF90EF9008950F931F93CF93DB
:10047000DF93CDB7DEB7E0970FB6F894DEBF0FBEBF
:10048000CDBF62E771E08BEE91E00E942D0548EB55
:100490005BE060E070E08BEE91E00E940808FE01F6
:1004A00031969E012F5C3F4F8F011192E217F307A7
:1004B000E1F720E330E0A8016AE08BEE91E00E94D2
:1004C000C109BC01823091051CF0C8010E94EC01F9
:1004D00068EB7BE080E090E00E94F202E0960FB6CD
:1004E000F894DEBF0FBECDBFDF91CF911F910F916A
:1004F00008951F920F920FB60F9211242F933F93DE
:100500008F939F93AF93BF938091E3019091E40108
:10051000A091E501B091E6013091E20123E0230FC3
:100520002D3720F40196A11DB11D05C026E8230F2B
:100530000296A11DB11D2093E2018093E3019093E7
:10054000E401A093E501B093E6018091E701909169
:10055000E801A091E901B091EA010196A11DB11D48
:100560008093E7019093E801A093E901B093EA0139
:10057000BF91AF919F918F913F912F910F900FBE9F
:100580000F901F9018952FB7F8946091E301709128
:10059000E4018091E5019091E6012FBF08953FB7F6
:1005A000F8948091E7019091E801A091E901B09160
:1005B000EA0126B5A89B05C02F3F19F00196A11DA1
:1005C000B11D3FBF6627782F892F9A2F620F711DAB
:1005D000811D911D42E0660F771F881F991F4A9564
:1005E000D1F70895CF92DF92EF92FF92CF93DF93EE
:1005F0006B017C010E94CF02EB01C114D104E10424
:10060000F10479F00E94CF026C1B7D0B683E7340B1
:10061000A0F381E0C81AD108E108F108C851DC4F05
:10062000ECCFDF91CF91FF90EF90DF90CF900895C6
:100630000197009739F0880F991F880F991F02972B
:100640000197F1F70895789484B5826084BD84B5EC
:10065000816084BD85B5826085BD85B5816085BDBD
:10066000EEE6F0E0808181608083E1E8F0E01082D6
:10067000808182608083808181608083E0E8F0E017
:10068000808181608083E1E9F0E080818260808305
:10069000808181608083E0E9F0E0808181608083F7
:1006A000E1ECF0E0808184608083808182608083DF
:1006B000808181608083E3ECF0E0808181608083D1
:1006C000E0ECF0E0808182608083E2ECF0E0808109
:1006D00081608083EAE7F0E08081846080838081AC
:1006E0008260808380818160808380818068808354
:1006F000089590E0FC013197EE30F10590F5EA5A4B
:10070000FF4F0C94F71D809180008F7703C080917C
:1007100080008F7D80938000089584B58F7702C01C
:1007200084B58F7D84BD0895809190008F7707C038
:10073000809190008F7D03C080919000877F80938F
:10074000900008958091C0008F7703C08091C00011
:100750008F7D8093C00008958091C200877F809331
:10076000C2000895CF93DF9390E0FC01EE50FF4F5D
:100770002491FC01E05FFE4F8491882349F190E0D1
:10078000880F991FFC01E65BFE4FA591B491845C34
:100790009E4FFC01C591D4919FB7611108C0F89498
:1007A0008C91209582238C93888182230AC06230A9
:1007B00051F4F8948C91322F309583238C93888157
:1007C000822B888304C0F8948C91822B8C939FBFDA
:1007D000DF91CF9108950F931F93CF93DF931F92D3
:1007E000CDB7DEB7282F30E0F901EC52FF4F8491EE
:1007F000F901EE50FF4F1491F901E05FFE4F0491B3
:100800000023C9F0882321F069830E94790369815C
:10081000E02FF0E0EE0FFF1FE45CFE4FA591B491D6
:100820009FB7F8948C91611103C01095812301C08A
:10083000812B8C939FBF0F90DF91CF911F910F91D0
:100840000895CF93DF93282F30E0F901EC52FF4F4A
:100850008491F901EE50FF4FD491F901E05FFE4F12
:10086000C491CC2391F081110E947903EC2FF0E028
:10087000EE0FFF1FE25DFE4FA591B4912C912D2349
:1008800081E090E021F480E002C080E090E0DF9120
:10089000CF910895CF92DF92EF92FF920F931F9323
:1008A000CF93DF936C017A01EB01E60EF71E00E0B7
:1008B00010E0CE15DF0561F06991D601ED91FC9154
:1008C0000190F081E02DC6010995080F191FF1CFA5
:1008D000C801DF91CF911F910F91FF90EF90DF90B2
:1008E000CF9008956115710581F0DB010D90002016
:1008F000E9F7AD0141505109461B570BDC01ED9161
:10090000FC910280F381E02D099480E090E008954D
:10091000EF92FF920F931F93CF93DF938C01FB0114
:10092000C0E0D0E064917F018FEFE81AF80A6623F7
:1009300061F0D801ED91FC910190F081E02DC801AA
:100940000995C80FD91FF701EDCFCE01DF91CF91E7
:100950001F910F91FF90EF900895AF92BF92CF92A9
:10096000DF92EF92FF920F931F93CF93DF937C015F
:100970006B01C0E0D0E000E010E0D60114968D914C
:100980009C911597C817D90788F4D701ED91FC9170
:10099000A080B180BE01C6010E943D10682FC70132
:1009A000F5010995080F191F2196E7CFC801DF91BE
:1009B000CF911F910F91FF90EF90DF90CF90BF905C
:1009C000AF9008950C947204DC01ED91FC910190BC
:1009D000F081E02D0994DB01ED91FC9111970190DC
:1009E000F081E02DBC01CD0109940F931F93CF93AB
:1009F000DF93EC016DE00E94E4048C016AE0CE011B
:100A00000E94E404800F911FDF91CF911F910F91FD
:100A100008950F931F93CF93DF93EC010E948804F6
:100A20008C01CE010E94F504800F911FDF91CF91C0
:100A30001F910F9108950F931F93CF93DF93EC01B4
:100A40000E94AD048C01CE010E94F504800F911F1D
:100A5000DF91CF911F910F9108950F931F93CF9323
:100A6000DF93EC010E9472048C01CE010E94F50418
:100A7000800F911FDF91CF911F910F9108950F93D8
:100A80001F93CF93DF93EC010E94E4048C01CE010D
:100A90000E94F504800F911FDF91CF911F910F915C
:100AA00008950F931F93CF93DF93EC010E94EB0403
:100AB0008C01CE010E94F504800F911FDF91CF9130
:100AC0001F910F9108958F929F92AF92BF92CF92F4
:100AD000DF92EF92FF920F931F93CF93DF93CDB7E7
:100AE000DEB7A1970FB6F894DEBF0FBECDBF7C0175
:100AF000C42EE52FCB01D22E19A221E02D1510F026
:100B00002AE0D22E8E010F5D1F4F8D2C912CA12C2F
:100B1000B12C6C2D7E2FA50194010E94D51D8C2D2A
:100B2000D29E80191124015011098A3014F4805D7D
:100B300001C0895CF801808321153105410551050B
:100B400021F0C22EE32FCA01E4CFB801C7010E94F1
:100B50007204A1960FB6F894DEBF0FBECDBFDF9131
:100B6000CF911F910F91FF90EF90DF90CF90BF90AA
:100B7000AF909F908F900895CF92DF92EF92FF9267
:100B80000F931F93CF93DF93EC016A017B01211533
:100B9000310579F4E881F9810190F081E02D642F2D
:100BA000DF91CF911F910F91FF90EF90DF90CF9049
:100BB00009942A303105E9F477FF1AC06DE20E94EA
:100BC000E4048C0144275527BA014C195D096E09CC
:100BD0007F092AE0CE010E946305800F911FDF91FB
:100BE000CF911F910F91FF90EF90DF90CF900895DC
:100BF0002AE0B701A601CE01DF91CF911F910F919D
:100C0000FF90EF90DF90CF900C9463059A01AB01B9
:100C1000662757FD6095762F0C94BC050F931F93A4
:100C2000CF93DF93EC019A01AB01662757FD6095E6
:100C3000762F0E94BC058C01CE010E94F504800F26
:100C4000911FDF91CF911F910F9108950F931F93E3
:100C5000CF93DF93EC010E94BC058C01CE010E9472
:100C6000F504800F911FDF91CF911F910F9108958F
:100C70002115310541F4DC01ED91FC910190F081E9
:100C8000E02D642F09940C9463059A01462F50E0DF
:100C900060E070E00C9438060F931F93CF93DF93BE
:100CA000EC019A01462F50E060E070E00E943806A7
:100CB0008C01CE010E94F504800F911FDF91CF912E
:100CC0001F910F9108959A01AB0160E070E00C94C0
:100CD00038060F931F93CF93DF93EC019A01AB017A
:100CE00060E070E00E9438068C01CE010E94F5049D
:100CF000800F911FDF91CF911F910F9108950F9356
:100D00001F93CF93DF93EC010E9438068C01CE0134
:100D10000E94F504800F911FDF91CF911F910F91D9
:100D200008954F925F926F927F928F929F92AF92AF
:100D3000BF92CF92DF92EF92FF920F931F93CF93C8
:100D4000DF93EC016A017B01B22E9A01AB01C7016E
:100D5000B6010E94BE1D882319F06DEA71E027C01C
:100D600026013701E89477F82FEF3FEF4FE75FE771
:100D7000C301B2010E94BE1D81110DC02FEF3FEFD4
:100D80004FE75FE7C301B2010E94081C18161CF46C
:100D900061EB71E00CC02FEF3FEF4FE75FE4C7015D
:100DA000B6010E94571D1816ACF465EB71E0CE0138
:100DB000DF91CF911F910F91FF90EF90DF90CF9037
:100DC000BF90AF909F908F907F906F905F904F906B
:100DD0000C9472042FEF3FEF4FE75FECC701B601B1
:100DE0000E94081C87FDE1CF20E030E0A901C70187
:100DF000B6010E94081C87FF0AC06DE2CE010E9466
:100E0000E4048C01F7FAF094F7F8F09402C000E0E3
:100E100010E0A12C60E070E080E09FE3AB1441F0B3
:100E200020E030E040E251E40E940C1CA394F6CF95
:100E30009B01AC01C701B6010E94A41B6B017C01A0
:100E40000E94791C2B013C010E94A51C9B01AC0156
:100E5000C701B6010E94A31B6B017C012AE0B3010C
:100E6000A201CE010E946305080F191FBB2039F0B3
:100E700060E771E0CE010E947204080F191F7B2CFD
:100E8000772041F120E030E040E251E4C701B601B3
:100E90000E945B1D6B017C010E94741C4B01AA2403
:100EA00097FCA094BA2C2AE030E0B501A401CE0151
:100EB0000E94BC05080F191FC501B4010E94A71CA0
:100EC0009B01AC01C701B6010E94A31B6B017C0111
:100ED0007A94D6CFC801DF91CF911F910F91FF90E7
:100EE000EF90DF90CF90BF90AF909F908F907F90CA
:100EF0006F905F904F9008950C9491060F931F93FD
:100F0000CF93DF93EC010E9491068C01CE010E94E9
:100F1000F504800F911FDF91CF911F910F910895DC
:100F20000F931F93CF93DF93EC010E94C302688756
:100F300079878A879B87E881F9810680F781E02D90
:100F4000CE01099597FF15C00E94C3020885198537
:100F50002A853B85601B710B820B930B0C811D81D5
:100F60002E813F81601771078207930720F38FEF6F
:100F70009FEFDF91CF911F910F9108950F931F93D2
:100F8000CF93DF93EC010E94C302688779878A8739
:100F90009B87E881F9810084F185E02DCE010995D8
:100FA00097FF15C00E94C302088519852A853B85D5
:100FB000601B710B820B930B0C811D812E813F8175
:100FC000601771078207930720F38FEF9FEFDF9180
:100FD000CF911F910F910895CF93DF93EC01CE0134
:100FE0000E94BE0797FD11C08D32910571F09C01E2
:100FF000205331092A30310540F0E881F98106801B
:10100000F781E02DCE010995EACFDF91CF910895C8
:10101000FC01448355836683778308956F927F92A2
:101020008F929F92AF92BF92CF92DF92EF92FF92F8
:101030000F931F93CF93DF935C016B014A0139013A
:10104000FB0180818823E9F1E12CF12CC0E0D0E0A4
:10105000C5010E949007181619068CF5F601EC0FD1
:10106000FD1F2081332727FD30958217930711F04C
:10107000C0E0D0E0F601EC0FFD1F2081332727FDF3
:1010800030958217930721F42196C815D905C8F425
:101090000115110589F0F301EE0DFF1D20813327A5
:1010A00027FD30958217930739F4FFEFEF1AFF0AF7
:1010B000E016F10668F203C0E12CF12CC9CF80E004
:1010C00001C081E0DF91CF911F910F91FF90EF90D0
:1010D000DF90CF90BF90AF909F908F907F906F9058
:1010E00008950F931F9300E010E020E030E00E948D
:1010F0000E081F910F9108950F931F939A01FA0103
:1011000001900020E9F78F0101501109041B150B14
:10111000FB0101900020E9F7AF0141505109461B46
:10112000570B0E940E081F910F91089540E050E068
:101130000C947C08CF92DF92FF920F931F93CF9372
:10114000DF9300D000D0CDB7DEB76C01062F0E9430
:10115000EC07FC0197FD4BC020E030E0A901F12C29
:10116000112707FD1095E017F107E9F0ED32F105C1
:10117000C1F0CF01C0970A97B0F4AAE0B0E00E9496
:10118000FD1D9B01AC01CF01AA2797FDA095BA2FA9
:10119000280F391F4A1F5B1F20533109410951098C
:1011A00002C0FF24F394D601ED91FC910680F781F3
:1011B000E02DC60129833A834B835C830995C601E0
:1011C0000E94BE07FC01C09729813A814B815C8156
:1011D0000A9748F2E017F10731F2FF2061F0662725
:1011E0007727CB01621B730B840B950B06C060E065
:1011F00070E0CB0102C0CA01B9010F900F900F90AF
:101200000F90DF91CF911F910F91FF90DF90CF90C2
:10121000089561E00C949A087F928F929F92AF920A
:10122000BF92CF92DF92EF92FF920F931F93CF93D3
:10123000DF93EC01762E0E94EC07E82F87FD6AC051
:10124000812C912C80E8A82E8FE3B82EC12CD12CB4
:10125000760110E000E0E71579F1ED3251F1EE3260
:1012600051F180ED8E0F8A3038F5AAE0B0E0A70189
:1012700096010E94FD1D6B017C014E2F552747FDF5
:101280005095652F752FC40ED51EE61EF71E80E300
:10129000C81AD108E108F108112371F02DEC3CECDB
:1012A0004CEC5DE3C501B4010E945B1D4B015C0188
:1012B00002C001E001C011E0E881F9810680F781F8
:1012C000E02DCE010995CE010E94BE07E82F90EDDA
:1012D000980F9A3008F4BFCF8E3209F4BCCF87152F
:1012E00009F4B9CF002341F0F094E094D094C09475
:1012F000C11CD11CE11CF11CC701B601112339F03E
:101300000E94A71CA50194010E945B1D06C00E94BB
:10131000A71C03C060E070E0CB01DF91CF911F916B
:101320000F91FF90EF90DF90CF90BF90AF909F9084
:101330008F907F90089561E00C940C09CF92DF921A
:10134000EF92FF920F931F93CF93DF937C016A017B
:10135000EB0100E010E00C151D0549F0C7010E94EB
:10136000900797FD04C089930F5F1F4FF4CFC8010A
:10137000DF91CF911F910F91FF90EF90DF90CF9071
:101380000895AF92BF92CF92DF92EF92FF920F93A8
:101390001F93CF93DF936C01790121153105B9F0CB
:1013A0008A01C0E0D0E0A62EBB24A7FCB094C60101
:1013B0000E94900797FD0EC08A159B0559F0F80111
:1013C00081938F012196CE15DF0589F703C080E058
:1013D00090E001C0CE01DF91CF911F910F91FF905E
:1013E000EF90DF90CF90BF90AF9008950F931F9331
:1013F000CF93DF93EC018B016CEA71E00E94F50B57
:10140000C8010E94900797FD05C0682FCE010E9479
:10141000850DF6CFCE01DF91CF911F910F910895E9
:10142000EF92FF920F931F93CF93DF93EC018B0109
:10143000E42E6CEA71E00E94F50BC8010E9490074F
:10144000FF24E7FCF09497FD0BC08E159F0541F03B
:10145000682FCE010E94850DC8010E949007F3CF2E
:10146000CE01DF91CF911F910F91FF90EF900895E2
:101470000E9423038EE392E00E9420160E94AC019A
:10148000C0E0D0E00E9435022097E1F30E94000006
:10149000F9CF8091390290913A0220913B0230912C
:1014A0003C02821B930B8F73992708952091390278
:1014B00030913A0280913B0290913C022817390703
:1014C00049F0E0913B02F0913C02E750FE4F8081F1
:1014D00090E008958FEF9FEF0895209139023091A9
:1014E0003A0280913B0290913C0228173907A9F0FB
:1014F000E0913B02F0913C02E750FE4F8081209149
:101500003B0230913C022F5F3F4F2F7333273093C4
:101510003C0220933B0290E008958FEF9FEF0895E7
:10152000CF93DF93C0913902D0913A022196CF73C5
:10153000DD2780913B0290913C02C817D90799F0B2
:1015400082E00E94A0138F3F2FEF920761F0E0919D
:101550003902F0913A02E750FE4F8083D0933A026D
:10156000C0933902DFCFDF91CF91089583E00C94CF
:1015700004160F931F93CF93DF931F92CDB7DEB75F
:101580008C01698380910901882359F041E050E082
:10159000BE016F5F7F4F83E00E94D11318161906BA
:1015A0003CF081E090E0F8019383828380E090E05A
:1015B0000F90DF91CF911F910F910895FC01208131
:1015C0002E5F208342E450E068E571E080E80C94EF
:1015D0006C14FC0181819081913A59F4813209F0B7
:1015E0004BC047E050E062E071E080E00E946C1484
:1015F00045C0913209F040C0803239F467E070E0B4
:1016000082E091E00E94B01439C0823209F034C007
:101610008281809309018091020190910301A09140
:101620000401B0910501803B9440A105B10531F55D
:101630008091090180FD12C087E797E79093010828
:10164000809300082BE088E190E00FB6F894A8950D
:10165000809360000FBE2093600010C088E10FB639
:10166000F89480936000109260000FBEA8951092CD
:1016700001081092000802C080E0089581E00895FA
:1016800008950895CF93C09109016AE070E080E069
:1016900090E00E94F20281E0C11101C080E0CF9190
:1016A00008951092EE011092ED0188EE93E0A0E013
:1016B000B0E08093EF019093F001A093F101B0931B
:1016C000F20185EC91E09093EC018093EB01089599
:1016D0000C948F170C948F170C9427180C942718C0
:1016E000FC0181E090E02081222311F080E090E075
:1016F000089521E0FC0120830895089508950C9435
:101700000C1B0C94221B0C947E1B0C94511BFC0193
:10171000808191810C942718CF93DF93EC0188810D
:101720009981009711F00E942718198218821D8252
:101730001C821B821A82DF91CF9108950F931F9311
:10174000CF93DF93EC018B016F5F7F4F888199818D
:101750000E94A616009731F0998388831B830A8321
:1017600081E001C080E0DF91CF911F910F9108953A
:10177000CF93DF93EC0188819981892B29F08A81AD
:101780009B818617970760F4CE010E949E0B8823E9
:1017900041F08C819D81892B19F4E881F9811082B7
:1017A00081E0DF91CF910895EF92FF920F931F9305
:1017B000CF93DF93EC017B018A01BA010E94B80B41
:1017C000811104C0CE010E948C0B07C01D830C83C5
:1017D000B701888199810E94C31ACE01DF91CF9110
:1017E0001F910F91FF90EF900895FC0111821082DC
:1017F000138212821582148216826115710559F0C6
:10180000FB0101900020E9F7AF0141505109461B4F
:10181000570B0C94D40B0895CF93DF93EC01FB018D
:101820008617970761F0608171816115710529F054
:10183000448155810E94D40B02C00E948C0BCE01C2
:10184000DF91CF910895FC011182108213821282E0
:101850001582148216820C940C0CCF93DF93EC014A
:101860006115710561F0FB0101900020E9F7AF01FE
:1018700041505109461B570B0E94D40B02C00E94D5
:101880008C0BCE01DF91CF910895CF93DF9300D0E1
:10189000CDB7DEB7FC01118210821382128215824D
:1018A0001482168269831A82BE016F5F7F4F0E9485
:1018B0002D0C0F900F90DF91CF9108950F931F93F0
:1018C000CF93DF93CDB7DEB729970FB6F894DEBF7D
:1018D0000FBECDBF8C01862FF801118210821382BA
:1018E000128215821482168250E0BE016F5F7F4F14
:1018F00090E00E947E1BBE016F5F7F4FC8010E9477
:101900002D0C29960FB6F894DEBF0FBECDBFDF9128
:10191000CF911F910F9108950F931F93CF93DF9352
:10192000CDB7DEB762970FB6F894DEBF0FBECDBF5E
:101930008C01CB01F8011182108213821282158270
:101940001482168250E0BE016F5F7F4F0E940C1B15
:10195000BE016F5F7F4FC8010E942D0C62960FB6CB
:10196000F894DEBF0FBECDBFDF91CF911F910F91D5
:1019700008950F931F93CF93DF93CDB7DEB7619791
:101980000FB6F894DEBF0FBECDBF8C01CB01F801BE
:10199000118210821382128215821482168250E004
:1019A000BE016F5F7F4F0E947E1BBE016F5F7F4F46
:1019B000C8010E942D0C61960FB6F894DEBF0FBED1
:1019C000CDBFDF91CF911F910F9108950F931F937A
:1019D000CF93DF93CDB7DEB7A2970FB6F894DEBFF3
:1019E0000FBECDBF8C01CB01BA01F801118210826C
:1019F0001382128215821482168230E0AE014F5F8C
:101A00005F4F0E94221BBE016F5F7F4FC8010E9483
:101A10002D0CA2960FB6F894DEBF0FBECDBFDF919E
:101A2000CF911F910F9108950F931F93CF93DF9341
:101A3000CDB7DEB7A1970FB6F894DEBF0FBECDBF0E
:101A40008C01CB01BA01F80111821082138212823B
:101A500015821482168230E0AE014F5F5F4F0E9404
:101A6000511BBE016F5F7F4FC8010E942D0CA196D4
:101A70000FB6F894DEBF0FBECDBFDF91CF911F919F
:101A80000F910895EF92FF920F931F93CF93DF93DF
:101A9000EC017B010C811D816115710511F480E061
:101AA00016C04115510591F0040F151FB8010E9491
:101AB000B80B8823A1F3288139818C819D81B701DE
:101AC000820F931F0E94C31A1D830C8381E0DF9154
:101AD000CF911F910F91FF90EF900895FB014481EA
:101AE0005581608171810C94420D6115710559F029
:101AF000FB0101900020E9F7AF0141505109461B5D
:101B0000570B0C94420D80E00895CF93DF9300D0E3
:101B1000CDB7DEB769831A8241E050E0BE016F5F46
:101B20007F4F0E94420D0F900F90DF91CF9108954B
:101B3000EF92FF920F931F93CF93DF9300D000D0CB
:101B4000CDB7DEB77C01862F4AE050E08E010F5FF3
:101B50001F4FB80190E00E940C1BF801019000207B
:101B6000E9F7AF0141505109401B510BB801C701C2
:101B70000E94420D0F900F900F900F90DF91CF9128
:101B80001F910F91FF90EF900895EF92FF920F93A6
:101B90001F93CF93DF93CDB7DEB727970FB6F89497
:101BA000DEBF0FBECDBF7C01CB014AE050E08E010D
:101BB0000F5F1F4FB8010E940C1BF801019000201D
:101BC000E9F7AF0141505109401B510BB801C70162
:101BD0000E94420D27960FB6F894DEBF0FBECDBF10
:101BE000DF91CF911F910F91FF90EF900895EF92A9
:101BF000FF920F931F93CF93DF9300D000D000D0BC
:101C0000CDB7DEB77C01CB014AE050E08E010F5F1B
:101C10001F4FB8010E947E1BF80101900020E9F7D8
:101C2000AF0141505109401B510BB801C7010E943F
:101C3000420D26960FB6F894DEBF0FBECDBFDF91E2
:101C4000CF911F910F91FF90EF900895EF92FF9227
:101C50000F931F93CF93DF93CDB7DEB72C970FB6BB
:101C6000F894DEBF0FBECDBF7C01CB01BA012AE0E4
:101C700030E08E010F5F1F4FA8010E94221BF80168
:101C800001900020E9F7AF0141505109401B510B71
:101C9000B801C7010E94420D2C960FB6F894DEBF22
:101CA0000FBECDBFDF91CF911F910F91FF90EF90AD
:101CB0000895EF92FF920F931F93CF93DF93CDB7C9
:101CC000DEB72B970FB6F894DEBF0FBECDBF7C01F9
:101CD000CB01BA012AE030E08E010F5F1F4FA8014F
:101CE0000E94511BF80101900020E9F7AF0141501B
:101CF0005109401B510BB801C7010E94420D2B96A0
:101D00000FB6F894DEBF0FBECDBFDF91CF911F910C
:101D10000F91FF90EF900895CF93DF93EC01FB01BB
:101D200044815581608171810E94420D811103C0FF
:101D3000CE010E948C0BCE01DF91CF910895CF93FD
:101D4000DF93EC016115710569F0FB010190002042
:101D5000E9F7AF0141505109461B570B0E94420D54
:101D6000811103C0CE010E948C0BCE01DF91CF9177
:101D70000895CF93DF93EC010E94850D811103C07C
:101D8000CE010E948C0BCE01DF91CF910895CF93AD
:101D9000DF93EC010E94980D811103C0CE010E94D7
:101DA0008C0BCE01DF91CF910895CF93DF93EC019F
:101DB0000E94C50D811103C0CE010E948C0BCE0183
:101DC000DF91CF910895CF93DF93EC010E94F70D3F
:101DD000811103C0CE010E948C0BCE01DF91CF9107
:101DE0000895CF93DF93EC010E94260E811103C06A
:101DF000CE010E948C0BCE01DF91CF910895CF933D
:101E0000DF93EC010E94590E811103C0CE010E94A4
:101E10008C0BCE01DF91CF910895CF93DF93DC013E
:101E2000ED91FC91EB01A881B981309711F01097E9
:101E3000C9F4109759F0EB012C813D81232B31F02F
:101E40008C9190E091958195910914C0309781F023
:101E5000DC0114968D919C911597892B49F0808116
:101E600090E008C0BD01CF01DF91CF910C94BA1A68
:101E700080E090E0DF91CF910895FC01448155818D
:101E8000FB01248135814217530741F40E940D0F55
:101E900021E0892B09F020E0822F089580E0089549
:101EA000FC0124813581232B31F421E0611571057A
:101EB000A1F0FB0108C0FC018081918161157105D1
:101EC00031F421E0FC018081882339F005C00E94B3
:101ED000BA1A21E0892B09F020E0822F08950E9490
:101EE0000D0F892F881F8827881F08950E940D0FC6
:101EF00021E0181619060CF020E0822F08950E94A8
:101F00000D0F21E0181619060CF420E0822F089519
:101F10000E940D0F892F8095881F8827881F08959C
:101F2000EF92FF920F931F93CF93DF93861797073C
:101F300031F1FC0124813581FB0144815581241755
:101F40003507F9F4232BD9F0FC0100811181FB0145
:101F5000C081D181F80181918F01882381F0992777
:101F600087FD90950E94841A7C018991992787FDAD
:101F700090950E94841AE816F90661F302C081E088
:101F800001C080E0DF91CF911F910F91FF90EF9002
:101F90000895FA01DB0114964D915C911597DC01CF
:101FA00014962D913C911597241B350B2E173F0746
:101FB00088F08D919C91009769F0DB016D917C9187
:101FC0006115710539F08E0F9F1F0E94CA1A21E01A
:101FD000892B09F020E0822F0895FC01448155816E
:101FE000FB01248135814217530720F040E050E087
:101FF0000C94C90F80E00895FC0184819581DB0178
:1020000014964D915C9115978417950798F020814F
:1020100031812115310571F06D917C91611571054A
:1020200049F0841B950B820F931F0E94BA1A21E07E
:10203000892B09F020E0822F0895DC0114962D9160
:102040003C9115976217730728F4ED91FC91E60F08
:10205000F71F40830895FC018481958168177907F3
:1020600020F480819181009729F410923D028DE344
:1020700092E00895860F971F0895FC012481358111
:102080006217730748F480819181009729F0FC0161
:10209000E60FF71F8081089580E008950C943D10AD
:1020A0000F931F93CF93DF93EB0141155105E9F097
:1020B0002097D9F0FC016481758126173707A0F4B9
:1020C000621B730B8A01015011096017710708F434
:1020D0008B01FC0160817181620F731FA801CE0129
:1020E0000E94D81AC00FD11F1882DF91CF911F9183
:1020F0000F910895CF93DF93FC0184819581481758
:10210000590778F4C081D181772767FD7095CE019A
:10211000840F951F0E94AF1A009719F08C1B9D0B1E
:1021200002C08FEF9FEFDF91CF91089540E050E024
:102130000C947A10CF93DF93FC018481958148172A
:10214000590778F4C081D181FB0160817181CE0192
:10215000840F951F0E94F21A009719F08C1B9D0B9B
:1021600002C08FEF9FEFDF91CF91089540E050E0E4
:102170000C949A10DF92EF92FF920F931F93CF93DC
:10218000DF93EC018C819D814817590718F08FEF80
:102190009FEF1BC08A010F5F1F4FE881F981E00F9D
:1021A000F11FD0801082E880F980772767FD709555
:1021B000C7010E94E71AF701E00FF11FD0820097D4
:1021C00031F328813981821B930BDF91CF911F91CD
:1021D0000F91FF90EF90DF900895FC0144815581AD
:1021E000415051090C94BA10AF92BF92CF92DF9236
:1021F000EF92FF920F931F93CF93DF937B01EA013E
:10220000FB01448155814115510569F1FC0124818F
:1022100035812115310539F12417350720F1C21711
:10222000D30710F0E9012197FC0100811181C80159
:10223000AA24AA94BB24BA946801CC0EDD1EC81649
:10224000D906A0F0F701608171810E94F21A00970F
:1022500069F09C01201B310BC217D30708F49501CC
:1022600001965901ECCF8FEF9FEF01C0C501DF91BF
:10227000CF911F910F91FF90EF90DF90CF90BF9083
:10228000AF900895FC0144815581FB012481358183
:10229000421B530B0C94F410BF92CF92DF92EF923B
:1022A000FF920F931F93CF93DF936C017B01EA01A1
:1022B00089012417350720F48D2FE901042F182FE9
:1022C0006CEA71E0C6010E94F50BD70114968D915E
:1022D0009C9115978C179D07C8F08017910708F4FB
:1022E0008C01D701ED91FC911197E00FF11FB080A7
:1022F00010826D917C916C0F7D1FC6010E942D0C88
:10230000D701ED91FC91E00FF11FB082C601DF9182
:10231000CF911F910F91FF90EF90DF90CF90BF90E2
:102320000895CF93DF93EC01FB01248135810E9456
:102330004C11CE01DF91CF910895DC01ED91FC911C
:10234000309729F40895861301C040833196808127
:102350008111F9CF08952F923F924F925F926F9221
:102360007F928F929F92AF92BF92CF92DF92EF9225
:10237000FF920F931F93CF93DF93EC015B017A01E0
:102380004C805D804114510409F4C5C0FB01648098
:1023900075806114710409F4BEC0FA01C480D5804F
:1023A000C618D70808811981C114D104C1F4F501F8
:1023B00060817181C8010E94F21AEC01009709F452
:1023C000AAC0F7016081718144815581CE010E94CC
:1023D000941AF701048115810C0F1D1FE8CFD7FC5B
:1023E00005C0FB0120803180420143C04801F50156
:1023F00060817181C8010E94F21A2C01009719F1C5
:102400003201601A710AA301B801C4010E94941A32
:10241000680C791CF7016081718144815581C30189
:102420000E94941AF70184809580860C971CF50110
:1024300004811581040D151D8C819D818C0D9D1DC0
:102440009D838C83D4CFB801C401DF91CF911F91BC
:102450000F91FF90EF90DF90CF90BF90AF909F9043
:102460008F907F906F905F904F903F902F900C9443
:10247000C31AB101C8010E94F21A009731F08C0111
:10248000060D171D8C0C9D1CF4CF8414950409F4C3
:1024900042C08A819B818815990530F4B401CE0130
:1024A0000E949E0B8823B9F14C815D8141505109F6
:1024B00057FD31C0B501CE010E94F4108C0197FD8B
:1024C0002AC088819981F50124813581200F311F2F
:1024D000820F931F4C815D81421B530BBC018C0DFD
:1024E0009D1D0E949D1A8C819D818C0D9D1D9D833B
:1024F0008C83E881F981E80FF91F10828881998126
:10250000F7016081718144815581800F911F0E9484
:10251000941AA801CBCFDF91CF911F910F91FF901B
:10252000EF90DF90CF90BF90AF909F908F907F9073
:102530006F905F904F903F902F900895CF93DF93CF
:10254000FC01C081D181209751F08881882339F026
:10255000992787FD90950E94841A8993F6CFDF9181
:10256000CF910895CF93DF93FC01C081D181209753
:1025700051F08881882339F0992787FD90950E9432
:102580008C1A8993F6CFDF91CF910895AF92BF92C5
:10259000CF92DF92EF92FF920F931F93CF93DF932F
:1025A0007C01DC01CD90DC901197C114D10409F4B9
:1025B00041C01496CD91DC9115972097D9F1560121
:1025C0008501BFEFAB1ABB0AF8018081992787FD0F
:1025D00090950E947C1A892B99F72197CC0DDD1DCF
:1025E0008881992787FD90950E947C1A892B91F408
:1025F000AE014F5F5F4F401B510BD70115965C93A7
:102600004E931497C016D10650F4B801C6010E942B
:10261000941A05C0C017D10758F32197E1CFD7010D
:10262000ED91FC91119714968D919C911597E80F5F
:10263000F91F1082DF91CF911F910F91FF90EF90C2
:10264000DF90CF90BF90AF900895FC018081918181
:10265000009711F00C94521A60E070E0CB010895DD
:10266000615030F02091F100FC0120830196F8CFF9
:10267000289884E680934502089580914402089545
:102680002FB7FC012083F89467706093E9000895E8
:10269000CF93DF931F92CDB7DEB7682FCE0101969F
:1026A0000E9440138091F20099819FBF0F90DF91AB
:1026B000CF910895FF920F931F93CF93DF9300D094
:1026C000CDB7DEB7F62E8A0190914402992311F01E
:1026D00057FF03C08FEF9FEF2BC0682FCE010196ED
:1026E0007A830E9440138091F20090E0A8017A81E1
:1026F000801791070CF4AC01EF2DF72FF40E84E650
:10270000FE1639F02898809345029091F10091933C
:10271000F7CF4115510521F08091F200882321F077
:1027200089818FBFCA0104C08BE68093E800F8CF8F
:102730000F900F90DF91CF911F910F91FF9008950F
:10274000CF93DF931F92CDB7DEB741E050E0BE01DB
:102750006F5F7F4F0E945A13019719F4898190E0AF
:1027600002C08FEF9FEF0F90DF91CF910895CF932D
:10277000DF931F92CDB7DEB7682FCE0101960E947E
:1027800040139091E800892F807295FF04C09091CA
:10279000F20080E4891B99819FBF0F90DF91CF9158
:1027A00008954F925F926F927F928F929F92AF9215
:1027B000BF92CF92DF92EF92FF920F931F93CF932E
:1027C000DF931F92CDB7DEB7582E7B01A42E952E36
:1027D00080914402882369F0042F152F8AEFB82EC8
:1027E000852D8072782E9AE3892E852D8074682E2F
:1027F00011C08FEF9FEF53C0852D0E94B713482E55
:1028000081110CC0BA94A9F361E070E080E090E01F
:102810000E94F2020115110579F737C0282F30E028
:10282000021713070CF4402EC42CD12C0C191D09CF
:10283000652DCE0101960E944013772039F04A940D
:102840008FEF4816B1F01092F100F9CFF701842D07
:1028500057FE07C0815058F094919093F100319643
:10286000F9CF815020F091919093F100FACFEC0CC8
:10287000FD1C8091E80085FF0FC00115110511F4C2
:1028800061100AC089818FBFC5CF5D9884E68093AF
:1028900046028A2D992D03C08092E800F3CF0F9055
:1028A000DF91CF911F910F91FF90EF90DF90CF902C
:1028B000BF90AF909F908F907F906F905F904F9060
:1028C00008951092E90010924302109242029093F0
:1028D0004102809340020895CF93DF93FB0120E0F3
:1028E00030E0DEEF24173507A1F187FF02C0C49165
:1028F00001C0C081A0914202B091430260914002A8
:1029000070914102A617B707B4F49091E800957052
:10291000E1F39091E80092FD1EC0C093F100609138
:102920004202709143026F5F7F4F6F737727672B6F
:1029300011F4D093E80060914202709143026F5FFE
:102940007F4F70934302609342022F5F3F4F319657
:10295000C9CFC90102C08FEF9FEFDF91CF910895DA
:102960001F93CF93DF931F92CDB7DEB7162F209121
:10297000E80022FFFCCF612F79830E9430138BEF98
:102980008093E800812F7981972F0F90DF91CF916D
:102990001F910895CF93DF931F92CDB7DEB71982B1
:1029A000CE0101960E94DE0ACE0101960E94D41843
:1029B000898190E00F90DF91CF9108951F920F923F
:1029C0000FB60F921124EF92FF920F931F932F9344
:1029D0003F934F935F936F937F938F939F93AF93A7
:1029E000BF93EF93FF93CF93DF93CDB7DEB762979B
:1029F000DEBFCDBF1092E9008091E80083FFE7C001
:102A000068E0CE010A960E94301382EF8093E800BE
:102A10009A8597FF05C08091E80080FFFCCF03C036
:102A20008EEF8093E800892F807609F0B5C08B8502
:102A3000811105C01092F1001092F100C1C0282F41
:102A40002D7F213009F4BCC0853049F48091E80025
:102A500080FFFCCF8C8580688093E300B1C0863016
:102A600009F072C02D85E888F988223071F580E080
:102A700090E02A8B0E9461140E94CA1499E08E0192
:102A80000F5F1F4FF801392F11923A95E9F799839B
:102A90002A892A8391E09E8390E898879AEF998704
:102AA0002091420230914302275F3F4F3C832B83AA
:102AB0008D83C7010E94611449E050E0B80180E0B5
:102AC0000E946C140E94CA147BC0C7012A8B0E940A
:102AD00061142A89223241F482E290E00E94DF18D8
:102AE000892B09F06DC070C0213069F488899989FB
:102AF000089711F420933F0280913F02882389F0C8
:102B00006FE971E016C0233009F05EC08C85882320
:102B100059F0823061F0813009F056C063EC71E009
:102B200008C061EB71E005C06DEF71E002C06BEDB4
:102B300071E06115710509F447C0FB01449150E053
:102B400080E80E946C143CC0873009F43DC0883096
:102B500021F481E08093F10033C0893089F59370CE
:102B600099F5EBE9F1E081E021E096E38093E9005B
:102B70002093EB0034913093EC009093ED008F5F45
:102B80003196853099F78EE78093EA001092EA003B
:102B90008C858093440214C0888999890E946114AD
:102BA0008E85811105C0CE010A960E94E90A06C0F1
:102BB000823051F4CE010A960E940719882321F031
:102BC0008EEF8093E80003C081E28093EB00629671
:102BD0000FB6F894DEBF0FBECDBFDF91CF91FF914E
:102BE000EF91BF91AF919F918F917F916F915F9185
:102BF0004F913F912F911F910F91FF90EF900F9068
:102C00000FBE0F901F9018958093E9008091F200FD
:102C1000882319F08AE38093E8000895CF93C09148
:102C2000E40063E070E080E090E00E94F2029091A6
:102C3000E40081E0C91301C080E0CF9108950895B8
:102C40001092440281E08093D70080EA8093D800FC
:102C500082E189BD09B400FEFDCF61E070E080E053
:102C600090E00E94F20280E98093D8008CE080938B
:102C7000E2001092E000559A209A089508959091EC
:102C8000440281E0911101C080E0089508951F92EF
:102C90000F920FB60F9211242F933F934F935F9390
:102CA0006F937F938F939F93AF93BF93EF93FF9314
:102CB0008091E1001092E10083FF0FC01092E900C3
:102CC00091E09093EB001092EC0092E39093ED0072
:102CD0001092440298E09093F00082FF26C083E0B7
:102CE0000E94041682E00E944813882321F08BEE94
:102CF00091E00E94900A80914602882339F08091E9
:102D00004602815080934602882369F080914502F3
:102D1000882359F0809145028150809345028111AA
:102D200004C0289A02C05D9AF1CFFF91EF91BF9144
:102D3000AF919F918F917F916F915F914F913F9153
:102D40002F910F900FBE0F901F9018956F927F924A
:102D50008F929F92AF92BF92CF92DF92EF92FF92AB
:102D60000F931F93CF93DF93EC01CB01209781F456
:102D7000DF91CF911F910F91FF90EF90DF90CF9057
:102D8000BF90AF909F908F907F906F900C948F1713
:102D9000FE01E60FF71F9E0122503109E217F307EB
:102DA00008F4ACC0D9010D911C91119706171707B3
:102DB000B8F00530110508F49FC0A801445051092E
:102DC0004617570708F498C002501109061B170B45
:102DD000019311936D937C93CF010E9427188CC0AF
:102DE0005B01A01AB10A4E01800E911EA0915602FD
:102DF000B0915702612C712C60E070E0109709F4DB
:102E000049C0A815B905C9F5ED90FC901197670167
:102E100042E0C40ED11CCA14DB0478F147018A18C1
:102E20009B08640142E0C40ED11C1296BC9012971C
:102E30001396AC91B5E0CB16D10440F0B282A383D7
:102E400091828082D9018D939C9309C00E5F1F4FA0
:102E50000E0D1F1DF90111830083EB2DFA2F611553
:102E6000710531F0DB011396FC93EE93129744C089
:102E7000F0935702E09356023FC06D917C911197F9
:102E80006616770608F43B01BD0112960D90BC91C1
:102E9000A02DB4CF60915402709155026815790548
:102EA000E9F468167906D0F440910A0150910B01BB
:102EB0004115510541F44DB75EB760910E01709117
:102EC0000F01461B570BE417F507C0F4F0935502AA
:102ED000E0935402F901918380830EC00E948F1702
:102EE0007C01009759F0A801BE010E94941ACE01FE
:102EF0000E942718C70104C0CE0102C080E090E004
:102F0000DF91CF911F910F91FF90EF90DF90CF90C5
:102F1000BF90AF909F908F907F906F900895CF93C8
:102F2000DF938230910510F482E090E0E091560248
:102F3000F091570220E030E0A0E0B0E0309739F1A6
:102F40004081518148175907B8F04817590771F463
:102F500082819381109729F013969C938E931297F8
:102F60002CC0909357028093560227C0211531053B
:102F700031F04217530718F0A901DB0101C0EF013E
:102F80009A01BD01DF010280F381E02DD7CF211529
:102F90003105F9F0281B390B2430310580F48A8182
:102FA0009B816115710521F0FB019383828304C02D
:102FB0009093570280935602FE01329644C0FE0160
:102FC000E20FF31F819391932250310939832883B3
:102FD0003AC02091540230915502232B41F42091A4
:102FE0000C0130910D013093550220935402209131
:102FF0000A0130910B012115310541F42DB73EB77F
:1030000040910E0150910F01241B350BE0915402A9
:10301000F0915502E217F307A0F42E1B3F0B28177F
:10302000390778F0AC014E5F5F4F2417350748F041
:103030004E0F5F1F5093550240935402819391931A
:1030400002C0E0E0F0E0CF01DF91CF910895CF938F
:10305000DF93009709F487C0FC0132971382128234
:10306000C0915602D0915702209781F4208131817E
:10307000280F391F809154029091550282179307AF
:1030800079F5F0935502E09354026DC0DE0120E023
:1030900030E0AE17BF0750F412964D915C91139734
:1030A0009D014115510509F1DA01F3CFB383A283E4
:1030B00040815181840F951F8A179B0771F48D9170
:1030C0009C911197840F951F02969183808312968D
:1030D0008D919C911397938382832115310529F457
:1030E000F0935702E09356023EC0D9011396FC9329
:1030F000EE9312974D915D91A40FB51FEA17FB0750
:1031000079F480819181840F951F0296D9011196DF
:103110009C938E938281938113969C938E931297A6
:10312000E0E0F0E08A819B81009719F0FE01EC015C
:10313000F9CFCE01029628813981820F931F209109
:103140005402309155022817390769F4309729F451
:10315000109257021092560202C013821282D0932C
:103160005502C0935402DF91CF910895FF920F93BF
:103170001F93CF93DF93EC01F62EE881F981048051
:10318000F581E02D09958C01E881F9810680F781B0
:10319000E02D6F2DCE010995C8019927DF91CF91C0
:1031A0001F910F91FF900895FC0120812F5F2083D4
:1031B00049E150E061E872E080E80C946C1445E667
:1031C00050E06AE972E080E80C946C14EF92FF9290
:1031D0000F931F93CF93DF931F92CDB7DEB78983F1
:1031E0008B017A0141E050E0BE016F5F7F4F84E0C8
:1031F0000E94D113A701B80184E40E94D1130F905B
:10320000DF91CF911F910F91FF90EF900895FC01F6
:1032100091818081813A31F481E0913091F0933055
:1032200089F411C0813271F49B3021F48281809342
:10323000110105C09A3031F482818093100181E040
:103240000895089580E00895FC011082089508957E
:103250000895CF93DF9300D000D0CDB7DEB7FC0147
:10326000808189836A834B832C8344E050E0BE01D4
:103270006F5F7F4F81E00E94E6180F900F900F90D4
:103280000F90DF91CF910895CF93DF93EC01688386
:1032900020E040E060E00E942919188220E040E030
:1032A00060E0CE01DF91CF910C942919FC012081BF
:1032B000621731F0608320E040E060E00C9429194F
:1032C0000895FC012081622B0C9456196095FC0135
:1032D000208162230C945619FC018081682381E0CF
:1032E00009F480E00895FC011382128227ED31E099
:1032F0003183208308950895089548E050E082E0E6
:103300000C94E618CF93DF93DC01683818F0E8E7F7
:10331000E60F25C0E62FF0E067FF11C0E058F10985
:1033200081E090E001C0880FEA95EAF714969C913D
:103330001497982B14969C931497E0E010C0EF5FBD
:10334000FD4FE491EE2309F440C0E7FF08C0149656
:103350008C911497826014968C931497EF7716963D
:103360008C9116978E1741F117968C9117978E179F
:1033700019F118968C9118978E17F1F019968C9177
:1033800019978E17C9F01A968C911A978E17A1F07B
:103390001B968C911B978E1779F080E090E0ED01E1
:1033A000C80FD91F2E81211102C0EE8305C00196DE
:1033B00086309105A1F709C0BD016C5F7F4FCD013B
:1033C0000E947D1981E090E008C081E090E01396B2
:1033D0009C938E93129780E090E0DF91CF910895B7
:1033E000683818F0E8E7E60F25C0E62FF0E067FF41
:1033F00012C0E058F10921E030E001C0220FEA9547
:10340000EAF72095DC0114963C9114973223149628
:103410003C93E0E00FC0EF5FFD4FE491EE2329F114
:10342000E7FF08C0DC0114962C9114972D7F1496A9
:103430002C93EF7720E030E0EE2351F0DC01A20F77
:10344000B31F16964C9116974E1302C016961C92F7
:103450002F5F3F4F2630310579F7BC016C5F7F4FFE
:103460000E947D1981E090E0089580E090E0089549
:10347000FC0116821782108611861286138614822A
:10348000BC016C5F7F4F0C947D1910925302109217
:103490004A021092490287ED91E09093480280938E
:1034A000470208951F93FC0199278827BC01E894DF
:1034B00011911032E9F3193010F01E30C8F31B32AD
:1034C00051F01D3249F4689406C00E943C1B610F04
:1034D000711D811D911D119110531A30B0F33EF4EE
:1034E00090958095709561957F4F8F4F9F4F1F915D
:1034F0000895F8940C94171E911144C3803219F06A
:1035000089508550D0F708959111089581548A51BA
:1035100008F4805E855A08959111089581568A5164
:1035200008F4805285580895FB01DC0102C0019027
:103530000D9241505040D8F708956817790768F404
:10354000FB01DC01E40FF51FA40FB51F02C00290C0
:103550000E9241505040D8F708950C94941AFC01F3
:103560008191861721F08823D9F7992708953197FB
:10357000CF010895FB01DC018D91019080190110AC
:10358000D9F3990B0895FB01DC0101900D92002005
:10359000E1F70895FB01DC014150504030F08D917E
:1035A0000190801919F40020B9F7881B990B089530
:1035B000FB01DC014150504048F001900D92002089
:1035C000C9F701C01D9241505040E0F70895FC0139
:1035D00081E090E00190061609F4CF010020D1F7B8
:1035E00001970895FB0151915523A9F0BF01DC011A
:1035F0004D9145174111E1F759F4CD01019000209B
:1036000049F04D9140154111C9F3FB014111EFCF34
:1036100081E090E0019708954532510520F4423051
:1036200010F00C94171BFB011082CB010895BB27EF
:103630004A3031F4992322F4BDE2909581959F4F51
:103640000C948A1B2532310520F4223010F00C94A2
:103650002D1BFA011082CA010895BB272A3051F4AC
:10366000992342F4BDE290958095709561957F4FC6
:103670008F4F9F4F0C945D1B592F482F372F262FAC
:10368000660F771F881F991F660F771F881F991F66
:10369000620F731F841F951F660F771F881F991F66
:1036A00008952532310520F4223010F00C945C1B73
:1036B000FA011082CA010895BB27FA01A62F6217EA
:1036C000710581059105330B30FB66F0AA27660F63
:1036D000771F881F991FAA1FA21710F0A21B6395BE
:1036E0003850A9F7A05DAA3308F0A95DA19336F779
:1036F000B111B1931082CA010C94C51D4532510518
:1037000020F4423010F00C94891BFB011082CB0195
:103710000895BB27FB015527AA27880F991FAA1FC9
:10372000A41710F0A41B83955051B9F7A05DAA33DC
:1037300008F0A95DA193009779F7B111B1931192A7
:10374000CB010C94C51D5058BB27AA270ED075C1BC
:1037500066D130F06BD120F031F49F3F11F41EF4AC
:103760005BC10EF4E095E7FB51C1E92F77D180F3FF
:10377000BA17620773078407950718F071F49EF56E
:103780008FC10EF4E0950B2EBA2FA02D0B01B901BD
:1037900090010C01CA01A0011124FF27591B99F0C7
:1037A000593F50F4503E68F11A16F040A22F232FD3
:1037B000342F4427585FF3CF469537952795A79523
:1037C000F0405395C9F77EF41F16BA0B620B730BCA
:1037D000840BBAF09150A1F0FF0FBB1F661F771F3B
:1037E000881FC2F70EC0BA0F621F731F841F48F4F0
:1037F000879577956795B795F7959E3F08F0B3CF76
:103800009395880F08F09927EE0F9795879508955F
:10381000D9D008F481E008950CD00FC107D140F051
:10382000FED030F021F45F3F19F0F0C0511139C1E2
:10383000F3C014D198F39923C9F35523B1F3951B21
:10384000550BBB27AA2762177307840738F09F5FC1
:103850005F4F220F331F441FAA1FA9F333D00E2E30
:103860003AF0E0E830D091505040E695001CCAF79D
:1038700029D0FE2F27D0660F771F881FBB1F261762
:1038800037074807AB07B0E809F0BB0B802DBF0135
:10389000FF2793585F4F2AF09E3F510568F0B6C04E
:1038A00000C15F3FECF3983EDCF386957795679512
:1038B000B795F7959F5FC9F7880F911D96958795E6
:1038C00097F90895E1E0660F771F881FBB1F621705
:1038D00073078407BA0720F0621B730B840BBA0BC3
:1038E000EE1F88F7E095089504D06894B111D9C00F
:1038F0000895BCD088F09F5790F0B92F9927B75101
:10390000A0F0D1F0660F771F881F991F1AF0BA95A3
:10391000C9F712C0B13081F0C3D0B1E00895C0C082
:10392000672F782F8827B85F39F0B93FCCF3869599
:1039300077956795B395D9F73EF4909580957095F6
:1039400061957F4F8F4F9F4F0895E89409C097FB73
:103950003EF490958095709561957F4F8F4F9F4F66
:103960009923A9F0F92F96E9BB279395F6958795AA
:1039700077956795B795F111F8CFFAF4BB0F11F46D
:1039800060FF1BC06F5F7F4F8F4F9F4F16C0882314
:1039900011F096E911C0772321F09EE8872F762F4A
:1039A00005C0662371F096E8862F70E060E02AF08B
:1039B0009A95660F771F881FDAF7880F9695879577
:1039C00097F90895990F0008550FAA0BE0E8FEEF4C
:1039D00016161706E807F907C0F012161306E407D3
:1039E000F50798F0621B730B840B950B39F40A26CC
:1039F00061F0232B242B252B21F408950A2609F4AA
:103A0000A140A6958FEF811D811D089597F99F67AD
:103A100080E870E060E008959FEF80EC0895002456
:103A20000A941616170618060906089500240A9423
:103A300012161306140605060895092E0394000CA9
:103A400011F4882352F0BB0F40F4BF2B11F460FF38
:103A500004C06F5F7F4F8F4F9F4F089557FD905861
:103A6000440F551F59F05F3F71F04795880F97FB42
:103A7000991F61F09F3F79F08795089512161306FC
:103A80001406551FF2CF4695F1DF08C0161617062B
:103A90001806991FF1CF8695710561050894089560
:103AA000E894BB2766277727CB0197F908958ADF2B
:103AB00008F48FEF08950BD0C0CFB1DF28F0B6DF48
:103AC00018F0952309F0A2CFA7CF1124EACFC6DFC3
:103AD000A0F3959FD1F3950F50E0551F629FF00121
:103AE000729FBB27F00DB11D639FAA27F00DB11D7A
:103AF000AA1F649F6627B00DA11D661F829F222703
:103B0000B00DA11D621F739FB00DA11D621F839F89
:103B1000A00D611D221F749F3327A00D611D231F5F
:103B2000849F600D211D822F762F6A2F11249F57AD
:103B300050408AF0E1F088234AF0EE0FFF1FBB1FD0
:103B4000661F771F881F91505040A9F79E3F51056F
:103B500070F05CCFA6CF5F3FECF3983EDCF3869528
:103B600077956795B795F795E7959F5FC1F7FE2B1A
:103B7000880F911D9695879597F9089523DF880BF7
:103B8000990B0895992788270895DC01FC01672F78
:103B900071917723E1F7329704C07C916D93708324
:103BA0006291AE17BF07C8F30895A1E21A2EAA1BAF
:103BB000BB1BFD010DC0AA1FBB1FEE1FFF1FA217DD
:103BC000B307E407F50720F0A21BB30BE40BF50BDA
:103BD000661F771F881F991F1A9469F76095709563
:103BE000809590959B01AC01BD01CF010895EE0F2A
:103BF000FF1F0590F491E02D09940E94081EA59FD7
:103C0000900DB49F900DA49F800D911D11240895D7
:103C1000A29FB001B39FC001A39F700D811D11240D
:103C2000911DB29F700D811D1124911D0895F8946E
:023C3000FFCFC4
:103C3200FFFF00E1000000000000000058028000C9
:103C420001014578616D706C6520302E302E204860
:103C5200656C6C6F20415652206578706C6F697488
:103C6200732E004C6574277320676F21004C454406
:103C7200206F6E004C4544206F666600496E636F8C
:103C820072726563742063686F6963652C20757353
:103C920065206F6E6C79206F6E206F72206F666682
:103CA2002E00557365206F6E2F6F666620746F202D
:103CB2007475726E206F6E2F6F6666206C6967680E
:103CC200742E20596F752068617665206F6E6C794D
:103CD2002033207365636F6E64732120006E616E02
:103CE20000696E66006F766600000000007E0B4A77
:103CF2000400000000B90A4A04490A6D0A560AB6CD
:103D02000A900A00000000B6184A048219F0193815
:023D12001A0095
:00000001FF
