:100000000C94AC000C94DB000C94DB000C94DB0033
:100010000C94DB000C94DB000C94DB000C94DB00F4
:100020000C94DB000C94DB000C94DB000C94DB00E4
:100030000C94DB000C94DB000C94DB000C94DB00D4
:100040000C9496020C94DB000C9468120C94F2123F
:100050000C94DB000C94DB000C94DB000C94DB00B4
:100060000C94DB000C94DB000C94DB000C94DB00A4
:100070000C94DB000C94DB000C94A3120C942C1356
:100080000C94DB000C94DB000C94DB0000000008F7
:10009000090A000000000000010304050000000040
:1000A0000000000000000000000000000000000050
:1000B000000000000000000000000000000000013F
:1000C0000204081020408001020408102040800132
:1000D00002040810204080010201020408102040A0
:1000E000800480402010080402010102040810204E
:1000F000408005050505050505050202020202020C
:1001000002020404040404040404070703030303B1
:1001100003030303070101010101010101060606B2
:1001200006060606060000390036003300300021BE
:10013000002000630000003B00380035003200233F
:10014000006200650000003A0037003400310022F0
:100150000061006400000D1511241FBECFEFD0E137
:10016000DEBFCDBF11E0A0E0B1E0E8EBF0E400E0DD
:100170000BBF02C007900D92AC36B107D9F722E051
:10018000ACE6B1E001C01D92A63DB207E1F711E077
:10019000C8E5D1E000E006C022970109FE010BBFCF
:1001A0000E944720C635D10780E00807A9F70E94C2
:1001B000C9110C94FB170C940000BF92CF92DF92F0
:1001C000EF92FF920F931F93CF93DF93CDB7DEB7DC
:1001D000A5970FB6F894DEBF0FBECDBF8BE0E6E06B
:1001E000F1E0DE01579601900D928A95E1F78BE0E0
:1001F000E1E1F1E0DE011C9601900D928A95E1F7B4
:100200008BE0ECE1F1E08E010F5F1F4FD801019010
:100210000D928A95E1F745E254E66AE070E04AA360
:100220005BA36CA37DA3E12CF12CC12C6C2DD12CF4
:100230007D2DC7010E943F1A6091D2027091D302B6
:10024000C7010E943F1A1F9285E0B82EBF927E011F
:1002500082E2E80EF11CFF92EF920E94DE1A1F92DA
:10026000BF92FF92EF921F930F930E945A1B1F920F
:10027000BF92FF92EF921F9283E08F931F930F9391
:100280000E941D1B1F92BF92FF92EF92DF92CF92AE
:100290000E942F1AB601C8010E94711AC8010E945B
:1002A000F01A960146E050E065E070E0C8010E9457
:1002B0009C1AC6010E94F119C6010E94F119809191
:1002C000D0029091D1020E94F11925E030E045E082
:1002D00050E0BE01695E7F4FCE010C960E9434183B
:1002E00085E0FE017796DE011C9601900D928A95BD
:1002F000E1F785E0FE017796DE011C9601900D92F4
:100300008A95E1F745E050E065E070E0CE010C969B
:100310000E945D18BE01645F7F4FCE0147960E9428
:100320006418BE01645F7F4FCE0147960E94831818
:10033000C8010E94161845E050E0BE01645F7F4F7F
:10034000CE0147960E948A1845E050E0BE01645FE6
:100350007F4FCE0147960E94A918CE0147960E9472
:10036000BD1845E050E0BE01645F7F4FCE01479667
:100370000E94C71845E050E0BE01645F7F4FCE0188
:1003800047960E94E518CE0147960E94FF18BE01CD
:10039000645F7F4FCE0147960E943018CE0147968A
:1003A0000E9450190FB6F894DEBF0FBECDBFA596C0
:1003B0000FB6F894DEBF0FBECDBFDF91CF911F9176
:1003C0000F91FF90EF90DF90CF90BF900895089528
:1003D000CF93DF93CDB7DEB7CE58D1090FB6F894DF
:1003E000DEBF0FBECDBF67E271E0CE0188579F4FE1
:1003F0000E94A0040E94DD0040E855E260E070E049
:100400008AE991E00E94AF136BE271E08AE991E022
:100410000E94BE0CBE016F5F7F4F8AE991E00E948F
:10042000BE0CC457DF4F68817981CC58D0404AE078
:1004300050E08AE991E00E94FA0DC857DF4F6881C9
:100440007981C858D0408AE991E00E94BE0C6AE9DF
:1004500071E0CE018F579F4F0E948711BE016F57E9
:100460007F4FCE0188579F4F0E94B704CE018F5710
:100470009F4F0E9432044AE06AE971E0CE018F5733
:100480009F4F0E94A111BE016F577F4FCE01885729
:100490009F4F0E94B704CE018F579F4F0E94320496
:1004A00020E830E0AE014F5F5F4F6AE08AE991E0FB
:1004B0000E94521161E371E08AE991E00E942710E5
:1004C00048EE53E060E070E08AE991E00E94990F05
:1004D00061E08DE00E94CB038AE00E94010461E0AC
:1004E0008DE00E94920361E08AE00E9492038AE913
:1004F00091E00E94D6116AE070E080E090E00E94F6
:10050000100367E271E08AE991E00E94730CCE016A
:1005100088579F4F0E943204C257DF4F0FB6F8949E
:10052000DEBF0FBECDBFDF91CF9108951F920F9216
:100530000FB60F9211242F933F938F939F93AF93F6
:10054000BF9380916F0190917001A0917101B09162
:10055000720130916E0123E0230F2D3720F40196B4
:10056000A11DB11D05C026E8230F0296A11DB11DD6
:1005700020936E0180936F0190937001A09371019D
:10058000B09372018091730190917401A0917501F3
:10059000B09176010196A11DB11D809373019093D6
:1005A0007401A0937501B0937601BF91AF919F91B3
:1005B0008F913F912F910F900FBE0F901F90189524
:1005C0002FB7F89460916F01709170018091710163
:1005D000909172012FBF08953FB7F89480917301F5
:1005E00090917401A0917501B091760122B706B681
:1005F00000FE05C02F3F19F00196A11DB11D3FBFA0
:100600006627782F892F9A2F620F711D811D911DEA
:1006100042E0660F771F881F991F4A95D1F708950A
:10062000CF92DF92EF92FF92CF93DF936B017C0129
:100630000E94EC02EB01C114D104E104F10479F051
:100640000E94EC026C1B7D0B683E7340A0F381E0BE
:10065000C81AD108E108F108C851DC4FECCFDF918E
:10066000CF91FF90EF90DF90CF9008950197009782
:1006700039F0880F991F880F991F02970197F1F79A
:100680000895789483B7846083BF87B7816087BFFC
:100690001EBC8EB582608EBD8EB581608EBD8FB55D
:1006A00081608FBD85B5846085BD85B5806485BD5D
:1006B000EAE8F0E0808182608083808181608083CD
:1006C000EBE8F0E0808181608083329A319A309A41
:1006D000379A1AB808958530B9F028F4833069F054
:1006E000843071F00895893099F08A30A9F088300B
:1006F000C1F480918B008F7712C08FB58F7702C0C5
:100700008FB58F7D8FBD089585B58F7D85BD08958B
:1007100080918B008F7D03C080918B00877F8093B9
:100720008B000895CF93DF9390E0FC01E154FF4FDD
:100730002491FC01EE50FF4F8491882349F190E011
:10074000880F991FFC01EB5BFE4FA591B4918B5C68
:100750009E4FFC01C591D4919FB7611108C0F894D8
:100760008C91209582238C93888182230AC06230E9
:1007700051F4F8948C91322F309583238C93888197
:10078000822B888304C0F8948C91822B8C939FBF1A
:10079000DF91CF9108950F931F93CF93DF931F9213
:1007A000CDB7DEB7282F30E0F901E457FF4F849131
:1007B000F901E154FF4F1491F901EE50FF4F0491FC
:1007C0000023C9F0882321F069830E946B036981AB
:1007D000E02FF0E0EE0FFF1FEB5CFE4FA591B49110
:1007E0009FB7F8948C91611103C01095812301C0CB
:1007F000812B8C939FBF0F90DF91CF911F910F9111
:100800000895CF93DF93282F30E0F901E457FF4F8D
:100810008491F901E154FF4FD491F901EE50FF4F5B
:10082000C491CC2391F081110E946B03EC2FF0E076
:10083000EE0FFF1FEB5DFE4FA591B4912C912D2380
:1008400081E090E021F480E002C080E090E0DF9160
:10085000CF9108950C945A190C9470190C94CC19DA
:100860000C949F19FC01808191810C942E17CF93D9
:10087000DF93EC0188819981009711F00E942E1777
:10088000198218821D821C821B821A82DF91CF91ED
:1008900008950F931F93CF93DF93EC018B016F5F4C
:1008A0007F4F888199810E94AD15009731F099831F
:1008B00088831B830A8381E001C080E0DF91CF91B0
:1008C0001F910F910895CF93DF93EC018881998157
:1008D000892B29F08A819B818617970760F4CE01C6
:1008E0000E944904882341F08C819D81892B19F451
:1008F000E881F981108281E0DF91CF910895EF9234
:10090000FF920F931F93CF93DF93EC017B018A013A
:10091000BA010E946304811104C0CE010E94370411
:1009200007C01D830C83B701888199810E948318B9
:10093000CE01DF91CF911F910F91FF90EF9008951D
:10094000FC01118210821382128215821482168297
:100950006115710559F0FB0101900020E9F7AF0125
:1009600041505109461B570B0C947F040895CF93B7
:10097000DF93EC01FB018617970761F060817181BD
:100980006115710529F0448155810E947F0402C0E0
:100990000E943704CE01DF91CF910895FC011182AE
:1009A0001082138212821582148216820C94B7046C
:1009B000CF93DF93EC016115710561F0FB010190AC
:1009C0000020E9F7AF0141505109461B570B0E9427
:1009D0007F0402C00E943704CE01DF91CF910895B9
:1009E000CF93DF9300D0CDB7DEB7FC011182108228
:1009F0001382128215821482168269831A82BE01C2
:100A00006F5F7F4F0E94D8040F900F90DF91CF91BE
:100A100008950F931F93CF93DF93CDB7DEB7299738
:100A20000FB6F894DEBF0FBECDBF8C01862FF80144
:100A3000118210821382128215821482168250E073
:100A4000BE016F5F7F4F90E00E94CC19BE016F5FC7
:100A50007F4FC8010E94D80429960FB6F894DEBFD4
:100A60000FBECDBFDF91CF911F910F9108950F93CE
:100A70001F93CF93DF93CDB7DEB762970FB6F8948D
:100A8000DEBF0FBECDBF8C01CB01F80111821082F9
:100A90001382128215821482168250E0BE016F5FAB
:100AA0007F4F0E945A19BE016F5F7F4FC8010E949D
:100AB000D80462960FB6F894DEBF0FBECDBFDF91AB
:100AC000CF911F910F9108950F931F93CF93DF93B1
:100AD000CDB7DEB761970FB6F894DEBF0FBECDBFBE
:100AE0008C01CB01F80111821082138212821582CF
:100AF0001482168250E0BE016F5F7F4F0E94CC19B6
:100B0000BE016F5F7F4FC8010E94D80461960FB687
:100B1000F894DEBF0FBECDBFDF91CF911F910F9133
:100B200008950F931F93CF93DF93CDB7DEB7A297AE
:100B30000FB6F894DEBF0FBECDBF8C01CB01BA015A
:100B4000F801118210821382128215821482168299
:100B500030E0AE014F5F5F4F0E947019BE016F5FC2
:100B60007F4FC8010E94D804A2960FB6F894DEBF4A
:100B70000FBECDBFDF91CF911F910F9108950F93BD
:100B80001F93CF93DF93CDB7DEB7A1970FB6F8943D
:100B9000DEBF0FBECDBF8C01CB01BA01F8011182BF
:100BA00010821382128215821482168230E0AE0106
:100BB0004F5F5F4F0E949F19BE016F5F7F4FC8015B
:100BC0000E94D804A1960FB6F894DEBF0FBECDBF29
:100BD000DF91CF911F910F910895EF92FF920F93A4
:100BE0001F93CF93DF93EC017B010C811D81611575
:100BF000710511F480E016C04115510591F0040F04
:100C0000151FB8010E9463048823A1F3288139814C
:100C10008C819D81B701820F931F0E9483181D83D1
:100C20000C8381E0DF91CF911F910F91FF90EF90A6
:100C30000895FB0144815581608171810C94ED051B
:100C40006115710559F0FB0101900020E9F7AF0132
:100C500041505109461B570B0C94ED0580E0089557
:100C6000CF93DF9300D0CDB7DEB769831A8241E01E
:100C700050E0BE016F5F7F4F0E94ED050F900F9017
:100C8000DF91CF910895EF92FF920F931F93CF932F
:100C9000DF9300D000D0CDB7DEB77C01862F4AE0CD
:100CA00050E08E010F5F1F4FB80190E00E945A196B
:100CB000F80101900020E9F7AF0141505109401BB4
:100CC000510BB801C7010E94ED050F900F900F90D6
:100CD0000F90DF91CF911F910F91FF90EF900895AA
:100CE000EF92FF920F931F93CF93DF93CDB7DEB7B1
:100CF00027970FB6F894DEBF0FBECDBF7C01CB01A6
:100D00004AE050E08E010F5F1F4FB8010E945A1950
:100D1000F80101900020E9F7AF0141505109401B53
:100D2000510BB801C7010E94ED0527960FB6F89444
:100D3000DEBF0FBECDBFDF91CF911F910F91FF900E
:100D4000EF900895EF92FF920F931F93CF93DF934D
:100D500000D000D000D0CDB7DEB77C01CB014AE097
:100D600050E08E010F5F1F4FB8010E94CC19F801AF
:100D700001900020E9F7AF0141505109401B510B90
:100D8000B801C7010E94ED0526960FB6F894DEBFA4
:100D90000FBECDBFDF91CF911F910F91FF90EF90CC
:100DA0000895EF92FF920F931F93CF93DF93CDB7E8
:100DB000DEB72C970FB6F894DEBF0FBECDBF7C0117
:100DC000CB01BA012AE030E08E010F5F1F4FA8016E
:100DD0000E947019F80101900020E9F7AF0141501D
:100DE0005109401B510BB801C7010E94ED052C961B
:100DF0000FB6F894DEBF0FBECDBFDF91CF911F912C
:100E00000F91FF90EF900895EF92FF920F931F9331
:100E1000CF93DF93CDB7DEB72B970FB6F894DEBF35
:100E20000FBECDBF7C01CB01BA012AE030E08E01BC
:100E30000F5F1F4FA8010E949F19F8010190002029
:100E4000E9F7AF0141505109401B510BB801C701EF
:100E50000E94ED052B960FB6F894DEBF0FBECDBFF6
:100E6000DF91CF911F910F91FF90EF900895CF9355
:100E7000DF93EC01FB0144815581608171810E9407
:100E8000ED05811103C0CE010E943704CE01DF9130
:100E9000CF910895CF93DF93EC016115710569F04F
:100EA000FB0101900020E9F7AF0141505109461BB9
:100EB000570B0E94ED05811103C0CE010E9437043B
:100EC000CE01DF91CF910895CF93DF93EC010E9483
:100ED0003006811103C0CE010E943704CE01DF919C
:100EE000CF910895CF93DF93EC010E9443068111C7
:100EF00003C0CE010E943704CE01DF91CF91089547
:100F0000CF93DF93EC010E947006811103C0CE01E4
:100F10000E943704CE01DF91CF910895CF93DF93E4
:100F2000EC010E94A206811103C0CE010E94370489
:100F3000CE01DF91CF910895CF93DF93EC010E9412
:100F4000D106811103C0CE010E943704CE01DF918A
:100F5000CF910895CF93DF93EC010E940407811194
:100F600003C0CE010E943704CE01DF91CF910895D6
:100F7000CF93DF93DC01ED91FC91EB01A881B98166
:100F8000309711F01097C9F4109759F0EB012C81AC
:100F90003D81232B31F08C9190E0919581959109C1
:100FA00014C0309781F0DC0114968D919C911597B7
:100FB000892B49F0808190E008C0BD01CF01DF910D
:100FC000CF910C947A1880E090E0DF91CF91089552
:100FD000FC0144815581FB0124813581421753076F
:100FE00041F40E94B80721E0892B09F020E0822F0C
:100FF000089580E00895FC0124813581232B31F48C
:1010000021E061157105A1F0FB0108C0FC018081A0
:1010100091816115710531F421E0FC018081882303
:1010200039F005C00E947A1821E0892B09F020E0F0
:10103000822F08950E94B807892F881F8827881F4C
:1010400008950E94B80721E0181619060CF020E058
:10105000822F08950E94B80721E0181619060CF493
:1010600020E0822F08950E94B807892F8095881F5D
:101070008827881F0895EF92FF920F931F93CF93B5
:10108000DF938617970731F1FC0124813581FB013D
:101090004481558124173507F9F4232BD9F0FC013D
:1010A00000811181FB01C081D181F80181918F0103
:1010B000882381F0992787FD90950E9406187C016E
:1010C0008991992787FD90950E940618E816F906E0
:1010D00061F302C081E001C080E0DF91CF911F91F8
:1010E0000F91FF90EF900895FA01DB0114964D9156
:1010F0005C911597DC0114962D913C911597241B5A
:10110000350B2E173F0788F08D919C91009769F061
:10111000DB016D917C916115710539F08E0F9F1F78
:101120000E94D71821E0892B09F020E0822F089532
:10113000FC0144815581FB0124813581421753070D
:1011400020F040E050E00C94740880E00895FC0129
:1011500084819581DB0114964D915C9115978417DC
:10116000950798F0208131812115310571F06D913D
:101170007C916115710549F0841B950B820F931FBB
:101180000E947A1821E0892B09F020E0822F08952F
:10119000DC0114962D913C9115976217730728F482
:1011A000ED91FC91E60FF71F40830895FC018481C7
:1011B00095816817790720F480819181009729F43F
:1011C0001092770187E791E00895860F971F0895A1
:1011D000FC01248135816217730748F48081918175
:1011E000009729F0FC01E60FF71F8081089580E049
:1011F00008950C94E8080F931F93CF93DF93EB01AE
:1012000041155105E9F02097D9F0FC016481758101
:1012100026173707A0F4621B730B8A0101501109CE
:101220006017710708F48B01FC0160817181620F06
:10123000731FA801CE010E94E518C00FD11F1882AC
:10124000DF91CF911F910F910895CF93DF93FC0110
:10125000848195814817590778F4C081D181772717
:1012600067FD7095CE01840F951F0E946F1800973F
:1012700019F08C1B9D0B02C08FEF9FEFDF91CF9178
:10128000089540E050E00C942509CF93DF93FC01D2
:10129000848195814817590778F4C081D181FB0179
:1012A00060817181CE01840F951F0E940F190097F4
:1012B00019F08C1B9D0B02C08FEF9FEFDF91CF9138
:1012C000089540E050E00C944509DF92EF92FF92C0
:1012D0000F931F93CF93DF93EC018C819D8148176F
:1012E000590718F08FEF9FEF1BC08A010F5F1F4F48
:1012F000E881F981E00FF11FD0801082E880F98049
:10130000772767FD7095C7010E94F418F701E00F79
:10131000F11FD082009731F328813981821B930B12
:10132000DF91CF911F910F91FF90EF90DF90089583
:10133000FC0144815581415051090C946509AF92DB
:10134000BF92CF92DF92EF92FF920F931F93CF93B2
:10135000DF937B01EA01FB01448155814115510571
:1013600069F1FC01248135812115310539F12417FA
:10137000350720F1C217D30710F0E9012197FC01CE
:1013800000811181C801AA24AA94BB24BA946801DF
:10139000CC0EDD1EC816D906A0F0F7016081718160
:1013A0000E940F19009769F09C01201B310BC21796
:1013B000D30708F4950101965901ECCF8FEF9FEF09
:1013C00001C0C501DF91CF911F910F91FF90EF9068
:1013D000DF90CF90BF90AF900895FC01448155817C
:1013E000FB0124813581421B530B0C949F09BF9252
:1013F000CF92DF92EF92FF920F931F93CF93DF93E1
:101400006C017B01EA0189012417350720F48D2F37
:10141000E901042F182F60E371E0C6010E94A004C7
:10142000D70114968D919C9115978C179D07C8F044
:101430008017910708F48C01D701ED91FC91119769
:10144000E00FF11FB08010826D917C916C0F7D1FB9
:10145000C6010E94D804D701ED91FC91E00FF11F65
:10146000B082C601DF91CF911F910F91FF90EF9055
:10147000DF90CF90BF900895CF93DF93EC01FB01F5
:10148000248135810E94F709CE01DF91CF91089523
:10149000DC01ED91FC91309729F40895861301C089
:1014A0004083319680818111F9CF08952F923F9228
:1014B0004F925F926F927F928F929F92AF92BF9264
:1014C000CF92DF92EF92FF920F931F93CF93DF9310
:1014D000EC015B017A014C805D804114510409F4F8
:1014E000C5C0FB01648075806114710409F4BEC03D
:1014F000FA01C480D580C618D70808811981C114A3
:10150000D104C1F4F50160817181C8010E940F19F5
:10151000EC01009709F4AAC0F70160817181448150
:101520005581CE010E944218F701048115810C0FEC
:101530001D1FE8CFD7FC05C0FB0120803180420190
:1015400043C04801F50160817181C8010E940F19F3
:101550002C01009719F13201601A710AA301B80138
:10156000C4010E944218680C791CF70160817181E6
:1015700044815581C3010E944218F70184809580FF
:10158000860C971CF50104811581040D151D8C81B5
:101590009D818C0D9D1D9D838C83D4CFB801C4018A
:1015A000DF91CF911F910F91FF90EF90DF90CF903F
:1015B000BF90AF909F908F907F906F905F904F9073
:1015C0003F902F900C948318B101C8010E940F190D
:1015D000009731F08C01060D171D8C0C9D1CF4CF6B
:1015E0008414950409F442C08A819B818815990569
:1015F00030F4B401CE010E9449048823B9F14C8132
:101600005D814150510957FD31C0B501CE010E94A5
:101610009F098C0197FD2AC088819981F501248159
:101620003581200F311F820F931F4C815D81421B3A
:10163000530BBC018C0D9D1D0E944B188C819D810C
:101640008C0D9D1D9D838C83E881F981E80FF91F26
:10165000108288819981F70160817181448155816F
:10166000800F911F0E944218A801CBCFDF91CF912C
:101670001F910F91FF90EF90DF90CF90BF90AF90B0
:101680009F908F907F906F905F904F903F902F90A2
:101690000895CF93DF93FC01C081D181209751F051
:1016A0008881882339F0992787FD90950E94061834
:1016B0008993F6CFDF91CF910895CF93DF93FC010B
:1016C000C081D181209751F08881882339F09927F2
:1016D00087FD90950E940E188993F6CFDF91CF91E8
:1016E0000895AF92BF92CF92DF92EF92FF920F9345
:1016F0001F93CF93DF937C01DC01CD90DC90119799
:10170000C114D10409F441C01496CD91DC91159710
:101710002097D9F156018501BFEFAB1ABB0AF8013A
:101720008081992787FD90950E94FE17892B99F754
:101730002197CC0DDD1D8881992787FD90950E940A
:10174000FE17892B91F4AE014F5F5F4F401B510B89
:10175000D70115965C934E931497C016D10650F49A
:10176000B801C6010E94421805C0C017D10758F33E
:101770002197E1CFD701ED91FC91119714968D91AE
:101780009C911597E80FF91F1082DF91CF911F915F
:101790000F91FF90EF90DF90CF90BF90AF900895A2
:1017A000FC0180819181009711F00C94D41760E0C6
:1017B00070E0CB010895CF92DF92EF92FF920F93EA
:1017C0001F93CF93DF936C017A01EB01E60EF71EB6
:1017D00000E010E0CE15DF0561F06991D601ED91D2
:1017E000FC910190F081E02DC6010995080F191FA9
:1017F000F1CFC801DF91CF911F910F91FF90EF9032
:10180000DF90CF9008956115710581F0DB010D9097
:101810000020E9F7AD0141505109461B570BDC018F
:10182000ED91FC910280F381E02D099480E090E03D
:101830000895EF92FF920F931F93CF93DF938C0144
:10184000FB01C0E0D0E064917F018FEFE81AF80A55
:10185000662361F0D801ED91FC910190F081E02DBB
:10186000C8010995C80FD91FF701EDCFCE01DF914F
:10187000CF911F910F91FF90EF900895AF92BF927B
:10188000CF92DF92EF92FF920F931F93CF93DF934C
:101890007C016B01C0E0D0E000E010E0D6011496BE
:1018A0008D919C911597C817D90788F4D701ED91B0
:1018B000FC91A080B180BE01C6010E94E808682F9B
:1018C000C701F5010995080F191F2196E7CFC80137
:1018D000DF91CF911F910F91FF90EF90DF90CF900C
:1018E000BF90AF9008950C94030CDC01ED91FC9136
:1018F0000190F081E02D0994DB01ED91FC911197AD
:101900000190F081E02DBC01CD0109940F931F934C
:10191000CF93DF93EC016DE00E94750C8C016AE0BF
:10192000CE010E94750C800F911FDF91CF911F9106
:101930000F9108950F931F93CF93DF93EC010E94B3
:10194000190C8C01CE010E94860C800F911FDF9133
:10195000CF911F910F9108950F931F93CF93DF9312
:10196000EC010E943E0C8C01CE010E94860C800F7F
:10197000911FDF91CF911F910F9108950F931F93A6
:10198000CF93DF93EC010E94030C8C01CE010E94E7
:10199000860C800F911FDF91CF911F910F910895B9
:1019A0000F931F93CF93DF93EC010E94750C8C0172
:1019B000CE010E94860C800F911FDF91CF911F9165
:1019C0000F9108950F931F93CF93DF93EC010E9423
:1019D0007C0C8C01CE010E94860C800F911FDF9140
:1019E000CF911F910F9108958F929F92AF92BF92C6
:1019F000CF92DF92EF92FF920F931F93CF93DF93DB
:101A0000CDB7DEB7A1970FB6F894DEBF0FBECDBF3E
:101A10007C01C42EE52FCB01D22E19A221E02D1579
:101A200010F02AE0D22E8E010F5D1F4F8D2C912CCD
:101A3000A12CB12C6C2D7E2FA50194010E941A209F
:101A40008C2DD29E80191124015011098A3014F472
:101A5000805D01C0895CF801808321153105410555
:101A6000510521F0C22EE32FCA01E4CFB801C7010E
:101A70000E94030CA1960FB6F894DEBF0FBECDBF37
:101A8000DF91CF911F910F91FF90EF90DF90CF905A
:101A9000BF90AF909F908F900895CF92DF92EF927A
:101AA000FF920F931F93CF93DF93EC016A017B01A9
:101AB0002115310579F4E881F9810190F081E02D5B
:101AC000642FDF91CF911F910F91FF90EF90DF90E6
:101AD000CF9009942A303105E9F477FF1AC06DE2FE
:101AE0000E94750C8C0144275527BA014C195D09D9
:101AF0006E097F092AE0CE010E94F40C800F911F2D
:101B0000DF91CF911F910F91FF90EF90DF90CF90D9
:101B100008952AE0B701A601CE01DF91CF911F9170
:101B20000F91FF90EF90DF90CF900C94F40C9A01FE
:101B3000AB01662757FD6095762F0C944D0D0F93E2
:101B40001F93CF93DF93EC019A01AB01662757FDFA
:101B50006095762F0E944D0D8C01CE010E94860C5F
:101B6000800F911FDF91CF911F910F9108950F93D7
:101B70001F93CF93DF93EC010E944D0D8C01CE019A
:101B80000E94860C800F911FDF91CF911F910F91C2
:101B900008952115310541F4DC01ED91FC9101908E
:101BA000F081E02D642F09940C94F40C9A01462FD7
:101BB00050E060E070E00C94C90D0F931F93CF9339
:101BC000DF93EC019A01462F50E060E070E00E9444
:101BD000C90D8C01CE010E94860C800F911FDF91F0
:101BE000CF911F910F9108959A01AB0160E070E0D1
:101BF0000C94C90D0F931F93CF93DF93EC019A01BF
:101C0000AB0160E070E00E94C90D8C01CE010E9422
:101C1000860C800F911FDF91CF911F910F91089536
:101C20000F931F93CF93DF93EC010E94C90D8C019A
:101C3000CE010E94860C800F911FDF91CF911F91E2
:101C40000F9108954F925F926F927F928F929F9221
:101C5000AF92BF92CF92DF92EF92FF920F931F93BA
:101C6000CF93DF93EC016A017B01B22E9A01AB01A5
:101C7000C701B6010E94A41D882319F065E371E035
:101C800027C026013701E89477F82FEF3FEF4FE7A1
:101C90005FE7C301B2010E94A41D81110DC02FEFA7
:101CA0003FEF4FE75FE7C301B2010E94EE1B18163A
:101CB0001CF469E371E00CC02FEF3FEF4FE75FE4E6
:101CC000C701B6010E943D1D1816ACF46DE371E02A
:101CD000CE01DF91CF911F910F91FF90EF90DF9098
:101CE000CF90BF90AF909F908F907F906F905F90BC
:101CF0004F900C94030C2FEF3FEF4FE75FECC701C1
:101D0000B6010E94EE1B87FDE1CF20E030E0A90183
:101D1000C701B6010E94EE1B87FF0AC06DE2CE012B
:101D20000E94750C8C01F7FAF094F7F8F09402C059
:101D300000E010E0A12C60E070E080E09FE3AB14D5
:101D400041F020E030E040E251E40E94F21BA39415
:101D5000F6CF9B01AC01C701B6010E948A1B6B0143
:101D60007C010E945F1C2B013C010E948B1C9B018B
:101D7000AC01C701B6010E94891B6B017C012AE0FE
:101D8000B301A201CE010E94F40C080F191FBB2061
:101D900039F061E471E0CE010E94030C080F191FB5
:101DA0007B2C772041F120E030E040E251E4C70194
:101DB000B6010E94411D6B017C010E945A1C4B011F
:101DC000AA2497FCA094BA2C2AE030E0B501A40123
:101DD000CE010E944D0D080F191FC501B4010E94CC
:101DE0008D1C9B01AC01C701B6010E94891B6B01D0
:101DF0007C017A94D6CFC801DF91CF911F910F91CA
:101E0000FF90EF90DF90CF90BF90AF909F908F901A
:101E10007F906F905F904F9008950C94220E0F93D7
:101E20001F93CF93DF93EC010E94220E8C01CE0111
:101E30000E94860C800F911FDF91CF911F910F910F
:101E400008950F931F93CF93DF93EC010E94E0025C
:101E5000688779878A879B87E881F9810680F7817F
:101E6000E02DCE01099597FF15C00E94E00208857C
:101E700019852A853B85601B710B820B930B0C81A6
:101E80001D812E813F81601771078207930720F320
:101E90008FEF9FEFDF91CF911F910F9108950F93D7
:101EA0001F93CF93DF93EC010E94E002688779874C
:101EB0008A879B87E881F9810084F185E02DCE0136
:101EC000099597FF15C00E94E002088519852A85AB
:101ED0003B85601B710B820B930B0C811D812E8146
:101EE0003F81601771078207930720F38FEF9FEF01
:101EF000DF91CF911F910F910895CF93DF93EC0164
:101F0000CE010E944F0F97FD11C08D32910571F0E7
:101F10009C01205331092A30310540F0E881F981D4
:101F20000680F781E02DCE010995EACFDF91CF91B0
:101F30000895FC01448355836683778308956F92E7
:101F40007F928F929F92AF92BF92CF92DF92EF9249
:101F5000FF920F931F93CF93DF935C016B014A01B4
:101F60003901FB0180818823E9F1E12CF12CC0E0EB
:101F7000D0E0C5010E94210F181619068CF5F60154
:101F8000EC0FFD1F2081332727FD30958217930723
:101F900011F0C0E0D0E0F601EC0FFD1F20813327E7
:101FA00027FD30958217930721F42196C815D9058E
:101FB000C8F40115110589F0F301EE0DFF1D208114
:101FC000332727FD30958217930739F4FFEFEF1A77
:101FD000FF0AE016F10668F203C0E12CF12CC9CF2C
:101FE00080E001C081E0DF91CF911F910F91FF90C0
:101FF000EF90DF90CF90BF90AF909F908F907F90A9
:102000006F9008950F931F9300E010E020E030E000
:102010000E949F0F1F910F9108950F931F939A0194
:10202000FA0101900020E9F78F0101501109041B0A
:10203000150BFB0101900020E9F7AF014150510958
:10204000461B570B0E949F0F1F910F91089540E070
:1020500050E00C940D10CF92DF92FF920F931F93DC
:10206000CF93DF9300D000D0CDB7DEB76C01062F41
:102070000E947D0FFC0197FD4BC020E030E0A901DC
:10208000F12C112707FD1095E017F107E9F0ED326B
:10209000F105C1F0CF01C0970A97B0F4AAE0B0E013
:1020A0000E943C209B01AC01CF01AA2797FDA0957F
:1020B000BA2F280F391F4A1F5B1F205331094109CE
:1020C000510902C0FF24F394D601ED91FC910680E2
:1020D000F781E02DC60129833A834B835C83099500
:1020E000C6010E944F0FFC01C09729813A814B81A4
:1020F0005C810A9748F2E017F10731F2FF2061F0A6
:1021000066277727CB01621B730B840B950B06C0E8
:1021100060E070E0CB0102C0CA01B9010F900F90DE
:102120000F900F90DF91CF911F910F91FF90DF9053
:10213000CF90089561E00C942B107F928F929F9224
:10214000AF92BF92CF92DF92EF92FF920F931F93C5
:10215000CF93DF93EC01762E0E947D0FE82F87FD51
:102160006AC0812C912C80E8A82E8FE3B82EC12C58
:10217000D12C760110E000E0E71579F1ED3251F154
:10218000EE3251F180ED8E0F8A3038F5AAE0B0E0E2
:10219000A70196010E943C206B017C014E2F552720
:1021A00047FD5095652F752FC40ED51EE61EF71EF0
:1021B00080E3C81AD108E108F108112371F02DEC71
:1021C0003CEC4CEC5DE3C501B4010E94411D4B01A8
:1021D0005C0102C001E001C011E0E881F9810680E4
:1021E000F781E02DCE010995CE010E944F0FE82F17
:1021F00090ED980F9A3008F4BFCF8E3209F4BCCF1F
:10220000871509F4B9CF002341F0F094E094D094FD
:10221000C094C11CD11CE11CF11CC701B6011123E3
:1022200039F00E948D1CA50194010E94411D06C039
:102230000E948D1C03C060E070E0CB01DF91CF9164
:102240001F910F91FF90EF90DF90CF90BF90AF90D4
:102250009F908F907F90089561E00C949D10CF9295
:10226000DF92EF92FF920F931F93CF93DF937C0146
:102270006A01EB0100E010E00C151D0549F0C701F3
:102280000E94210F97FD04C089930F5F1F4FF4CF69
:10229000C801DF91CF911F910F91FF90EF90DF90D8
:1022A000CF900895AF92BF92CF92DF92EF92FF92BC
:1022B0000F931F93CF93DF936C01790121153105A3
:1022C000B9F08A01C0E0D0E0A62EBB24A7FCB094F0
:1022D000C6010E94210F97FD0EC08A159B0559F07B
:1022E000F80181938F012196CE15DF0589F703C090
:1022F00080E090E001C0CE01DF91CF911F910F915E
:10230000FF90EF90DF90CF90BF90AF9008950F9324
:102310001F93CF93DF93EC018B0160E371E00E9488
:10232000A004C8010E94210F97FD05C0682FCE01AF
:102330000E943006F6CFCE01DF91CF911F910F9111
:102340000895EF92FF920F931F93CF93DF93EC01C9
:102350008B01E42E60E371E00E94A004C8010E949A
:10236000210FFF24E7FCF09497FD0BC08E159F050D
:1023700041F0682FCE010E943006C8010E94210F53
:10238000F3CFCE01DF91CF911F910F91FF90EF908E
:1023900008950E9441030E94E801C1EED2E10E942B
:1023A000E7012097E1F30E94E112F9CFFC012485B7
:1023B0003585F901E05CFF4F808191813296208163
:1023C0003181821B930B8F7399270895FC018485BB
:1023D0009585FC01E05CFF4F408151813296208160
:1023E00031814217530741F00190F081E02DE80F51
:1023F000F91F808190E008958FEF9FEF0895FC0111
:1024000084859585FC01E05CFF4F408151813296C7
:10241000208131814217530779F0A081B181A80F43
:10242000B91F8C91208131812F5F3F4F2F7333274C
:102430003183208390E008958FEF9FEF0895FC0192
:1024400081A1882329F0A489B5898C9186FFFBCFCF
:1024500011A20895CF93DF93FC0126853785D9011A
:10246000A05CBF4F8D919C91119701968F73992716
:10247000E901CE5BDF4F4881598184179507D9F375
:102480000D90BC91A02DA20FB31F6C93A685B785AC
:10249000A05CBF4F11969C938E93A689B7892C910F
:1024A00081E090E0078C02C0880F991F0A94E2F740
:1024B000282B2C9381E081A30488F589E02D80816D
:1024C0008064808381E090E0DF91CF91089508954A
:1024D0001F920F920FB60F9211240BB60F922F93EB
:1024E0003F934F938F939F93EF93FF935A991BC002
:1024F0004CB18091C8029091C90201968F739927BF
:102500002091CA023091CB028217930769F0E091C3
:10251000C802F091C902E857FD4F40839093C90269
:102520008093C80201C08CB1FF91EF919F918F9170
:102530004F913F912F910F900BBE0F900FBE0F90B8
:102540001F90189508951F920F920FB60F921124A5
:102550000BB60F922F933F934F938F939F93EF93CD
:10256000FF9380919B0082FD1CC040919C00809154
:1025700040029091410201968F7399272091420267
:10258000309143028217930771F0E0914002F0917D
:102590004102E050FE4F40839093410280934002FD
:1025A00002C080919C00FF91EF919F918F914F917C
:1025B0003F912F910F900BBE0F900FBE0F901F9069
:1025C00018958AE991E00E94D611892B11F00E949A
:1025D000671288E791E00E94D611892B11F00C94C4
:1025E000A21208951F920F920FB60F9211240BB6EC
:1025F0000F922F933F938F939F93EF93FF9320918D
:10260000840230918502809186029091870228177A
:10261000390711F4559813C0E0918602F0918702B2
:10262000EC5BFD4F2081809186029091870201969C
:102630008F73992790938702809386022CB9FF911C
:10264000EF919F918F913F912F910F900BBE0F9023
:102650000FBE0F901F9018951F920F920FB60F92FA
:1026600011240BB60F922F933F938F939F93EF9369
:10267000FF932091FC013091FD018091FE0190912A
:10268000FF012817390731F480919A008F7D8093DC
:102690009A0014C0E091FE01F091FF01E454FE4F56
:1026A00020818091FE019091FF0101968F739927FF
:1026B0009093FF018093FE0120939C00FF91EF9186
:1026C0009F918F913F912F910F900BBE0F900FBE56
:1026D0000F901F9018958F929F92AF92BF92CF92BA
:1026E000DF92EF92FF920F931F93CF93DF93CDB7BB
:1026F000DEB7FC011382128288EE93E0A0E0B0E026
:1027000084839583A683B7838FE591E0918380834B
:102710007587648757874687318B208B138B028B95
:10272000F58AE48AD78AC68AB18EA08E938E828E6D
:102730008F85848F8889858F8989868F8A89878FFD
:102740008B8980A3DF91CF911F910F91FF90EF9024
:10275000DF90CF90BF90AF909F908F900895CF92D1
:10276000DF92EF92FF92CF93DF93EC016A017B013E
:10277000411581EE580761057105F9F0EC89FD8975
:1027800081E090E008A002C0880F991F0A94E2F748
:10279000808360E079E08DE390E0A70196010E94DC
:1027A0001A2021503109410951095695479537950D
:1027B0002795211580E1380798F0EC89FD89108272
:1027C00060E874E88EE190E0A70196010E941A206B
:1027D000215031094109510956954795379527955B
:1027E000E889F9893083EA89FB89208319A2EE8977
:1027F000FF89408181E090E09C010C8C02C0220F97
:10280000331F0A94E2F7422B4083EE89FF8940810F
:102810009C010D8C02C0220F331F0A94E2F7422B59
:102820004083EE89FF8940819C010E8C02C0220FFB
:10283000331F0A94E2F7422B4083EE89FF892081FF
:102840000F8C02C0880F991F0A94E2F780958223AB
:102850008083DF91CF91FF90EF90DF90CF9008952C
:10286000BF92CF92DF92EF92FF92CF93DF93EC0172
:102870006A017B01B22E411581EE58076105710591
:10288000F9F0EC89FD8981E090E008A002C0880F92
:10289000991F0A94E2F7808360E079E08DE390E08D
:1028A000A70196010E941A202150310941095109BE
:1028B0005695479537952795211580E1380798F06B
:1028C000EC89FD89108260E874E88EE190E0A70150
:1028D00096010E941A20215031094109510956954B
:1028E000479537952795E889F9893083EA89FB89E7
:1028F0002083E88DF98DB082EE89FF89408181E0E7
:1029000090E09C010C8C02C0220F331F0A94E2F766
:10291000422B4083EE89FF8940819C010D8C02C0CF
:10292000220F331F0A94E2F7422B4083EE89FF897E
:1029300040819C010E8C02C0220F331F0A94E2F7E3
:10294000422B4083EE89FF8920810F8C02C0880FC3
:10295000991F0A94E2F7809582238083DF91CF91BB
:10296000FF90EF90DF90CF90BF900895CF93DF93CB
:10297000FC0186859785DC01A05CBF4FEC01CE5B36
:10298000DF4F4D915C911197288139814217530790
:10299000C1F7A689B7894C9181E090E09C01048C35
:1029A00002C0220F331F0A94E2F7209524232C93B0
:1029B000A689B7894C919C01058C02C0220F331F58
:1029C0000A94E2F7209524232C93A689B7894C9189
:1029D0009C01068C02C0220F331F0A94E2F7209557
:1029E00024232C93A689B7892C91078C02C0880FC9
:1029F000991F0A94E2F7809582238C9384859585AC
:102A0000FC01EE5BFF4F20813181329731832083BF
:102A1000DF91CF91089581E0089510929D01109269
:102A20009C0188EE93E0A0E0B0E080939E0190933B
:102A30009F01A093A001B093A1012FE531E0309355
:102A40009B0120939A0148E852E05093A7014093DC
:102A5000A60144E452E05093A9014093A80140E943
:102A600050E05093AB014093AA0149E250E05093EB
:102A7000AD014093AC014BE250E05093AF01409365
:102A8000AE014AE250E05093B1014093B00145E9F4
:102A900050E05093B3014093B2014CE250E05093A8
:102AA000B5014093B401E4E0E093B60173E07093A4
:102AB000B70167E06093B80155E05093B90141E078
:102AC0004093BA0110927B0110927A0180937C01AD
:102AD00090937D01A0937E01B0937F0130937901A3
:102AE0002093780180E092E09093850180938401A7
:102AF0008CEB91E0909387018093860188E990E0C8
:102B0000909389018093880189E990E090938B01EB
:102B100080938A018BE990E090938D0180938C01E2
:102B20008AE990E090938F0180938E018DE990E087
:102B300090939101809390018CE990E090939301A0
:102B400080939201E09394017093950160939601B4
:102B5000509397014093980108956F927F928F92BE
:102B60009F92AF92BF92CF92DF92EF92FF920F931C
:102B70001F93CF93DF93EC01CB01209781F4DF917A
:102B8000CF911F910F91FF90EF90DF90CF90BF906A
:102B9000AF909F908F907F906F900C949616FE014F
:102BA000E60FF71F9E0122503109E217F30708F4E0
:102BB000ACC0D9010D911C91119706171707B8F0F9
:102BC0000530110508F49FC0A8014450510946176B
:102BD000570708F498C002501109061B170B019300
:102BE00011936D937C93CF010E942E178CC05B01D3
:102BF000A01AB10A4E01800E911EA091CE02B09192
:102C0000CF02612C712C60E070E0109709F449C08C
:102C1000A815B905C9F5ED90FC901197670142E040
:102C2000C40ED11CCA14DB0478F147018A189B0832
:102C3000640142E0C40ED11C1296BC901297139608
:102C4000AC91B5E0CB16D10440F0B282A38391825F
:102C50008082D9018D939C9309C00E5F1F4F0E0D8A
:102C60001F1DF90111830083EB2DFA2F61157105EA
:102C700031F0DB011396FC93EE93129744C0F0936E
:102C8000CF02E093CE023FC06D917C911197661602
:102C9000770608F43B01BD0112960D90BC91A02D62
:102CA000B4CF6091CC027091CD0268157905E9F43A
:102CB00068167906D0F44091000150910101411548
:102CC000510541F44DB75EB7609104017091050163
:102CD000461B570BE417F507C0F4F093CD02E093C1
:102CE000CC02F901918380830EC00E9496167C016C
:102CF000009759F0A801BE010E944218CE010E941F
:102D00002E17C70104C0CE0102C080E090E0DF9121
:102D1000CF911F910F91FF90EF90DF90CF90BF90D8
:102D2000AF909F908F907F906F900895CF93DF9397
:102D30008230910510F482E090E0E091CE02F091B3
:102D4000CF0220E030E0A0E0B0E0309739F14081E0
:102D5000518148175907B8F04817590771F4828113
:102D60009381109729F013969C938E9312972CC001
:102D70009093CF028093CE0227C02115310531F008
:102D80004217530718F0A901DB0101C0EF019A01B6
:102D9000BD01DF010280F381E02DD7CF2115310580
:102DA000F9F0281B390B2430310580F48A819B818E
:102DB0006115710521F0FB019383828304C0909318
:102DC000CF028093CE02FE01329644C0FE01E20F94
:102DD000F31F8193919322503109398328833AC09C
:102DE0002091CC023091CD02232B41F4209102019D
:102DF000309103013093CD022093CC022091000149
:102E0000309101012115310541F42DB73EB74091B4
:102E1000040150910501241B350BE091CC02F09187
:102E2000CD02E217F307A0F42E1B3F0B281739073A
:102E300078F0AC014E5F5F4F2417350748F04E0F16
:102E40005F1F5093CD024093CC028193919302C0B7
:102E5000E0E0F0E0CF01DF91CF910895CF93DF93D1
:102E6000009709F487C0FC01329713821282C09147
:102E7000CE02D091CF02209781F420813181280F9A
:102E8000391F8091CC029091CD028217930779F57A
:102E9000F093CD02E093CC026DC0DE0120E030E083
:102EA000AE17BF0750F412964D915C9113979D0198
:102EB0004115510509F1DA01F3CFB383A2834081B3
:102EC0005181840F951F8A179B0771F48D919C91F6
:102ED0001197840F951F02969183808312968D918E
:102EE0009C911397938382832115310529F4F093E4
:102EF000CF02E093CE023EC0D9011396FC93EE932D
:102F000012974D915D91A40FB51FEA17FB0779F455
:102F100080819181840F951F0296D90111969C930F
:102F20008E938281938113969C938E931297E0E007
:102F3000F0E08A819B81009719F0FE01EC01F9CF46
:102F4000CE01029628813981820F931F2091CC02F5
:102F50003091CD022817390769F4309729F410927F
:102F6000CF021092CE0202C013821282D093CD0201
:102F7000C093CC02DF91CF9108950C9496160C94D7
:102F800096160C942E170C942E17FC0181E090E0FD
:102F90002081222311F080E090E0089521E0FC01DF
:102FA00020830895089508951F93FC019927882789
:102FB000BC01E89411911032E9F3193010F01E3081
:102FC000C8F31B3251F01D3249F4689406C00E94C8
:102FD0008A19610F711D811D911D119110531A30B5
:102FE000B0F33EF490958095709561957F4F8F4F2B
:102FF0009F4F1F910895F8940C945A209111A3C7E4
:10300000803219F089508550D0F7089591110895B4
:1030100081548A5108F4805E855A0895911108956B
:1030200081568A5108F48052855808950F931F9352
:10303000CF93DF938C01FC0101900020E9F7CF01D1
:10304000801B910B0E949616EC01009719F0B801B5
:103050000E948318CE01DF91CF911F910F910895A7
:103060004CE651E00C942919FB01DC012150304061
:1030700030F001900D920416C9F7CD01089588270C
:1030800099270895FB01DC0102C001900D92415087
:103090005040D8F708956817790768F4FB01DC0100
:1030A000E40FF51FA40FB51F02C002900E9241500D
:1030B0005040D8F708950C944218DC0101C06D937C
:1030C00041505040E0F70895FB01DC010D900020D5
:1030D000E9F7119701900D920020E1F70895FC01A6
:1030E0008191861721F08823D9F799270895319780
:1030F000CF010895FB01DC018D9101908019011031
:10310000D9F3990B0895FB01DC0101900D92002089
:10311000E1F70895DC01FB014150504070F00D9043
:103120000020D1F7119704C001900D92002061F0AA
:1031300041505040C8F71C92BF0101900020E9F7B0
:10314000E61BF70BAE0FBF1F0894A80BB90BCD0100
:103150000895DC01FB014150504058F049F00190C6
:103160000D920020C1F7E61BF70B3197CF010895B0
:103170001C9201900020E9F7F6CFDC016C916154BC
:103180006A3108F060526F596D93C1F70895FB01E1
:10319000DC010D900020E9F711974150504028F0D4
:1031A000019000200D92C9F708951C920895FB012B
:1031B000DC014150504030F08D910190801919F49C
:1031C0000020B9F7881B990B0895FB01DC014150E1
:1031D000504048F001900D920020C9F701C01D92A7
:1031E00041505040E0F70895FC0181E090E00190EB
:1031F000061609F4CF010020D1F701970895DC01EC
:10320000FC01672F71917723E1F7329704C07C911D
:103210006D9370836291AE17BF07C8F30895FB01E9
:1032200051915523A9F0BF01DC014D914517411182
:10323000E1F759F4CD010190002049F04D9140157E
:103240004111C9F3FB014111EFCF81E090E00197FB
:103250000895FA01A191B081009719F41097E1F057
:10326000CD01DC01CD010D90002011F4C00113C08F
:10327000FB012191222319F02015D9F7F3CFFB018F
:103280002191201519F41E92119606C02223C1F730
:103290000D900020A1F7D001FA01A193B083089509
:1032A000DC016C9161566A3108F0605E6F5B6D9372
:1032B000C1F708954532510520F4423010F00C94C6
:1032C0006519FB011082CB010895BB274A3031F408
:1032D000992322F4BDE2909581959F4F0C94D819C3
:1032E0002532310520F4223010F00C947B19FA01BC
:1032F0001082CA010895BB272A3051F4992342F461
:10330000BDE290958095709561957F4F8F4F9F4F4F
:103310000C94AB19592F482F372F262F660F771F84
:10332000881F991F660F771F881F991F620F731FD1
:10333000841F951F660F771F881F991F08952532D8
:10334000310520F4223010F00C94AA19FA011082F1
:10335000CA010895BB27FA01A62F621771058105DE
:103360009105330B30FB66F0AA27660F771F881F85
:10337000991FAA1FA21710F0A21B63953850A9F736
:10338000A05DAA3308F0A95DA19336F7B111B193FE
:103390001082CA010C94FF184532510520F44230C6
:1033A00010F00C94D719FB011082CB010895BB27B4
:1033B000FB015527AA27880F991FAA1FA41710F0F1
:1033C000A41B83955051B9F7A05DAA3308F0A95DFD
:1033D000A193009779F7B111B1931192CB010C949D
:1033E000FF18CF93DF93EC012B8120FF33C026FF22
:1033F0000AC02F7B2B838E819F8101969F838E83B2
:103400008A8190E029C022FF0FC0E881F981808184
:10341000992787FD9095009719F420622B831AC095
:103420003196F983E8830EC0EA85FB85099597FFFD
:1034300009C02B81019611F480E101C080E2822B4A
:103440008B8308C02E813F812F5F3F4F3F832E83A8
:10345000992702C08FEF9FEFDF91CF910895CF930F
:10346000DF93CDB7DEB7AE01475F5F4F6F817885E1
:103470008D819E810E94A81DDF91CF9108950F93A9
:103480001F93CF93DF93182F092FEB018B8181FDC1
:1034900003C08FEF9FEF20C082FF10C04E815F817D
:1034A0002C813D81421753077CF4E881F9819F010B
:1034B0002F5F3F4F39832883108306C0E885F98545
:1034C000812F0995892B29F72E813F812F5F3F4F4F
:1034D0003F832E83812F902FDF91CF911F910F91EA
:1034E0000895EF92FF920F931F93CF93DF938B0179
:1034F000DB0113962C9121FF16C0EC01E12CF12C7D
:103500008991882371F0D8011896ED91FC91199753
:10351000B8010995892BA1F3EE24EA94FF24FA94CB
:10352000EFCFC70102C08FEF9FEFDF91CF911F91C7
:103530000F91FF90EF9008958F929F92AF92BF925C
:10354000CF92DF92EF92FF920F931F93CF93DF936F
:103550006B014A017901D90113962C9121FF1DC0FD
:10356000C0E0D0E0C815D905D9F08C015C01AC0CE5
:10357000BD1CC8010A151B0571F00F5F1F4FD70155
:103580001896ED91FC911997B701DC018C91099582
:10359000892B79F305C02196E5CF80E090E001C04A
:1035A000CE01DF91CF911F910F91FF90EF90DF90AF
:1035B000CF90BF90AF909F908F900895CF93DF935F
:1035C000CDB7DEB7FE01359661917191AF01809163
:1035D000D2029091D3020E94A81DDF91CF9108954D
:1035E0000F931F93CF93DF93E091D202F091D30218
:1035F000238121FF1BC0EC0100E010E08991609164
:10360000D2027091D302DB011896ED91FC911997CB
:10361000882331F00995892B89F30FEF1FEFEECF47
:103620008AE00995892B11F4C80102C08FEF9FEF42
:10363000DF91CF911F910F9108950F931F93CF9317
:10364000DF93CDB7DEB72E970FB6F894DEBF0FBE6F
:10365000CDBF0D891E898F89988D26E02C831A8312
:10366000098397FF02C080E090E801979E838D83D5
:10367000AE01455E5F4F698D7A8DCE0101960E9445
:10368000A81D4D815E8157FD0AC02F8138854217E4
:1036900053070CF49A01F801E20FF31F10822E96E3
:1036A0000FB6F894DEBF0FBECDBFDF91CF911F9153
:1036B0000F9108950F931F93CF93DF93CDB7DEB78C
:1036C0002E970FB6F894DEBF0FBECDBF0D891E89B1
:1036D00086E08C831A8309838FEF9FE79E838D8317
:1036E000AE01475E5F4F6F89788DCE0101960E94D3
:1036F000A81DEF81F885E00FF11F10822E960FB6FE
:10370000F894DEBF0FBECDBFDF91CF911F910F9117
:1037100008955058BB27AA270ED075C166D130F046
:103720006BD120F031F49F3F11F41EF45BC10EF415
:10373000E095E7FB51C1E92F77D180F3BA17620713
:1037400073078407950718F071F49EF58FC10EF486
:10375000E0950B2EBA2FA02D0B01B90190010C01A1
:10376000CA01A0011124FF27591B99F0593F50F4B9
:10377000503E68F11A16F040A22F232F342F442711
:10378000585FF3CF469537952795A795F040539509
:10379000C9F77EF41F16BA0B620B730B840BBAF0D9
:1037A0009150A1F0FF0FBB1F661F771F881FC2F744
:1037B0000EC0BA0F621F731F841F48F48795779558
:1037C0006795B795F7959E3F08F0B3CF9395880F0F
:1037D00008F09927EE0F979587950895D9D008F4AA
:1037E00081E008950CD00FC107D140F0FED030F039
:1037F00021F45F3F19F0F0C0511139C1F3C014D169
:1038000098F39923C9F35523B1F3951B550BBB27A7
:10381000AA2762177307840738F09F5F5F4F220F54
:10382000331F441FAA1FA9F333D00E2E3AF0E0E84D
:1038300030D091505040E695001CCAF729D0FE2F99
:1038400027D0660F771F881FBB1F2617370748072B
:10385000AB07B0E809F0BB0B802DBF01FF279358E1
:103860005F4F2AF09E3F510568F0B6C000C15F3F30
:10387000ECF3983EDCF3869577956795B795F795C9
:103880009F5FC9F7880F911D9695879597F90895C1
:10389000E1E0660F771F881FBB1F6217730784075D
:1038A000BA0720F0621B730B840BBA0BEE1F88F76C
:1038B000E095089504D06894B111D9C00895BCD0A2
:1038C00088F09F5790F0B92F9927B751A0F0D1F009
:1038D000660F771F881F991F1AF0BA95C9F712C093
:1038E000B13081F0C3D0B1E00895C0C0672F782F08
:1038F0008827B85F39F0B93FCCF3869577956795FF
:10390000B395D9F73EF490958095709561957F4F6A
:103910008F4F9F4F0895E89409C097FB3EF4909510
:103920008095709561957F4F8F4F9F4F9923A9F098
:10393000F92F96E9BB279395F69587957795679527
:10394000B795F111F8CFFAF4BB0F11F460FF1BC06B
:103950006F5F7F4F8F4F9F4F16C0882311F096E9FE
:1039600011C0772321F09EE8872F762F05C06623AC
:1039700071F096E8862F70E060E02AF09A95660F65
:10398000771F881FDAF7880F9695879597F908951E
:10399000990F0008550FAA0BE0E8FEEF1616170660
:1039A000E807F907C0F012161306E407F50798F0C8
:1039B000621B730B840B950B39F40A2661F0232BE1
:1039C000242B252B21F408950A2609F4A140A6955D
:1039D0008FEF811D811D089597F99F6780E870E042
:1039E00060E008959FEF80EC089500240A94161675
:1039F000170618060906089500240A9412161306DD
:103A0000140605060895092E0394000C11F488236A
:103A100052F0BB0F40F4BF2B11F460FF04C06F5F86
:103A20007F4F8F4F9F4F089557FD9058440F551F5C
:103A300059F05F3F71F04795880F97FB991F61F030
:103A40009F3F79F087950895121613061406551FA7
:103A5000F2CF4695F1DF08C0161617061806991F13
:103A6000F1CF86957105610508940895E894BB2708
:103A700066277727CB0197F908958ADF08F48FEF3F
:103A800008950BD0C0CFB1DF28F0B6DF18F0952332
:103A900009F0A2CFA7CF1124EACFC6DFA0F3959FEC
:103AA000D1F3950F50E0551F629FF001729FBB2725
:103AB000F00DB11D639FAA27F00DB11DAA1F649FD1
:103AC0006627B00DA11D661F829F2227B00DA11D84
:103AD000621F739FB00DA11D621F839FA00D611D0A
:103AE000221F749F3327A00D611D231F849F600D2B
:103AF000211D822F762F6A2F11249F5750408AF064
:103B0000E1F088234AF0EE0FFF1FBB1F661F771FEF
:103B1000881F91505040A9F79E3F510570F05CCF2F
:103B2000A6CF5F3FECF3983EDCF3869577956795DB
:103B3000B795F795E7959F5FC1F7FE2B880F911D0D
:103B40009695879597F9089523DF880B990B08952B
:103B50002F923F924F925F926F927F928F929F929D
:103B6000AF92BF92CF92DF92EF92FF920F931F938B
:103B7000CF93DF93CDB7DEB72C970FB6F894DEBFA7
:103B80000FBECDBF7C016B018A01FC01178216823A
:103B9000838181FFBDC1CE0101964C01F701938164
:103BA000F60193FD859193FF81916F01882309F4BC
:103BB000ABC1853239F493FD859193FF81916F01FB
:103BC000853229F4B70190E00E943F1AE7CF512CCB
:103BD000312C20E02032A0F48B3269F030F48032B6
:103BE00059F0833269F420612CC08D3239F0803372
:103BF00039F4216026C02260246023C0286021C0DF
:103C000027FD27C030ED380F3A3078F426FF06C084
:103C1000FAE05F9E300D1124532E13C08AE0389EC7
:103C2000300D1124332E20620CC08E3221F426FD7B
:103C30006BC1206406C08C3611F4206802C088363F
:103C400041F4F60193FD859193FF81916F018111FC
:103C5000C1CF982F9F7D9554933028F40C5F1F4F50
:103C6000FFE3F9830DC0833631F0833771F083357C
:103C700009F05BC022C0F801808189830E5F1F4F6D
:103C800044244394512C540115C03801F2E06F0EC6
:103C9000711CF801A080B18026FF03C0652D70E083
:103CA00002C06FEF7FEFC5012C870E94B11F2C016E
:103CB00083012C852F77222E17C03801F2E06F0E7A
:103CC000711CF801A080B18026FF03C0652D70E053
:103CD00002C06FEF7FEFC5012C870E94A61F2C0149
:103CE0002C852068222E830123FC1BC0832D90E0AD
:103CF00048165906B0F4B70180E290E00E943F1ADE
:103D00003A94F4CFF50127FC859127FE81915F015C
:103D1000B70190E00E943F1A31103A94F1E04F1A37
:103D200051084114510471F7E5C0843611F0893609
:103D300039F5F80127FF07C0608171818281938185
:103D40000C5F1F4F08C060817181882777FD8095C7
:103D5000982F0E5F1F4F2F76B22E97FF09C09095B8
:103D60008095709561957F4F8F4F9F4F2068B22E41
:103D70002AE030E0A4010E94BC1FA82EA81844C06D
:103D8000853729F42F7EB22E2AE030E025C0F22FAD
:103D9000F97FBF2E8F36C1F018F4883579F0B4C0A2
:103DA000803719F0883721F0AFC02F2F2061B22E55
:103DB000B4FE0DC08B2D8460B82E09C024FF0AC04C
:103DC0009F2F9660B92E06C028E030E005C020E1A4
:103DD00030E002C020E132E0F801B7FE07C06081A8
:103DE0007181828193810C5F1F4F06C06081718158
:103DF00080E090E00E5F1F4FA4010E94BC1FA82E20
:103E0000A818FB2DFF77BF2EB6FE0BC02B2D2E7FE3
:103E1000A51450F4B4FE0AC0B2FC08C02B2D2E7EAF
:103E200005C07A2C2B2D03C07A2C01C0752C24FFE1
:103E30000DC0FE01EA0DF11D8081803311F4297E51
:103E400009C022FF06C07394739404C0822F867841
:103E500009F0739423FD13C020FF06C05A2C73147D
:103E600018F4530C5718732C731468F4B70180E2DC
:103E700090E02C870E943F1A73942C85F5CF731421
:103E800010F4371801C0312C24FF12C0B70180E3B1
:103E900090E02C870E943F1A2C8522FF17C021FF3B
:103EA00003C088E590E002C088E790E0B7010CC04D
:103EB000822F867859F021FD02C080E201C08BE29A
:103EC00027FD8DE2B70190E00E943F1AA51438F457
:103ED000B70180E390E00E943F1A5A94F7CFAA946A
:103EE000F401EA0DF11D8081B70190E00E943F1AB4
:103EF000A110F5CF332009F451CEB70180E290E054
:103F00000E943F1A3A94F6CFF7018681978102C04A
:103F10008FEF9FEF2C960FB6F894DEBF0FBECDBF8C
:103F2000DF91CF911F910F91FF90EF90DF90CF9095
:103F3000BF90AF909F908F907F906F905F904F90C9
:103F40003F902F900895992788270895FC010590A8
:103F5000615070400110D8F7809590958E0F9F1F8B
:103F60000895FC016150704001900110D8F78095D0
:103F700090958E0F9F1F0895FA01AA27283051F1BE
:103F8000203181F1E8946F936E7F6E5F7F4F8F4F8A
:103F90009F4FAF4FB1E03ED0B4E03CD0670F781FE9
:103FA000891F9A1FA11D680F791F8A1F911DA11DCE
:103FB0006A0F711D811D911DA11D20D009F4689407
:103FC0003F912AE0269F11243019305D3193DEF6AF
:103FD000CF010895462F4770405D4193B3E00FD065
:103FE000C9F7F6CF462F4F70405D4A3318F0495D50
:103FF00031FD4052419302D0A9F7EACFB4E0A69533
:104000009795879577956795BA95C9F70097610554
:10401000710508959B01AC010A2E069457954795AA
:1040200037952795BA95C9F7620F731F841F951F9F
:10403000A01D0895A1E21A2EAA1BBB1BFD010DC0F5
:10404000AA1FBB1FEE1FFF1FA217B307E407F50748
:1040500020F0A21BB30BE40BF50B661F771F881F24
:10406000991F1A9469F760957095809590959B01BA
:10407000AC01BD01CF0108950E944B20A59F900D7A
:10408000B49F900DA49F800D911D11240895079059
:10409000F691E02D0994A29FB001B39FC001A39FA8
:1040A000700D811D1124911DB29F700D811D112471
:0840B000911D0895F894FFCF63
:1040B8000000D60280003132333435363738393093
:1040C800004142434445464748494A0061626364A7
:1040D80065666768696C0031323300546573742112
:1040E80000747374006E616E00696E66006F7666A8
:1040F800002E0000000000D317DB0B00000000D3E7
:1041080017DB0BD317D317D317D317000000002AD8
:0C41180012DB0BD611FF11E6111F120084
:00000001FF
