:100000000C9447000C9476000C9476000C947600C7
:100010000C9476000C9476000C9476000C94760088
:100020000C9476000C9476000C9476000C94760078
:100030000C9476000C9476000C9476000C94760068
:100040000C9449030C9476000C945C120C94E61208
:100050000C9476000C9476000C9476000C94760048
:100060000C9476000C9476000C9476000C94760038
:100070000C9476000C9476000C9497120C94201338
:100080000C9476000C9476000C94760001151124E3
:100090001FBECFEFD0E1DEBFCDBF13E0A0E0B1E0E7
:1000A000EAE1F7E300E00BBF02C007900D92A23631
:1000B000B107D9F724E0A2E6B3E001C01D92A43C49
:1000C000B207E1F710E0CEE8D0E000E006C02297EA
:1000D0000109FE010BBF0E94781BCC38D10780E0DC
:1000E0000807A9F70E94BD110C94EF170C940000AB
:1000F00063EE71E08CE693E00E94B20C82B390E470
:10010000892782BB08956EEF71E08CE693E00E9430
:10011000B20C82B3805882BB089566E172E08CE62F
:1001200093E00E94B20C88B3805888BB0895CF93A7
:10013000DF93CDB7DEB727970FB6F894DEBF0FBEBB
:10014000CDBFBF9A8F9A8E9A40E855E260E070E08A
:100150008CE693E00E94A31340E051EE60E070E073
:100160008EE893E00E94A31360E372E08CE693E0D4
:100170000E94B20C64E670E080E090E00E94C3034D
:1001800044E650E060E070E08EE893E00E948D0F5E
:1001900060E572E08EE893E00E94B20C6EE873E0D6
:1001A000CE0101960E947B11BE016F5F7F4F8CE6EE
:1001B00093E00E94A00CCE0101960E94260463E504
:1001C00072E08EE893E00E94B20C6EE873E0CE011C
:1001D00001960E947B11BE016F5F7F4F8CE693E01A
:1001E0000E94A00CCE0101960E9426046FE572E0E9
:1001F0008EE893E00E94670C6AE672E08EE893E076
:100200000E94670C62E772E08EE893E00E94B20CF5
:100210006EE873E0CE0101960E947B11BE016F5F14
:100220007F4F8CE693E00E94A00CCE0101960E94C5
:10023000260465E872E08EE893E00E94B20C6EE856
:1002400073E0CE0101960E947B11BE016F5F7F4F6C
:100250008CE693E00E94A00CCE0101960E94260439
:1002600061E972E08EE893E00E94B20C6EE873E000
:10027000CE0101960E947B11BE016F5F7F4F8CE61D
:1002800093E00E94A00CCE0101960E9426042796BE
:100290000FB6F894DEBF0FBECDBFDF91CF910895AA
:1002A00068EE73E080E090E00E94C303F9CFCF9244
:1002B000DF92EF92FF921F93CF93DF93EB01142F06
:1002C000BC018EE893E00E94670C0E9493036B01CF
:1002D0007C01CE01AA2797FDA095BA2FC80ED91E82
:1002E000EA1EFB1E0E9493036C157D058E059F057B
:1002F00090F48EE893E00E94CA11892B99F38EE85E
:1003000093E00E94F3111123A1F3682F8CE693E090
:100310000E94690CEECFDF91CF911F91FF90EF907B
:10032000DF90CF9008950F931F93CF93DF93CDB7B6
:10033000DEB72E970FB6F894DEBF0FBECDBF8C018F
:1003400063EE72E0CE0108960E94940463EA72E0C4
:10035000CE0108960E94CC04B801CE0108960E94F6
:1003600064066AE273E0CE0108960E941406E0E09B
:10037000F1E0DF010D900020E9F7BD016150710946
:1003800060507140CE0108960E94960661EE72E0C0
:10039000CE0108960E94140641E068EE73E088855D
:1003A00099850E94570141E068EE73E080E091E09A
:1003B0000E9457016FEA72E0CE0108960E94CC04B9
:1003C000B801CE0108960E94640661EE72E0CE018B
:1003D00008960E94140641E068EE73E088859985CE
:1003E0000E9457016EE873E0CE0101960E947B11D6
:1003F000BE016F5F7F4F8CE693E00E94A00CCE01A0
:1004000001960E942604CE0108960E9426042E968C
:100410000FB6F894DEBF0FBECDBFDF91CF911F9115
:100420000F9108950F931F93CF93DF93CDB7DEB74E
:1004300027970FB6F894DEBF0FBECDBF8C016CEBD3
:1004400072E08CE693E00E94B20C6EE873E0CE019D
:1004500001960E947B11CE0101960E942604C801DC
:100460000E94930167EC72E08CE693E00E94B20C6C
:1004700027960FB6F894DEBF0FBECDBFDF91CF91A8
:100480001F910F9108950F931F93CF93DF93CDB7D3
:10049000DEB727970FB6F894DEBF0FBECDBF8C0135
:1004A00063ED72E08CE693E00E94B20C6FED72E0B7
:1004B0008EE893E00E941B1064EE72E08EE893E0F9
:1004C0000E941B102FEF30E0AE014F5F5F4F6AE0DC
:1004D0008EE893E00E9446116BEE72E08CE693E0AA
:1004E0000E94670CBE016F5F7F4F8CE693E00E9415
:1004F000B20C6AE070E080E090E00E94C303898162
:10050000823719F40E94830004C0873611F40E94D8
:100510008D00C8010E94930127960FB6F894DEBFA4
:100520000FBECDBFDF91CF911F910F910895EF9234
:10053000FF920F931F93CF93DF93CDB7DEB72A9728
:100540000FB6F894DEBF0FBECDBF8C017B0165E016
:1005500073E08CE693E00E94B20CF801DE01119684
:100560008D01CD01801B910B21912A30D1F4F8012E
:10057000E80FF91F10826DE173E0C8010E94301886
:10058000892BA9F4C7012A960FB6F894DEBF0FBED7
:10059000CDBFDF91CF911F910F91FF90EF900C9401
:1005A0001202203221F32D3011F32D93DACF61E2C4
:1005B00073E0C8010E943018892B79F4C7012A968C
:1005C0000FB6F894DEBF0FBECDBFDF91CF911F9164
:1005D0000F91FF90EF900C9443022A960FB6F89477
:1005E000DEBF0FBECDBFDF91CF911F910F91FF9066
:1005F000EF9008950F931F93CF93DF93CDB7DEB79E
:10060000CF5FD1090FB6F894DEBF0FBECDBF8EE825
:1006100093E00E94CA11892B51F166E273E08EE8E3
:1006200093E00E941B10882311F16AE070E080E0E3
:1006300090E00E94C3038EE893E00E94F3118C01C6
:100640006CE273E08EE893E00E941B102FEF30E025
:10065000AE014F5F5F4F6AE08EE893E00E94461163
:10066000B80160537109CE0101960E94970261E0C2
:1006700070E080E090E00E94C303C150DF4F0FB6EE
:10068000F894DEBF0FBECDBFDF91CF911F910F91C8
:1006900008951F920F920FB60F9211242F933F933C
:1006A0008F939F93AF93BF93809163039091640363
:1006B000A0916503B09166033091620323E0230F9C
:1006C0002D3720F40196A11DB11D05C026E8230F8A
:1006D0000296A11DB11D2093620380936303909342
:1006E0006403A0936503B0936603809167039091C0
:1006F0006803A0916903B0916A030196A11DB11D21
:100700008093670390936803A0936903B0936A038F
:10071000BF91AF919F918F913F912F910F900FBEFD
:100720000F901F9018952FB7F89460916303709104
:10073000640380916503909166032FBF08953FB7CE
:10074000F8948091670390916803A0916903B09138
:100750006A0322B706B600FE05C02F3F19F00196C6
:10076000A11DB11D3FBF6627782F892F9A2F620FD9
:10077000711D811D911D42E0660F771F881F991F13
:100780004A95D1F70895CF92DF92EF92FF92CF93DF
:10079000DF936B017C010E949F03EB01C114D10424
:1007A000E104F10479F00E949F036C1B7D0B683E0D
:1007B0007340A0F381E0C81AD108E108F108C851DC
:1007C000DC4FECCFDF91CF91FF90EF90DF90CF9097
:1007D00008950197009739F0880F991F880F991F86
:1007E00002970197F1F70895789483B7846083BFE7
:1007F00087B7816087BF1EBC8EB582608EBD8EB507
:1008000081608EBD8FB581608FBD85B5846085BDEB
:1008100085B5806485BDEAE8F0E0808182608083F0
:10082000808181608083EBE8F0E08081816080835B
:10083000329A319A309A379A1AB808950C948218DD
:100840000C9498180C94F4180C94C718FC0180812F
:1008500091810C942217CF93DF93EC0188819981C9
:10086000009711F00E942217198218821D821C82A3
:100870001B821A82DF91CF9108950F931F93CF931C
:10088000DF93EC018B016F5F7F4F888199810E941C
:10089000A115009731F0998388831B830A8381E037
:1008A00001C080E0DF91CF911F910F910895CF9308
:1008B000DF93EC0188819981892B29F08A819B81C2
:1008C0008617970760F4CE010E943D04882341F00B
:1008D0008C819D81892B19F4E881F981108281E056
:1008E000DF91CF910895EF92FF920F931F93CF93D3
:1008F000DF93EC017B018A01BA010E945704811148
:1009000004C0CE010E942B0407C01D830C83B701D5
:10091000888199810E943918CE01DF91CF911F9172
:100920000F91FF90EF900895FC01118210821382C5
:1009300012821582148216826115710559F0FB012D
:1009400001900020E9F7AF0141505109461B570BB8
:100950000C9473040895CF93DF93EC01FB01861789
:10096000970761F0608171816115710529F04481FB
:1009700055810E94730402C00E942B04CE01DF91B6
:10098000CF910895FC011182108213821282158288
:10099000148216820C94AB04CF93DF93EC016115A3
:1009A000710561F0FB0101900020E9F7AF014150B2
:1009B0005109461B570B0E94730402C00E942B046E
:1009C000CE01DF91CF910895CF93DF9300D0CDB7C3
:1009D000DEB7FC011182108213821282158214820A
:1009E000168269831A82BE016F5F7F4F0E94CC041A
:1009F0000F900F90DF91CF9108950F931F93CF9396
:100A0000DF93CDB7DEB729970FB6F894DEBF0FBEE0
:100A1000CDBF8C01862FF8011182108213821282C1
:100A200015821482168250E0BE016F5F7F4F90E006
:100A30000E94F418BE016F5F7F4FC8010E94CC0472
:100A400029960FB6F894DEBF0FBECDBFDF91CF91D0
:100A50001F910F9108950F931F93CF93DF93CDB7FD
:100A6000DEB762970FB6F894DEBF0FBECDBF8C0124
:100A7000CB01F80111821082138212821582148236
:100A8000168250E0BE016F5F7F4F0E948218BE0148
:100A90006F5F7F4FC8010E94CC0462960FB6F89436
:100AA000DEBF0FBECDBFDF91CF911F910F91089593
:100AB0000F931F93CF93DF93CDB7DEB761970FB638
:100AC000F894DEBF0FBECDBF8C01CB01F8011182BF
:100AD00010821382128215821482168250E0BE01A7
:100AE0006F5F7F4F0E94F418BE016F5F7F4FC80198
:100AF0000E94CC0461960FB6F894DEBF0FBECDBF46
:100B0000DF91CF911F910F9108950F931F93CF9372
:100B1000DF93CDB7DEB7A2970FB6F894DEBF0FBE56
:100B2000CDBF8C01CB01BA01F80111821082138272
:100B3000128215821482168230E0AE014F5F5F4F41
:100B40000E949818BE016F5F7F4FC8010E94CC04BD
:100B5000A2960FB6F894DEBF0FBECDBFDF91CF9146
:100B60001F910F9108950F931F93CF93DF93CDB7EC
:100B7000DEB7A1970FB6F894DEBF0FBECDBF8C01D4
:100B8000CB01BA01F8011182108213821282158200
:100B90001482168230E0AE014F5F5F4F0E94C7188B
:100BA000BE016F5F7F4FC8010E94CC04A1960FB6B3
:100BB000F894DEBF0FBECDBFDF91CF911F910F9193
:100BC0000895EF92FF920F931F93CF93DF93EC0161
:100BD0007B010C811D816115710511F480E016C047
:100BE0004115510591F0040F151FB8010E945704DB
:100BF0008823A1F3288139818C819D81B701820FDF
:100C0000931F0E9439181D830C8381E0DF91CF91DF
:100C10001F910F91FF90EF900895FB014481558142
:100C2000608171810C94E1056115710559F0FB013A
:100C300001900020E9F7AF0141505109461B570BC5
:100C40000C94E10580E00895CF93DF9300D0CDB7F9
:100C5000DEB769831A8241E050E0BE016F5F7F4FCB
:100C60000E94E1050F900F90DF91CF910895EF92D0
:100C7000FF920F931F93CF93DF9300D000D0CDB797
:100C8000DEB77C01862F4AE050E08E010F5F1F4FD8
:100C9000B80190E00E948218F80101900020E9F765
:100CA000AF0141505109401B510BB801C7010E94CF
:100CB000E1050F900F900F900F90DF91CF911F9152
:100CC0000F91FF90EF900895EF92FF920F931F9373
:100CD000CF93DF93CDB7DEB727970FB6F894DEBF7B
:100CE0000FBECDBF7C01CB014AE050E08E010F5F0B
:100CF0001F4FB8010E948218F80101900020E9F707
:100D0000AF0141505109401B510BB801C7010E946E
:100D1000E10527960FB6F894DEBF0FBECDBFDF9179
:100D2000CF911F910F91FF90EF900895EF92FF9256
:100D30000F931F93CF93DF9300D000D000D0CDB797
:100D4000DEB77C01CB014AE050E08E010F5F1F4F00
:100D5000B8010E94F418F80101900020E9F7AF01F2
:100D600041505109401B510BB801C7010E94E105D8
:100D700026960FB6F894DEBF0FBECDBFDF91CF91A0
:100D80001F910F91FF90EF900895EF92FF920F93B4
:100D90001F93CF93DF93CDB7DEB72C970FB6F894A0
:100DA000DEBF0FBECDBF7C01CB01BA012AE030E02F
:100DB0008E010F5F1F4FA8010E949818F801019043
:100DC0000020E9F7AF0141505109401B510BB80118
:100DD000C7010E94E1052C960FB6F894DEBF0FBE46
:100DE000CDBFDF91CF911F910F91FF90EF900895AC
:100DF000EF92FF920F931F93CF93DF93CDB7DEB7A0
:100E00002B970FB6F894DEBF0FBECDBF7C01CB0190
:100E1000BA012AE030E08E010F5F1F4FA8010E9447
:100E2000C718F80101900020E9F7AF0141505109BE
:100E3000401B510BB801C7010E94E1052B960FB66C
:100E4000F894DEBF0FBECDBFDF91CF911F910F9100
:100E5000FF90EF900895CF93DF93EC01FB01448165
:100E60005581608171810E94E105811103C0CE012D
:100E70000E942B04CE01DF91CF910895CF93DF9391
:100E8000EC016115710569F0FB0101900020E9F7A3
:100E9000AF0141505109461B570B0E94E1058111DA
:100EA00003C0CE010E942B04CE01DF91CF910895A3
:100EB000CF93DF93EC010E942406811103C0CE0181
:100EC0000E942B04CE01DF91CF910895CF93DF9341
:100ED000EC010E943706811103C0CE010E942B0451
:100EE000CE01DF91CF910895CF93DF93EC010E9463
:100EF0006406811103C0CE010E942B04CE01DF9154
:100F0000CF910895CF93DF93EC010E949606811153
:100F100003C0CE010E942B04CE01DF91CF91089532
:100F2000CF93DF93EC010E94C506811103C0CE016F
:100F30000E942B04CE01DF91CF910895CF93DF93D0
:100F4000EC010E94F806811103C0CE010E942B041F
:100F5000CE01DF91CF910895CF93DF93DC01ED9126
:100F6000FC91EB01A881B981309711F01097C9F479
:100F7000109759F0EB012C813D81232B31F08C919E
:100F800090E091958195910914C0309781F0DC0132
:100F900014968D919C911597892B49F0808190E052
:100FA00008C0BD01CF01DF91CF910C94301880E0D3
:100FB00090E0DF91CF910895FC0144815581FB01C0
:100FC000248135814217530741F40E94AC0721E088
:100FD000892B09F020E0822F089580E00895FC011C
:100FE00024813581232B31F421E061157105A1F0B5
:100FF000FB0108C0FC01808191816115710531F40C
:1010000021E0FC018081882339F005C00E9430185E
:1010100021E0892B09F020E0822F08950E94AC077F
:10102000892F881F8827881F08950E94AC0721E018
:10103000181619060CF020E0822F08950E94AC07C4
:1010400021E0181619060CF420E0822F08950E9462
:10105000AC07892F8095881F8827881F0895EF92F5
:10106000FF920F931F93CF93DF938617970731F16A
:10107000FC0124813581FB0144815581241735070A
:10108000F9F4232BD9F0FC0100811181FB01C0810F
:10109000D181F80181918F01882381F0992787FD03
:1010A00090950E94FA177C018991992787FD909568
:1010B0000E94FA17E816F90661F302C081E001C048
:1010C00080E0DF91CF911F910F91FF90EF900895F5
:1010D000FA01DB0114964D915C911597DC01149691
:1010E0002D913C911597241B350B2E173F0788F047
:1010F0008D919C91009769F0DB016D917C91611558
:10110000710539F08E0F9F1F0E94401821E0892B36
:1011100009F020E0822F0895FC0144815581FB01F4
:10112000248135814217530720F040E050E00C94B1
:10113000680880E00895FC0184819581DB011496A4
:101140004D915C9115978417950798F02081318116
:101150002115310571F06D917C916115710549F092
:10116000841B950B820F931F0E94301821E0892B5E
:1011700009F020E0822F0895DC0114962D913C9116
:1011800015976217730728F4ED91FC91E60FF71F8E
:1011900040830895FC01848195816817790720F4C4
:1011A00080819181009729F410926B038BE693E084
:1011B0000895860F971F0895FC01248135816217D9
:1011C000730748F480819181009729F0FC01E60FB4
:1011D000F71F8081089580E008950C94DC080F9338
:1011E0001F93CF93DF93EB0141155105E9F0209751
:1011F000D9F0FC016481758126173707A0F4621BC2
:10120000730B8A01015011096017710708F48B01F3
:10121000FC0160817181620F731FA801CE010E94E1
:101220004E18C00FD11F1882DF91CF911F910F91DF
:101230000895CF93DF93FC01848195814817590766
:1012400078F4C081D181772767FD7095CE01840F36
:10125000951F0E942518009719F08C1B9D0B02C04A
:101260008FEF9FEFDF91CF91089540E050E00C9415
:101270001909CF93DF93FC018481958148175907A1
:1012800078F4C081D181FB0160817181CE01840F2E
:10129000951F0E946818009719F08C1B9D0B02C0C7
:1012A0008FEF9FEFDF91CF91089540E050E00C94D5
:1012B0003909DF92EF92FF920F931F93CF93DF9341
:1012C000EC018C819D814817590718F08FEF9FEF33
:1012D0001BC08A010F5F1F4FE881F981E00FF11FEA
:1012E000D0801082E880F980772767FD7095C7016C
:1012F0000E945D18F701E00FF11FD082009731F3D3
:1013000028813981821B930BDF91CF911F910F911F
:10131000FF90EF90DF900895FC014481558141508A
:1013200051090C945909AF92BF92CF92DF92EF927C
:10133000FF920F931F93CF93DF937B01EA01FB0191
:10134000448155814115510569F1FC0124813581A4
:101350002115310539F12417350720F1C217D307BC
:1013600010F0E9012197FC0100811181C801AA2434
:10137000AA94BB24BA946801CC0EDD1EC816D90607
:10138000A0F0F701608171810E946818009769F0F0
:101390009C01201B310BC217D30708F4950101965D
:1013A0005901ECCF8FEF9FEF01C0C501DF91CF91C5
:1013B0001F910F91FF90EF90DF90CF90BF90AF9073
:1013C0000895FC0144815581FB0124813581421B34
:1013D000530B0C949309BF92CF92DF92EF92FF923E
:1013E0000F931F93CF93DF936C017B01EA01890177
:1013F0002417350720F48D2FE901042F182F63EEF1
:1014000072E0C6010E949404D70114968D919C91BC
:1014100015978C179D07C8F08017910708F48C0169
:10142000D701ED91FC911197E00FF11FB080108270
:101430006D917C916C0F7D1FC6010E94CC04D70179
:10144000ED91FC91E00FF11FB082C601DF91CF91C9
:101450001F910F91FF90EF90DF90CF90BF90089574
:10146000CF93DF93EC01FB01248135810E94EB09CE
:10147000CE01DF91CF910895DC01ED91FC91309781
:1014800029F40895861301C040833196808181112B
:10149000F9CF08952F923F924F925F926F927F9271
:1014A0008F929F92AF92BF92CF92DF92EF92FF9274
:1014B0000F931F93CF93DF93EC015B017A014C8074
:1014C0005D804114510409F4C5C0FB01648075803E
:1014D0006114710409F4BEC0FA01C480D580C61835
:1014E000D70808811981C114D104C1F4F5016081C4
:1014F0007181C8010E946818EC01009709F4AAC024
:10150000F7016081718144815581CE010E940A18E2
:10151000F701048115810C0F1D1FE8CFD7FC05C012
:10152000FB0120803180420143C04801F501608108
:101530007181C8010E9468182C01009719F13201CD
:10154000601A710AA301B801C4010E940A18680C4C
:10155000791CF7016081718144815581C3010E942A
:101560000A18F70184809580860C971CF501048188
:101570001581040D151D8C819D818C0D9D1D9D83F4
:101580008C83D4CFB801C401DF91CF911F910F910B
:10159000FF90EF90DF90CF90BF90AF909F908F9093
:1015A0007F906F905F904F903F902F900C943918E0
:1015B000B101C8010E946818009731F08C01060D36
:1015C000171D8C0C9D1CF4CF8414950409F442C0A3
:1015D0008A819B818815990530F4B401CE010E945F
:1015E0003D048823B9F14C815D814150510957FD7B
:1015F00031C0B501CE010E9493098C0197FD2AC02C
:1016000088819981F50124813581200F311F820F56
:10161000931F4C815D81421B530BBC018C0D9D1DA2
:101620000E9413188C819D818C0D9D1D9D838C8340
:10163000E881F981E80FF91F108288819981F7010B
:101640006081718144815581800F911F0E940A1829
:10165000A801CBCFDF91CF911F910F91FF90EF9019
:10166000DF90CF90BF90AF909F908F907F906F90C2
:101670005F904F903F902F900895CF93DF93FC01A0
:10168000C081D181209751F08881882339F0992732
:1016900087FD90950E94FA178993F6CFDF91CF913D
:1016A0000895CF93DF93FC01C081D181209751F041
:1016B0008881882339F0992787FD90950E94021828
:1016C0008993F6CFDF91CF910895AF92BF92CF92D9
:1016D000DF92EF92FF920F931F93CF93DF937C01E2
:1016E000DC01CD90DC901197C114D10409F441C004
:1016F0001496CD91DC9115972097D9F1560185016B
:10170000BFEFAB1ABB0AF8018081992787FD90953E
:101710000E94F217892B99F72197CC0DDD1D888146
:10172000992787FD90950E94F217892B91F4AE01BD
:101730004F5F5F4F401B510BD70115965C934E9343
:101740001497C016D10650F4B801C6010E940A18B9
:1017500005C0C017D10758F32197E1CFD701ED910C
:10176000FC91119714968D919C911597E80FF91F94
:101770001082DF91CF911F910F91FF90EF90DF903A
:10178000CF90BF90AF900895FC0180819181009728
:1017900011F00C94C81760E070E0CB010895CF926F
:1017A000DF92EF92FF920F931F93CF93DF936C0121
:1017B0007A01EB01E60EF71E00E010E0CE15DF0522
:1017C00061F06991D601ED91FC910190F081E02DDD
:1017D000C6010995080F191FF1CFC801DF91CF91FC
:1017E0001F910F91FF90EF90DF90CF9008956115BA
:1017F000710581F0DB010D900020E9F7AD0141504A
:101800005109461B570BDC01ED91FC910280F381DD
:10181000E02D099480E090E00895EF92FF920F93FD
:101820001F93CF93DF938C01FB01C0E0D0E0649164
:101830007F018FEFE81AF80A662361F0D801ED9175
:10184000FC910190F081E02DC8010995C80FD91FC6
:10185000F701EDCFCE01DF91CF911F910F91FF9056
:10186000EF900895AF92BF92CF92DF92EF92FF92E6
:101870000F931F93CF93DF937C016B01C0E0D0E007
:1018800000E010E0D60114968D919C911597C81731
:10189000D90788F4D701ED91FC91A080B180BE01F9
:1018A000C6010E94DC08682FC701F5010995080FE1
:1018B000191F2196E7CFC801DF91CF911F910F919A
:1018C000FF90EF90DF90CF90BF90AF9008950C9471
:1018D000F70BDC01ED91FC910190F081E02D099472
:1018E000DB01ED91FC9111970190F081E02DBC019D
:1018F000CD0109940F931F93CF93DF93EC016DE01B
:101900000E94690C8C016AE0CE010E94690C800F74
:10191000911FDF91CF911F910F9108950F931F9306
:10192000CF93DF93EC010E940D0C8C01CE010E943D
:101930007A0C800F911FDF91CF911F910F91089525
:101940000F931F93CF93DF93EC010E94320C8C0115
:10195000CE010E947A0C800F911FDF91CF911F91D1
:101960000F9108950F931F93CF93DF93EC010E9483
:10197000F70B8C01CE010E947A0C800F911FDF9132
:10198000CF911F910F9108950F931F93CF93DF93E2
:10199000EC010E94690C8C01CE010E947A0C800F30
:1019A000911FDF91CF911F910F9108950F931F9376
:1019B000CF93DF93EC010E94700C8C01CE010E944A
:1019C0007A0C800F911FDF91CF911F910F91089595
:1019D0008F929F92AF92BF92CF92DF92EF92FF923F
:1019E0000F931F93CF93DF93CDB7DEB7A1970FB6B9
:1019F000F894DEBF0FBECDBF7C01C42EE52FCB0116
:101A0000D22E19A221E02D1510F02AE0D22E8E013F
:101A10000F5D1F4F8D2C912CA12CB12C6C2D7E2F86
:101A2000A50194010E944B1B8C2DD29E801911247C
:101A3000015011098A3014F4805D01C0895CF801FD
:101A40008083211531054105510521F0C22EE32F78
:101A5000CA01E4CFB801C7010E94F70BA1960FB6E7
:101A6000F894DEBF0FBECDBFDF91CF911F910F91D4
:101A7000FF90EF90DF90CF90BF90AF909F908F90AE
:101A80000895CF92DF92EF92FF920F931F93CF931F
:101A9000DF93EC016A017B012115310579F4E881BE
:101AA000F9810190F081E02D642FDF91CF911F919A
:101AB0000F91FF90EF90DF90CF9009942A3031057D
:101AC000E9F477FF1AC06DE20E94690C8C0144278B
:101AD0005527BA014C195D096E097F092AE0CE012C
:101AE0000E94E80C800F911FDF91CF911F910F9101
:101AF000FF90EF90DF90CF9008952AE0B701A60104
:101B0000CE01DF91CF911F910F91FF90EF90DF9069
:101B1000CF900C94E80C9A01AB01662757FD6095B5
:101B2000762F0C94410D0F931F93CF93DF93EC010D
:101B30009A01AB01662757FD6095762F0E94410DF3
:101B40008C01CE010E947A0C800F911FDF91CF9102
:101B50001F910F9108950F931F93CF93DF93EC0183
:101B60000E94410D8C01CE010E947A0C800F911FC2
:101B7000DF91CF911F910F9108952115310541F407
:101B8000DC01ED91FC910190F081E02D642F09942E
:101B90000C94E80C9A01462F50E060E070E00C9441
:101BA000BD0D0F931F93CF93DF93EC019A01462F46
:101BB00050E060E070E00E94BD0D8C01CE010E94FB
:101BC0007A0C800F911FDF91CF911F910F91089593
:101BD0009A01AB0160E070E00C94BD0D0F931F9370
:101BE000CF93DF93EC019A01AB0160E070E00E94BB
:101BF000BD0D8C01CE010E947A0C800F911FDF91E8
:101C0000CF911F910F9108950F931F93CF93DF935F
:101C1000EC010E94BD0D8C01CE010E947A0C800F58
:101C2000911FDF91CF911F910F9108954F925F9275
:101C30006F927F928F929F92AF92BF92CF92DF92DC
:101C4000EF92FF920F931F93CF93DF93EC016A0102
:101C50007B01B22E9A01AB01C701B6010E94341B71
:101C6000882319F06EE273E027C026013701E8945B
:101C700077F82FEF3FEF4FE75FE7C301B2010E9414
:101C8000341B81110DC02FEF3FEF4FE75FE7C3011A
:101C9000B2010E947E1918161CF462E373E00CC0B6
:101CA0002FEF3FEF4FE75FE4C701B6010E94CD1A67
:101CB0001816ACF466E373E0CE01DF91CF911F916B
:101CC0000F91FF90EF90DF90CF90BF90AF909F90DB
:101CD0008F907F906F905F904F900C94F70B2FEF49
:101CE0003FEF4FE75FECC701B6010E947E1987FD09
:101CF000E1CF20E030E0A901C701B6010E947E19C2
:101D000087FF0AC06DE2CE010E94690C8C01F7FAD0
:101D1000F094F7F8F09402C000E010E0A12C60E02D
:101D200070E080E09FE3AB1441F020E030E040E25F
:101D300051E40E948219A394F6CF9B01AC01C70124
:101D4000B6010E941A196B017C010E94EF192B0148
:101D50003C010E941B1A9B01AC01C701B6010E9405
:101D600019196B017C012AE0B301A201CE010E9486
:101D7000E80C080F191FBB2039F064E172E0CE01B6
:101D80000E94F70B080F191F7B2C772041F120E0F0
:101D900030E040E251E4C701B6010E94D11A6B0164
:101DA0007C010E94EA194B01AA2497FCA094BA2C4A
:101DB0002AE030E0B501A401CE010E94410D080FD8
:101DC000191FC501B4010E941D1A9B01AC01C70176
:101DD000B6010E9419196B017C017A94D6CFC80113
:101DE000DF91CF911F910F91FF90EF90DF90CF90F7
:101DF000BF90AF909F908F907F906F905F904F902B
:101E000008950C94160E0F931F93CF93DF93EC015C
:101E10000E94160E8C01CE010E947A0C800F911F39
:101E2000DF91CF911F910F9108950F931F93CF933F
:101E3000DF93EC010E949303688779878A879B87E9
:101E4000E881F9810680F781E02DCE01099597FFA1
:101E500015C00E949303088519852A853B85601B60
:101E6000710B820B930B0C811D812E813F816017BA
:101E700071078207930720F38FEF9FEFDF91CF91D8
:101E80001F910F9108950F931F93CF93DF93EC0150
:101E90000E949303688779878A879B87E881F98105
:101EA0000084F185E02DCE01099597FF15C00E94B1
:101EB0009303088519852A853B85601B710B820B6E
:101EC000930B0C811D812E813F8160177107820762
:101ED000930720F38FEF9FEFDF91CF911F910F9129
:101EE0000895CF93DF93EC01CE010E94430F97FD3D
:101EF00011C08D32910571F09C01205331092A30B7
:101F0000310540F0E881F9810680F781E02DCE01AE
:101F10000995EACFDF91CF910895FC014483558361
:101F20006683778308956F927F928F929F92AF928C
:101F3000BF92CF92DF92EF92FF920F931F93CF93B6
:101F4000DF935C016B014A013901FB018081882329
:101F5000E9F1E12CF12CC0E0D0E0C5010E94150FA1
:101F6000181619068CF5F601EC0FFD1F208133279A
:101F700027FD30958217930711F0C0E0D0E0F601FD
:101F8000EC0FFD1F2081332727FD30958217930723
:101F900021F42196C815D905C8F40115110589F059
:101FA000F301EE0DFF1D2081332727FD30958217A9
:101FB000930739F4FFEFEF1AFF0AE016F10668F213
:101FC00003C0E12CF12CC9CF80E001C081E0DF919A
:101FD000CF911F910F91FF90EF90DF90CF90BF9026
:101FE000AF909F908F907F906F9008950F931F9365
:101FF00000E010E020E030E00E94930F1F910F916D
:1020000008950F931F939A01FA0101900020E9F7B8
:102010008F0101501109041B150BFB0101900020D9
:10202000E9F7AF0141505109461B570B0E94930F2E
:102030001F910F91089540E050E00C940110CF9251
:10204000DF92FF920F931F93CF93DF9300D000D0C6
:10205000CDB7DEB76C01062F0E94710FFC0197FD12
:102060004BC020E030E0A901F12C112707FD1095AD
:10207000E017F107E9F0ED32F105C1F0CF01C097AB
:102080000A97B0F4AAE0B0E00E946D1B9B01AC017E
:10209000CF01AA2797FDA095BA2F280F391F4A1FF5
:1020A0005B1F205331094109510902C0FF24F394F9
:1020B000D601ED91FC910680F781E02DC6012983C0
:1020C0003A834B835C830995C6010E94430FFC0150
:1020D000C09729813A814B815C810A9748F2E017C9
:1020E000F10731F2FF2061F066277727CB01621BF1
:1020F000730B840B950B06C060E070E0CB0102C04F
:10210000CA01B9010F900F900F900F90DF91CF91FE
:102110001F910F91FF90DF90CF90089561E00C9494
:102120001F107F928F929F92AF92BF92CF92DF92B9
:10213000EF92FF920F931F93CF93DF93EC01762ED4
:102140000E94710FE82F87FD6AC0812C912C80E8D6
:10215000A82E8FE3B82EC12CD12C760110E000E020
:10216000E71579F1ED3251F1EE3251F180ED8E0F3C
:102170008A3038F5AAE0B0E0A70196010E946D1BF5
:102180006B017C014E2F552747FD5095652F752F0C
:10219000C40ED51EE61EF71E80E3C81AD108E1085A
:1021A000F108112371F02DEC3CEC4CEC5DE3C50122
:1021B000B4010E94D11A4B015C0102C001E001C0D0
:1021C00011E0E881F9810680F781E02DCE010995C3
:1021D000CE010E94430FE82F90ED980F9A3008F43B
:1021E000BFCF8E3209F4BCCF871509F4B9CF0023D5
:1021F00041F0F094E094D094C094C11CD11CE11C37
:10220000F11CC701B601112339F00E941D1AA50166
:1022100094010E94D11A06C00E941D1A03C060E0FA
:1022200070E0CB01DF91CF911F910F91FF90EF9064
:10223000DF90CF90BF90AF909F908F907F90089548
:1022400061E00C949110CF92DF92EF92FF920F9386
:102250001F93CF93DF937C016A01EB0100E010E054
:102260000C151D0549F0C7010E94150F97FD04C00C
:1022700089930F5F1F4FF4CFC801DF91CF911F915A
:102280000F91FF90EF90DF90CF900895AF92BF92A3
:10229000CF92DF92EF92FF920F931F93CF93DF9332
:1022A0006C01790121153105B9F08A01C0E0D0E057
:1022B000A62EBB24A7FCB094C6010E94150F97FD63
:1022C0000EC08A159B0559F0F80181938F01219664
:1022D000CE15DF0589F703C080E090E001C0CE0194
:1022E000DF91CF911F910F91FF90EF90DF90CF90F2
:1022F000BF90AF9008950F931F93CF93DF93EC019E
:102300008B0163EE72E00E949404C8010E94150FD5
:1023100097FD05C0682FCE010E942406F6CFCE019E
:10232000DF91CF911F910F910895EF92FF920F933C
:102330001F93CF93DF93EC018B01E42E63EE72E0E9
:102340000E949404C8010E94150FFF24E7FCF0943A
:1023500097FD0BC08E159F0541F0682FCE010E949E
:102360002406C8010E94150FF3CFCE01DF91CF9153
:102370001F910F91FF90EF9008950E94F4030E9427
:102380009700C5EDD2E10E94FA022097E1F30E9486
:10239000D512F9CFFC0124853585F901E05CFF4FAA
:1023A00080819181329620813181821B930B8F73C2
:1023B00099270895FC0184859585FC01E05CFF4F19
:1023C000408151813296208131814217530741F07B
:1023D0000190F081E02DE80FF91F808190E00895D1
:1023E0008FEF9FEF0895FC0184859585FC01E05CEB
:1023F000FF4F40815181329620813181421753072E
:1024000079F0A081B181A80FB91F8C912081318111
:102410002F5F3F4F2F7333273183208390E0089540
:102420008FEF9FEF0895FC0181A1882329F0A489F3
:10243000B5898C9186FFFBCF11A20895CF93DF93CE
:10244000FC0126853785D901A05CBF4F8D919C91F9
:10245000119701968F739927E901CE5BDF4F488171
:10246000598184179507D9F30D90BC91A02DA20F27
:10247000B31F6C93A685B785A05CBF4F11969C9344
:102480008E93A689B7892C9181E090E0078C02C0D9
:10249000880F991F0A94E2F7282B2C9381E081A3DF
:1024A0000488F589E02D80818064808381E090E05C
:1024B000DF91CF91089508951F920F920FB60F925A
:1024C00011240BB60F922F933F934F938F939F93AB
:1024D000EF93FF935A991BC04CB18091BC0490912B
:1024E000BD0401968F7399272091BE043091BF04DB
:1024F0008217930769F0E091BC04F091BD04E458A1
:10250000FB4F40839093BD048093BC0401C08CB109
:10251000FF91EF919F918F914F913F912F910F904C
:102520000BBE0F900FBE0F901F90189508951F922D
:102530000F920FB60F9211240BB60F922F933F9369
:102540004F938F939F93EF93FF9380919B0082FD16
:102550001CC040919C0080913404909135040196F8
:102560008F7399272091360430913704821793078F
:1025700071F0E0913404F0913504EC50FC4F40834D
:10258000909335048093340402C080919C00FF91A5
:10259000EF919F918F914F913F912F910F900BBE93
:1025A0000F900FBE0F901F9018958EE893E00E9439
:1025B000CA11892B11F00E945B128CE693E00E94F5
:1025C000CA11892B11F00C94961208951F920F9244
:1025D0000FB60F9211240BB60F922F933F938F9348
:1025E0009F93EF93FF932091780430917904809129
:1025F0007A0490917B042817390711F4559813C079
:10260000E0917A04F0917B04E85CFB4F208180919B
:102610007A0490917B0401968F73992790937B04A1
:1026200080937A042CB9FF91EF919F918F913F9104
:102630002F910F900BBE0F900FBE0F901F9018950B
:102640001F920F920FB60F9211240BB60F922F9379
:102650003F938F939F93EF93FF932091F0033091DB
:10266000F1038091F2039091F3032817390731F4B5
:1026700080919A008F7D80939A0014C0E091F203BC
:10268000F091F303E055FC4F20818091F20390918B
:10269000F30301968F7399279093F3038093F203CA
:1026A00020939C00FF91EF919F918F913F912F91EB
:1026B0000F900BBE0F900FBE0F901F9018958F922A
:1026C0009F92AF92BF92CF92DF92EF92FF920F93C1
:1026D0001F93CF93DF93CDB7DEB7FC011382128235
:1026E00088EE93E0A0E0B0E084839583A683B7836F
:1026F00086E593E091838083758764875787468753
:10270000318B208B138B028BF58AE48AD78AC68A99
:10271000B18EA08E938E828E8F85848F8889858FCF
:102720008989868F8A89878F8B8980A3DF91CF9152
:102730001F910F91FF90EF90DF90CF90BF90AF90DF
:102740009F908F900895CF92DF92EF92FF92CF9358
:10275000DF93EC016A017B01411581EE58076105A9
:102760007105F9F0EC89FD8981E090E008A002C0D4
:10277000880F991F0A94E2F7808360E079E08DE387
:1027800090E0A70196010E944B1B2150310941099D
:1027900051095695479537952795211580E13807BA
:1027A00098F0EC89FD89108260E874E88EE190E091
:1027B000A70196010E944B1B215031094109510983
:1027C0005695479537952795E889F9893083EA89A1
:1027D000FB89208319A2EE89FF89408181E090E086
:1027E0009C010C8C02C0220F331F0A94E2F7422B8B
:1027F0004083EE89FF8940819C010D8C02C0220F2D
:10280000331F0A94E2F7422B4083EE89FF8940810F
:102810009C010E8C02C0220F331F0A94E2F7422B58
:102820004083EE89FF8920810F8C02C0880F991F99
:102830000A94E2F7809582238083DF91CF91FF9005
:10284000EF90DF90CF900895BF92CF92DF92EF92FA
:10285000FF92CF93DF93EC016A017B01B22E411509
:1028600081EE580761057105F9F0EC89FD8981E079
:1028700090E008A002C0880F991F0A94E2F78083B5
:1028800060E079E08DE390E0A70196010E944B1B88
:10289000215031094109510956954795379527959A
:1028A000211580E1380798F0EC89FD89108260E8F5
:1028B00074E88EE190E0A70196010E944B1B215025
:1028C0003109410951095695479537952795E8896A
:1028D000F9893083EA89FB892083E88DF98DB082FC
:1028E000EE89FF89408181E090E09C010C8C02C060
:1028F000220F331F0A94E2F7422B4083EE89FF89AF
:1029000040819C010D8C02C0220F331F0A94E2F714
:10291000422B4083EE89FF8940819C010E8C02C0CE
:10292000220F331F0A94E2F7422B4083EE89FF897E
:1029300020810F8C02C0880F991F0A94E2F78095BE
:1029400082238083DF91CF91FF90EF90DF90CF9033
:10295000BF900895CF93DF93FC0186859785DC01B6
:10296000A05CBF4FEC01CE5BDF4F4D915C911197A6
:102970002881398142175307C1F7A689B7894C913D
:1029800081E090E09C01048C02C0220F331F0A9466
:10299000E2F7209524232C93A689B7894C919C01BA
:1029A000058C02C0220F331F0A94E2F720952423DE
:1029B0002C93A689B7894C919C01068C02C0220FEA
:1029C000331F0A94E2F7209524232C93A689B78914
:1029D0002C91078C02C0880F991F0A94E2F780950A
:1029E00082238C9384859585FC01EE5BFF4F2081CB
:1029F0003181329731832083DF91CF91089581E037
:102A00000895109291031092900388EE93E0A0E055
:102A1000B0E08093920390939303A0939403B093B8
:102A2000950326E533E030938F0320938E034CE724
:102A300054E050939B0340939A0348E354E050932F
:102A40009D0340939C0340E950E050939F034093C3
:102A50009E0349E250E05093A1034093A0034BE250
:102A600050E05093A3034093A2034AE250E05093F6
:102A7000A5034093A40345E950E05093A703409376
:102A8000A6034CE250E05093A9034093A803E4E06E
:102A9000E093AA0373E07093AB0367E06093AC0329
:102AA00055E05093AD0341E04093AE0310926F03A5
:102AB00010926E038093700390937103A09372033E
:102AC000B093730330936D0320936C0384EF93E012
:102AD000909379038093780380EB93E090937B034A
:102AE00080937A0388E990E090937D0380937C0340
:102AF00089E990E090937F0380937E038BE990E0D7
:102B000090938103809380038AE990E090938303FC
:102B1000809382038DE990E09093850380938403F2
:102B20008CE990E09093870380938603E093880379
:102B30007093890360938A0350938B0340938C03B3
:102B400008956F927F928F929F92AF92BF92CF9291
:102B5000DF92EF92FF920F931F93CF93DF93EC01DD
:102B6000CB01209781F4DF91CF911F910F91FF90BE
:102B7000EF90DF90CF90BF90AF909F908F907F901D
:102B80006F900C948A16FE01E60FF71F9E012250EB
:102B90003109E217F30708F4ACC0D9010D911C917B
:102BA000119706171707B8F00530110508F49FC0F4
:102BB000A801445051094617570708F498C002501D
:102BC0001109061B170B019311936D937C93CF0191
:102BD0000E9422178CC05B01A01AB10A4E01800E20
:102BE000911EA091C204B091C304612C712C60E0CD
:102BF00070E0109709F449C0A815B905C9F5ED9022
:102C0000FC901197670142E0C40ED11CCA14DB048A
:102C100078F147018A189B08640142E0C40ED11C78
:102C20001296BC9012971396AC91B5E0CB16D104D6
:102C300040F0B282A38391828082D9018D939C93CC
:102C400009C00E5F1F4F0E0D1F1DF9011183008378
:102C5000EB2DFA2F6115710531F0DB011396FC9312
:102C6000EE93129744C0F093C304E093C2043FC0B4
:102C70006D917C9111976616770608F43B01BD01B2
:102C800012960D90BC91A02DB4CF6091C0047091AC
:102C9000C10468157905E9F468167906D0F4409105
:102CA000DD015091DE014115510541F44DB75EB78C
:102CB0006091E1017091E201461B570BE417F507A3
:102CC000C0F4F093C104E093C004F90191838083C0
:102CD0000EC00E948A167C01009759F0A801BE011F
:102CE0000E940A18CE010E942217C70104C0CE011B
:102CF00002C080E090E0DF91CF911F910F91FF9093
:102D0000EF90DF90CF90BF90AF909F908F907F908B
:102D10006F900895CF93DF938230910510F482E095
:102D200090E0E091C204F091C30420E030E0A0E024
:102D3000B0E0309739F14081518148175907B8F018
:102D40004817590771F482819381109729F01396DF
:102D50009C938E9312972CC09093C3048093C204CB
:102D600027C02115310531F04217530718F0A9018A
:102D7000DB0101C0EF019A01BD01DF010280F38197
:102D8000E02DD7CF21153105F9F0281B390B243060
:102D9000310580F48A819B816115710521F0FB0169
:102DA0009383828304C09093C3048093C204FE0182
:102DB000329644C0FE01E20FF31F8193919322509B
:102DC0003109398328833AC02091C0043091C1046D
:102DD000232B41F42091DF013091E0013093C104B5
:102DE0002093C0042091DD013091DE0121153105D1
:102DF00041F42DB73EB74091E1015091E201241B0F
:102E0000350BE091C004F091C104E217F307A0F480
:102E10002E1B3F0B2817390778F0AC014E5F5F4F30
:102E20002417350748F04E0F5F1F5093C10440939D
:102E3000C0048193919302C0E0E0F0E0CF01DF9104
:102E4000CF910895CF93DF93009709F487C0FC01D9
:102E5000329713821282C091C204D091C30420978A
:102E600081F420813181280F391F8091C004909115
:102E7000C1048217930779F5F093C104E093C0046D
:102E80006DC0DE0120E030E0AE17BF0750F41296AF
:102E90004D915C9113979D014115510509F1DA019E
:102EA000F3CFB383A28340815181840F951F8A178A
:102EB0009B0771F48D919C911197840F951F029639
:102EC0009183808312968D919C9113979383828333
:102ED0002115310529F4F093C304E093C2043EC0E8
:102EE000D9011396FC93EE9312974D915D91A40F27
:102EF000B51FEA17FB0779F480819181840F951F34
:102F00000296D90111969C938E9382819381139698
:102F10009C938E931297E0E0F0E08A819B8100976A
:102F200019F0FE01EC01F9CFCE010296288139811A
:102F3000820F931F2091C0043091C10428173907D4
:102F400069F4309729F41092C3041092C20402C0AD
:102F500013821282D093C104C093C004DF91CF9139
:102F600008950C948A160C948A160C9422170C94CB
:102F70002217FC0181E090E02081222311F080E003
:102F800090E0089521E0FC012083089508950895BC
:102F90001F93FC0199278827BC01E89411911032F6
:102FA000E9F3193010F01E30C8F31B3251F01D3216
:102FB00049F4689406C00E94B218610F711D811D0A
:102FC000911D119110531A30B0F33EF490958095F5
:102FD000709561957F4F8F4F9F4F1F910895F89483
:102FE0000C948B1B911144C3803219F08950855089
:102FF000D0F708959111089581548A5108F4805EA4
:10300000855A08959111089581568A5108F4805285
:1030100085580895FB01DC0102C001900D924150DA
:103020005040D8F708956817790768F4FB01DC0170
:10303000E40FF51FA40FB51F02C002900E9241507D
:103040005040D8F708950C940A18FC018191861716
:1030500021F08823D9F7992708953197CF01089552
:10306000FB01DC018D91019080190110D9F3990BBE
:103070000895FB01DC0101900D920020E1F7089515
:10308000FB01DC014150504030F08D9101908019DE
:1030900019F40020B9F7881B990B0895FB01DC0196
:1030A0004150504048F001900D920020C9F701C0F6
:1030B0001D9241505040E0F70895FC0181E090E0FE
:1030C0000190061609F4CF010020D1F70197089569
:1030D000FB0151915523A9F0BF01DC014D9145172A
:1030E0004111E1F759F4CD010190002049F04D91D3
:1030F00040154111C9F3FB014111EFCF81E090E090
:10310000019708954532510520F4423010F00C9497
:103110008D18FB011082CB010895BB274A3031F492
:10312000992322F4BDE2909581959F4F0C9400194C
:103130002532310520F4223010F00C94A318FA0146
:103140001082CA010895BB272A3051F4992342F412
:10315000BDE290958095709561957F4F8F4F9F4F01
:103160000C94D318592F482F372F262F660F771F0F
:10317000881F991F660F771F881F991F620F731F83
:10318000841F951F660F771F881F991F089525328A
:10319000310520F4223010F00C94D218FA0110827C
:1031A000CA010895BB27FA01A62F62177105810590
:1031B0009105330B30FB66F0AA27660F771F881F37
:1031C000991FAA1FA21710F0A21B63953850A9F7E8
:1031D000A05DAA3308F0A95DA19336F7B111B193B0
:1031E0001082CA010C943B1B4532510520F4423039
:1031F00010F00C94FF18FB011082CB010895BB273F
:10320000FB015527AA27880F991FAA1FA41710F0A2
:10321000A41B83955051B9F7A05DAA3308F0A95DAE
:10322000A193009779F7B111B1931192CB010C944E
:103230003B1B5058BB27AA270ED075C166D130F072
:103240006BD120F031F49F3F11F41EF45BC10EF4FA
:10325000E095E7FB51C1E92F77D180F3BA176207F8
:1032600073078407950718F071F49EF58FC10EF46B
:10327000E0950B2EBA2FA02D0B01B90190010C0186
:10328000CA01A0011124FF27591B99F0593F50F49E
:10329000503E68F11A16F040A22F232F342F4427F6
:1032A000585FF3CF469537952795A795F0405395EE
:1032B000C9F77EF41F16BA0B620B730B840BBAF0BE
:1032C0009150A1F0FF0FBB1F661F771F881FC2F729
:1032D0000EC0BA0F621F731F841F48F4879577953D
:1032E0006795B795F7959E3F08F0B3CF9395880FF4
:1032F00008F09927EE0F979587950895D9D008F48F
:1033000081E008950CD00FC107D140F0FED030F01D
:1033100021F45F3F19F0F0C0511139C1F3C014D14D
:1033200098F39923C9F35523B1F3951B550BBB278C
:10333000AA2762177307840738F09F5F5F4F220F39
:10334000331F441FAA1FA9F333D00E2E3AF0E0E832
:1033500030D091505040E695001CCAF729D0FE2F7E
:1033600027D0660F771F881FBB1F26173707480710
:10337000AB07B0E809F0BB0B802DBF01FF279358C6
:103380005F4F2AF09E3F510568F0B6C000C15F3F15
:10339000ECF3983EDCF3869577956795B795F795AE
:1033A0009F5FC9F7880F911D9695879597F90895A6
:1033B000E1E0660F771F881FBB1F62177307840742
:1033C000BA0720F0621B730B840BBA0BEE1F88F751
:1033D000E095089504D06894B111D9C00895BCD087
:1033E00088F09F5790F0B92F9927B751A0F0D1F0EE
:1033F000660F771F881F991F1AF0BA95C9F712C078
:10340000B13081F0C3D0B1E00895C0C0672F782FEC
:103410008827B85F39F0B93FCCF3869577956795E3
:10342000B395D9F73EF490958095709561957F4F4F
:103430008F4F9F4F0895E89409C097FB3EF49095F5
:103440008095709561957F4F8F4F9F4F9923A9F07D
:10345000F92F96E9BB279395F6958795779567950C
:10346000B795F111F8CFFAF4BB0F11F460FF1BC050
:103470006F5F7F4F8F4F9F4F16C0882311F096E9E3
:1034800011C0772321F09EE8872F762F05C0662391
:1034900071F096E8862F70E060E02AF09A95660F4A
:1034A000771F881FDAF7880F9695879597F9089503
:1034B000990F0008550FAA0BE0E8FEEF1616170645
:1034C000E807F907C0F012161306E407F50798F0AD
:1034D000621B730B840B950B39F40A2661F0232BC6
:1034E000242B252B21F408950A2609F4A140A69542
:1034F0008FEF811D811D089597F99F6780E870E027
:1035000060E008959FEF80EC089500240A94161659
:10351000170618060906089500240A9412161306C1
:10352000140605060895092E0394000C11F488234F
:1035300052F0BB0F40F4BF2B11F460FF04C06F5F6B
:103540007F4F8F4F9F4F089557FD9058440F551F41
:1035500059F05F3F71F04795880F97FB991F61F015
:103560009F3F79F087950895121613061406551F8C
:10357000F2CF4695F1DF08C0161617061806991FF8
:10358000F1CF86957105610508940895E894BB27ED
:1035900066277727CB0197F908958ADF08F48FEF24
:1035A00008950BD0C0CFB1DF28F0B6DF18F0952317
:1035B00009F0A2CFA7CF1124EACFC6DFA0F3959FD1
:1035C000D1F3950F50E0551F629FF001729FBB270A
:1035D000F00DB11D639FAA27F00DB11DAA1F649FB6
:1035E0006627B00DA11D661F829F2227B00DA11D69
:1035F000621F739FB00DA11D621F839FA00D611DEF
:10360000221F749F3327A00D611D231F849F600D0F
:10361000211D822F762F6A2F11249F5750408AF048
:10362000E1F088234AF0EE0FFF1FBB1F661F771FD4
:10363000881F91505040A9F79E3F510570F05CCF14
:10364000A6CF5F3FECF3983EDCF3869577956795C0
:10365000B795F795E7959F5FC1F7FE2B880F911DF2
:103660009695879597F9089523DF880B990B089510
:10367000992788270895DC01FC01672F7191772332
:10368000E1F7329704C07C916D9370836291AE171D
:10369000BF07C8F30895A1E21A2EAA1BBB1BFD01A8
:1036A0000DC0AA1FBB1FEE1FFF1FA217B307E40721
:1036B000F50720F0A21BB30BE40BF50B661F771F79
:1036C000881F991F1A9469F7609570958095909559
:1036D0009B01AC01BD01CF0108950E947C1BA59FF9
:1036E000900DB49F900DA49F800D911D11240895FD
:1036F0000790F691E02D0994A29FB001B39FC001FD
:10370000A39F700D811D1124911DB29F700D811D0D
:0A3710001124911D0895F894FFCFD5
:10371A00485454502F312E3120323030204F6B0D07
:10372A000A0D0A3C68746D6C3E3C68313E4C454457
:10373A002077656220736572766572213C2F683145
:10374A003E3C666F726D206D6574686F643D504FC4
:10375A00535420616374696F6E3D2F3E3C696E70ED
:10376A00757420747970653D726164696F206E6149
:10377A006D653D636F6C6F722076616C75653D7225
:10378A0065643E7265643C62723E3C696E70757433
:10379A0020747970653D726164696F206E616D6530
:1037AA003D636F6C6F722076616C75653D677265FB
:1037BA00656E3E677265656E3C62723E3C696E700C
:1037CA00757420747970653D7375626D69742076BD
:1037DA00616C75653D5377697463683E3C2F666F0B
:1037EA00726D3E3C2F68746D6C3E0D0A000000C479
:1037FA00048000537769746368696E6720746F2068
:10380A006F72616E6765206C65642E2E2E00537789
:10381A0069746368696E6720746F20726564206CCE
:10382A0065642E2E2E00537769746368696E67206B
:10383A00746F20677265656E206C65642E2E2E008B
:10384A005374617274696E67204C454420636F6ECD
:10385A0074726F6C20776562736572766572210087
:10386A0041540041542B43574D4F44453D3200418A
:10387A00542B43575341503D22006573705F3132D8
:10388A003300222C2231323334353637383930225C
:10389A002C352C330041542B4349504D55583D315A
:1038AA000041542B4349505345525645523D312C01
:1038BA0038300041542B43495053454E443D004152
:1038CA00542B434950434C4F53453D00497420699A
:1038DA00732047455421005265706C792073656ED8
:1038EA00742100497420697320504F535421000DEC
:1038FA000A0D0A00636F6C6F723D00537769746337
:10390A0068696E67206C6564207769746820636FE4
:10391A006C6F72200050617273696E6720687474EC
:10392A007020636F6D6D616E642E2E2E00474554B4
:10393A0000504F5354002B4950442C003A006E61FA
:10394A006E00696E66006F76660000000000C71799
:10395A00CF0B00000000C717CF0BC717C717C71731
:10396A00C717000000001E12CF0BCA11F311DA119B
:02397A00131226
:00000001FF
