:100000000C94C0060C94E8060C94E8060C94E806E0
:100010000C94E8060C94E8060C94E8060C94E806A8
:100020000C94E8060C94E8060C947A220C941121A6
:100030000C94E8060C94E8060C94E8060C94E80688
:100040000C94E8060C94E8060C94E8060C94E80678
:100050000C94E8060C94E8060C94E8060C945411F1
:100060000C94E8060C94E8060C94E8060C94E80658
:100070000C94E8060C94E8060C94E8060C94E80648
:100080000C94E8060C94E8060C94E8060C94E80638
:100090000C94E8060C94E8060C94E8060C94E80628
:1000A0000C94E8060C94E8060C94E80668126B12AF
:1000B0005E1262128C128C128C126F1273127712F3
:1000C0007D1281128C1287123D3D3D3D3D3D3D3DEF
:1000D0003D3D3D3D3D3D3D3D3D3D3D3D3D3D3D3D50
:1000E0003D3D3D3D3D3D3D3D0D0A5374617274699A
:1000F0006E6720627275746520666F726365207327
:1001000063616E206F6620495220696E7374727548
:100110006374696F6E732E2E2E0D0A4E4F54453A3E
:1001200020496620566572626F7365206D6F646545
:10013000206973206F6666206F757470757420690E
:1001400073206F6E6C79207072696E7465640D0A2D
:10015000202020202020616674657220616374690C
:10016000766974792028626974206368616E6765B6
:10017000732920617265206E6F7469636564206104
:100180006E640D0A202020202020796F75206D6973
:10019000676874206E6F74207365652074686520CD
:1001A000666972737420626974206F66206F75745B
:1001B0007075742E0D0A49525F4C454E207365745C
:1001C00020746F20003D3D3D3D3D3D3D3D3D3D3D6D
:1001D0003D3D3D3D3D3D3D3D3D3D3D3D3D3D3D3D4F
:1001E0003D3D3D3D3D0D0A5374617274696E67205B
:1001F00073616D706C652028626F756E64617279D1
:10020000207363616E292E2E2E0D0A003D3D3D3D6B
:100210003D3D3D3D3D3D3D3D3D3D3D3D3D3D3D3D0E
:100220003D3D3D3D3D3D3D3D3D3D3D3D0D0A003D9E
:100230003D3D3D3D3D3D3D3D3D3D3D3D3D3D3D3DEE
:100240003D3D3D3D3D3D3D3D3D3D3D3D3D3D3D0D0E
:100250000A5374617274696E6720736869667420EA
:100260006F66207061747465726E207468726F7549
:100270006768206279706173732E2E2E0D0A4173A8
:1002800073756D6573206279706173732069732073
:100290007468652064656661756C74204452206FD3
:1002A0006E2072657365742E0D0A48656E63652C49
:1002B000206E6F206E65656420746F2063686563CF
:1002C0006B20666F7220544D532E20416C736F2C3F
:1002D0002063757272656E746C790D0A6E6F74208E
:1002E000636865636B696E6720666F72206E545237
:1002F00053542C207768696368206D69676874209F
:100300006E6F7420776F726B0D0A003D3D3D3D3D71
:100310003D3D3D3D3D3D3D3D3D3D3D3D3D3D3D3D0D
:100320003D3D3D3D3D3D3D3D3D3D3D0D0A003D3D9D
:100330003D3D3D3D3D3D3D3D3D3D3D3D3D3D3D3DED
:100340003D3D3D3D3D3D3D3D3D3D3D3D3D3D0D0A40
:100350005374617274696E67207363616E20666F97
:1003600072204944434F44452E2E2E0D0A003D3D38
:100370003D3D3D3D3D3D3D3D3D3D3D3D3D3D3D3DAD
:100380003D3D3D3D3D3D3D3D3D3D3D3D3D3D0D0A00
:10039000003D3D3D3D3D3D3D3D3D3D3D3D3D3D3DCA
:1003A0003D3D3D3D3D3D3D3D3D3D3D3D3D3D3D3D7D
:1003B0003D0D0A5374617274696E67206C6F6F70C3
:1003C0006261636B20636865636B2E2E2E0D0A00DD
:1003D0003D3D3D3D3D3D3D3D3D3D3D3D3D3D3D3D4D
:1003E0003D3D3D3D3D3D3D3D3D3D3D3D3D3D3D3D3D
:1003F0000D0A003D3D3D3D3D3D3D3D3D3D3D3D3DCD
:100400003D3D3D3D3D3D3D3D3D3D3D3D3D3D3D3D1C
:100410003D3D3D0D0A5374617274696E67207363CC
:10042000616E20666F72207061747465726E3A003E
:100430005D0D0A0D0A69203E206964636F646520C2
:100440007363616E0D0A0920417373756D657320C6
:100450004944434F44452069732064656661756C67
:1004600074204452206F6E2072657365742E20498B
:10047000676E6F726573205444492E0D0A0920532C
:100480006574732054415020737461746520746FD7
:100490002044525F534849465420616E6420707274
:1004A000696E74732054444F20746F20636F6E73B1
:1004B0006F6C650D0A09207768656E2054444F20E3
:1004C00061707065617273206163746976652E2056
:1004D00048756D616E206578616D696E6174696FD4
:1004E0006E20726571756972656420746F0D0A09FA
:1004F0002064657465726D696E652069662061634C
:100500007475616C204944434F44452069732070E1
:10051000726573656E742E2052756E2073657665F4
:1005200072616C0D0A092074696D657320746F2007
:10053000636865636B20666F7220636F6E736973A7
:1005400074616E6379206F7220636F6D7061726584
:1005500020616761696E73740D0A092061637469B3
:1005600076652074646F206C696E657320666F75A4
:100570006E642077697468206C6F6F706261636B62
:1005800020746573742E0D0A0D0A62203E20627974
:1005900070617373207363616E0D0A092041737378
:1005A000756D65732042595041535320697320641F
:1005B000656661756C74204452206F6E207265739D
:1005C00065742E2049676E6F72657320544D5320F9
:1005D000616E640D0A092073686966747320706126
:1005E000747465726E5B5D207468726F75676820E5
:1005F0005444492F54444F207573696E6720544307
:100600004B20666F7220636C6F636B2E0D0A0D0AB0
:100610004552415454410D0A2D2D2D2D2D2D0D0ADD
:100620006C203E206C6F6F706261636B2063686545
:10063000636B0D0A092069676E6F726573207463BE
:100640006B2C746D732E20696620706174746572F2
:100650006E732070617373656420746F2074646FAF
:100660002070696E73206172650D0A0920636F6ED8
:100670006E656374656420746865726520697320B3
:10068000612073686F7274206F7220612066616CE4
:1006900073652D706F737369746976650D0A09202F
:1006A000636F6E646974696F6E20657869737473C3
:1006B00020746861742073686F756C6420626520B3
:1006C00074616B656E20696E746F206163636F7512
:1006D0006E740D0A72203E2070756C6C7570730D0F
:1006E0000A0920696E7465726E616C2070756C6C9D
:1006F000757073206F6E20696E707574732C206F27
:100700006E2F6F66662E206D6967687420696E6350
:1007100072656173650D0A092073746162696C69A1
:100720007479207768656E207573696E6720612023
:10073000626164207061746368206361626C652E1D
:100740000D0A76203E20766572626F73650D0A0988
:10075000206F6E2F6F66662E207072696E74207423
:10076000646F206269747320746F20636F6E736F9F
:100770006C6520647572696E672074657374696E48
:10078000672E2077696C6C20736C6F770D0A0920D7
:10079000646F776E207363616E2E0D0A64203E20B5
:1007A00064656C61790D0A09206F6E2F6F66662E85
:1007B0002077696C6C20736C6F7720646F776E2084
:1007C0007363616E2E0D0A2D203E2064656C617985
:1007D000202D0D0A09207265647563652064656CBF
:1007E0006179206279203130303075730D0A2B2009
:1007F0003E2064656C6179202B0D0A68203E2068DC
:10080000656C700D0A0D0A4F54484552204A5441F8
:10081000472054455354530D0A2D2D2D2D2D2D2D8C
:100820002D2D2D2D2D2D2D2D2D0D0A45616368208B
:100830006F662074686520666F6C6C6F77696E6791
:100840002077696C6C206E6F74207363616E2F6605
:10085000696E64204A54414720616E64207265715C
:10086000756972650D0A7468617420796F75206D01
:10087000616E75616C6C7920736574207468652095
:100880004A5441472070696E732E20536565207469
:100890006865697220726573706563746976650D49
:1008A0000A63616C6C2066726F6D20746865206CE1
:1008B0006F6F7028292066756E6374696F6E206F84
:1008C0006620636F646520746F207365742E0D0A53
:1008D0000D0A31203E207061747465726E2073635E
:1008E000616E2073696E676C650D0A092072756E02
:1008F0007320612066756C6C20636865636B206F84
:100900006E206F6E6520636F64652D646566696E29
:100910006564207464693C3E74646F207061697220
:100920002E0D0A09206C6F6F6B206174207468654E
:10093000206D61696E28292F6C6F6F7028292063E4
:100940006F646520746F20737065636966792070C9
:10095000696E732E0D0A78203E20626F756E646199
:100960007279207363616E0D0A0920636865636B99
:100970007320636F646520646566696E65642074C6
:10098000646F20666F7220343030302B20626974BF
:10099000732E0D0A09206C6F6F6B206174207468D0
:1009A00065206D61696E28292F6C6F6F7028292072
:1009B000636F646520746F20737065636966792066
:1009C00070696E732E0D0A79203E206972656E750E
:1009D0006D0D0A0920736574732065766572792040
:1009E000706F737369626C6520496E73747275639E
:1009F00074696F6E20526567697374657220616EE9
:100A000064207468656E0D0A0920636865636B7302
:100A100020746865206F7574707574206F6620741B
:100A200068652044617461205265676973746572FA
:100A30002E0D0A09206C6F6F6B206174207468653D
:100A4000206D61696E28292F6C6F6F7028292063D3
:100A50006F646520746F20737065636966792070B8
:100A6000696E732E0D0A0053686F727420616E6494
:100A7000206C6F6E6720666F726D20636F6D6D61A5
:100A80006E64732063616E20626520757365642EE9
:100A90000D0A0D0A5343414E530D0A2D2D2D2D2DB8
:100AA0000D0A73203E207061747465726E2073634A
:100AB000616E0D0A09205363616E7320666F7220A8
:100AC000616C6C204A5441472070696E732E20413E
:100AD0007474656D70747320746F20736574205422
:100AE000415020737461746520746F0D0A092044AD
:100AF000525F534849465420616E64207468656EA5
:100B00002073686966742074686520706174746508
:100B1000726E207468726F7567682074686520440F
:100B2000522E0D0A70203E207061747465726E2022
:100B30007365740D0A092063757272656E746C7941
:100B40003A205B00070605040100080A0B0C0D099A
:100B50000000000200080E0000030401000B00006A
:100B60000000000000000000000000000000040879
:100B700002011040804010204080408008020401A3
:100B80008040201002011080102040400404040422
:100B90000403040502020202040302020202060622
:100BA00006060606040402020204000000002300F8
:100BB000260029002C002F0000000000250028003E
:100BC0002B002E00310000000000240027002A0026
:100BD0002D003000080B0002020201000904000091
:100BE0000102020000052400100105240101010496
:100BF00024020605240600010705810310004009B0
:100C0000040100020A00000007050202400000077C
:100C100005830240000000C18081C1120100020270
:100C20000000404123368000010102000112010052
:100C3000020000004041233680000101020001183B
:100C400003410072006400750069006E006F0020AF
:100C5000004C004C00430022034100720064007508
:100C60000069006E006F0020004C0065006F006E90
:100C7000006100720064006F0004030904000000BA
:100C800000000000002A2B280000000000000000E7
:100C9000000000000000000000000000002C9EB4D6
:100CA000A0A1A2A434A6A7A5AE362D3738271E1FB3
:100CB00020212223242526B333B62EB7B89F84855E
:100CC000868788898A8B8C8D8E8F9091929394954C
:100CD000969798999A9B9C9D2F3130A3AD3504052A
:100CE000060708090A0B0C0D0E0F1011121314152C
:100CF000161718191A1B1C1DAFB1B0B50009040254
:100D00000001030000000921010100012265000724
:100D100005840340000105010902A1010901A100A8
:100D200085010509190129031500250195037501A0
:100D300081029501750581030501093009310938E2
:100D40001581257F750895038106C0C00501090638
:100D5000A1018502050719E029E7150025017501A4
:100D6000950881029501750881039506750815009F
:100D700025650507190029658100C00084177826BC
:100D800011241FBECFEFDAE0DEBFCDBF14E0A0E03C
:100D9000B1E0EEE7F4E502C005900D92AC30B1078A
:100DA000D9F724E0ACE0B4E001C01D92A03AB2074C
:100DB000E1F71DE0C0E8DDE004C02297FE010E94DB
:100DC000392ACC37D107C9F70E946B160C94AC2690
:100DD0000C9400000F931F93CF93DF93EC01162F19
:100DE000042F80912804882321F082E390E00E9460
:100DF000F311CF3F8FEFD80721F060E08C2F0E94D6
:100E0000C612602F812F0E94C612CF3F8FEFD807E6
:100E100041F061E08C2FDF91CF911F910F910C94E5
:100E2000C612DF91CF911F910F910895AF92BF929B
:100E3000CF92DF92EF92FF920F931F93CF93DF93A6
:100E40005C01EB016A0179010F3F8FEF180789F010
:100E500065E771E083E394E00E94BD13D801AA0F17
:100E6000BB1FAB5BBE4F6D917C9183E394E00E940E
:100E7000BD136DE771E083E394E00E94BD13F501BB
:100E8000EE0FFF1FEB5BFE4F6081718183E394E007
:100E90000E94BD1363E871E083E394E00E94BD13F8
:100EA000CC0FDD1FCB5BDE4F6881798183E394E05B
:100EB0000E94BD1369E871E083E394E00E94BD13D2
:100EC000D601AA0FBB1FAB5BBE4F6D917C9183E334
:100ED00094E00E94BD138FEFE816F806D9F06FE892
:100EE00071E083E394E00E94BD13F701EE0FFF1F52
:100EF000EB5BFE4F6081718183E394E0DF91CF91E2
:100F00001F910F91FF90EF90DF90CF90BF90AF9027
:100F10000C94BD13DF91CF911F910F91FF90EF9033
:100F2000DF90CF90BF90AF9008952F923F924F9255
:100F30005F926F927F928F929F92AF92BF92CF9269
:100F4000DF92EF92FF920F931F93CF93DF93CDB772
:100F5000DEB7C654D1090FB6F894DEBF0FBECDBFC1
:100F60001C012B0124964FAF249723963FAF2EAF41
:100F70002397E5E0F1E0DF010D900020E9F78D0116
:100F80000150110905501140842F0E94FC12019755
:100F900019F461E3762E02C050E3752EE12CF12C9A
:100FA000C12CD12C80E090E0F80131974F0121E075
:100FB00030E02C0F3D1F2E0F3F1F26963FAF2EAF68
:100FC00026975C013FEFA31AB30AFC01EB5FFE4FCB
:100FD0004081552747FD509540535109B201C10149
:100FE0000E94EA06F501EB5FFE4F8081811102C08D
:100FF000A12CB12C24968FAD24970E94FC1201974E
:1010000011F421E301C020E381E090E0271102C048
:1010100080E090E0C80ED91EE016F10644F4E1E04D
:10102000F0E0EC0FFD1FEE0DFF1D208313C0A401A7
:10103000BE016E5F7F4FCE01019627962FAF279797
:101040000E94DD2627962FAD27972696AEADBFAD21
:1010500026972C93F70131963F01E814F904D4F058
:10106000A801BE016F5F7F4F85E091E027962FAF0B
:1010700027970E94C72627962FAD2797892B51F4D3
:10108000601A710A2396AEADBFAD23976D927C9224
:1010900081E013C07301B0E86B16710419F0722E71
:1010A000C5018FCF2396EEADFFAD2397118210823D
:1010B000F2E0CF16D1041CF480E090E001C0C6013C
:1010C000CA5BDF4F0FB6F894DEBF0FBECDBFDF9116
:1010D000CF911F910F91FF90EF90DF90CF90BF9035
:1010E000AF909F908F907F906F905F904F903F90C8
:1010F0002F90089560E072EC83E394E00C947317F2
:101100000F931F93CF93DF93EC01162F042F888149
:101110008823B1F080912804882321F082E390E0B5
:101120000E94F31160E0812F0E94C6126991605302
:10113000802F0E94C61261E0812F0E94C612E7CF65
:10114000DF91CF911F910F910895CF93DF93C82F17
:10115000D62F80912804882321F082E390E00E941A
:10116000F31160E08C2F0E94C6128D2F0E94FC129A
:10117000D82F61E08C2F0E94C6128D2FDF91CF9166
:101180000895AF92BF92CF92DF92EF92FF920F93AA
:101190001F93CF93DF937C016B015A018901C9E54D
:1011A000D1E060E088810E948D1280910001882347
:1011B00021F061E088810E94C612219681E0C33649
:1011C000D80779F78FEFE816F80621F061E08E2D49
:1011D0000E948D128FEFC816D80621F061E08C2D89
:1011E0000E948D128FEFA816B80621F061E08A2DBB
:1011F0000E948D120F3F8FEF180791F061E0802F52
:101200000E948D1261E0802FDF91CF911F910F918D
:10121000FF90EF90DF90CF90BF90AF900C94C612EC
:10122000DF91CF911F910F91FF90EF90DF90CF90C2
:10123000BF90AF900895AF92BF92CF92DF92EF929E
:10124000FF920F931F93CF93DF937C018B01B42EFA
:10125000A52E690185E991E00E948008C0E0D0E0F8
:1012600080912804882321F082E390E00E94F3110A
:10127000C430D10521F461E08B2D0E94C612D70144
:10128000ED917D014E2F552747FD50954053510953
:10129000B601C8010E94EA062196C530D10501F7C2
:1012A0004B2D5A2DB8018BE991E0DF91CF911F9121
:1012B0000F91FF90EF90DF90CF90BF90AF900C9484
:1012C0008008CF93DF93009761F0FC016491EF01F8
:1012D0002196662331F083E394E00E94BF13FE0160
:1012E000F5CFDF91CF91089587E69AE00E946109DA
:1012F00065E071E083E394E00E94BD1380E394E035
:101300000C9461090F931F93CF93DF9360EA71E010
:1013100083E394E00E94BD13C0E0D0E083E394E057
:101320000E94A0168E32D1F02CF48A30B9F08D30A4
:10133000A9F714C090ED980F923080F7CF33D10504
:101340006CF78E010F5F1F4FCB5FDE4F8883682FD6
:1013500083E394E00E94BF13E801E0CFCB5FDE4F50
:10136000188283E394E00E94D01366EE71E083E379
:1013700094E00E94BD1365E071E083E394E00E9475
:10138000BD1368EF71E083E394E0DF91CF911F918B
:101390000F910C9408142F923F924F925F926F928C
:1013A0007F928F929F92AF92BF92CF92DF92EF92F5
:1013B000FF920F931F93CF93DF93CDB7DEB7AC9718
:1013C0000FB6F894DEBF0FBECDBF83E394E00E945A
:1013D0007C16892B09F44FC765E070E080E090E04F
:1013E0000E94CD114EE0E42E44E0F42E00E010E027
:1013F00083E394E00E947C16892B21F003311105D0
:1014000009F02FC783E394E00E94E916F801E25F38
:10141000FB4F10826EE074E083E394E00E940814B6
:101420006AE873E08EE094E00E94FA26892B49F086
:1014300069E173E08EE094E00E94FA26892B09F0BE
:1014400005C183EF93E00E94610965E071E083E3E9
:1014500094E00E940814E12CF12C39E5232E31E0B0
:10146000332E412C512C9701275A3E4F38A72FA3DA
:101470004E145F0459F42FEF421A520A3FEF231A19
:10148000330A8AE04816510499F7D5C0E9E5F1E03E
:10149000FAA3E9A3A12CB12CAE14BF0471F4FFEFA1
:1014A000AF1ABF0A29A13AA12F5F3F4F3AA329A340
:1014B0003AE0A316B10481F7DECFA414B50479F3A2
:1014C000C12CD12CCE14DF0441F48FEFC81AD80AF6
:1014D0009AE0C916D104B1F7E2CFC414D504A9F338
:1014E000CA14DB0491F3E9E5F1E0FCA3EBA3812C42
:1014F000912C9601275A3E4F3EA32DA38E149F0494
:1015000009F48BC08414950409F487C08A149B04E1
:1015100009F483C08C149D0409F47FC080912904D0
:10152000882369F087019401A601B501C2010E94D8
:1015300016076BE372E083E394E00E94BD13EFA112
:10154000F8A5208130E0EBA1FCA1408150E0E9A1A9
:10155000FAA1608170E0F101808190E00E94C108F1
:10156000E9A1FAA1408150E0F101608170E085E9D4
:1015700091E00E948008EDA1FEA1408150E0EBA126
:10158000FCA1608170E0F10180819E012F5F3F4FDF
:1015900090E00E9495073C0181309105C1F46FE312
:1015A00072E083E394E00E94BD1387019401A601D9
:1015B000B501C2010E94160767E472E083E394E07C
:1015C0000E94BD1369817A814AE050E019C08230DF
:1015D0009105DCF064E572E083E394E00E94BD13C2
:1015E00087019401A601B501C2010E9416076CE5AE
:1015F00072E083E394E00E94BD134AE050E0B3013F
:1016000083E394E00E94E91408C0809129048823B0
:1016100021F083E394E00E94D0133FEF831A930AF2
:101620008BA19CA101969CA38BA39AE0891691049F
:1016300009F064CF4ACFEFEFEE1AFE0AFAE0EF1698
:10164000F10409F00ACF80ED93E0B3C26BE672E0DB
:101650008EE094E00E94FA26892B41F06FED72E053
:101660008EE094E00E94FA26892B89F520915D0195
:1016700030E040915C0150E060915A0170E080914F
:10168000590190E00E94C10840915A0150E06091D8
:10169000590170E085E991E00E94800840915B016A
:1016A00050E060915C0170E0809159012CE034E0E1
:1016B00090E00E949507892B19F06FE772E002C055
:1016C00066E972E083E394E00E940814C3C567EA08
:1016D00072E08EE094E00E94FA26892B41F066E7E2
:1016E00073E08EE094E00E94FA26892B19F40E94A0
:1016F0008209B0C563EB72E08EE094E00E94FA26A6
:10170000892B49F062EC72E08EE094E00E94FA26A8
:10171000892B09F0DAC081E993E00E94610925E490
:10172000C22E21E0D22E00E010E089E5882E81E073
:10173000982E95E4E92E91E0F92EA12CB12CF80118
:10174000E75AFE4F3F01A016B10609F4A4C08091EC
:101750002904882301F169E871E083E394E00E94A1
:10176000BD13F6016081718183E394E00E94BD1393
:101770006FE871E083E394E00E94BD13F70160819C
:10178000718183E394E00E94BD136BE372E083E315
:1017900094E00E94BD13F401408150E02FEF3FEF31
:1017A0006FEF7FEF8FEF9FEF0E94C108F301408141
:1017B00050E0F401608170E09E012F5F3F4F8FEF9A
:1017C0009FEF0E9495072C018130910559F56FE339
:1017D00072E083E394E00E94BD1369E871E083E363
:1017E00094E00E94BD13F6016081718183E394E06F
:1017F0000E94BD136FE871E083E394E00E94BD1383
:10180000F7016081718183E394E00E94BD1364EC71
:1018100072E083E394E00E94BD1369817A814AE01B
:1018200050E02CC08230910574F164E572E083E3EE
:1018300094E00E94BD1369E871E083E394E00E94A4
:10184000BD13F6016081718183E394E00E94BD13B2
:101850006FE871E083E394E00E94BD13F7016081BB
:10186000718183E394E00E94BD136CE572E083E331
:1018700094E00E94BD134AE050E0B20183E394E09B
:101880000E94E91408C080912904882321F083E391
:1018900094E00E94D013FFEFAF1ABF0A22E0E20EDD
:1018A000F11C3FEF831A930A8AE0A816B10409F0ED
:1018B0004ACF0F5F1F4F92E0C90ED11C0A301105AD
:1018C00009F033CF8EE693E074C16DEC72E08EE0E8
:1018D00094E00E94FA26892B49F069ED72E08EE0CF
:1018E00094E00E94FA26892B09F066C18EE293E00B
:1018F0000E946109E12CF12C89E591E09AA389A36A
:10190000412C512CF701E75AFE4FFAA7E9A74E14D4
:101910005F0471F4FFEF4F1A5F0A29A13AA12F5F0C
:101920003F4F3AA329A33AE04316510481F737C148
:1019300089E591E09CA38BA3A12CB12CAE14BF042C
:1019400069F49FEFA91AB90AEBA1FCA13196FCA397
:10195000EBA3FAE0AF16B10489F7DCCFA414B50409
:1019600081F3C12CD12CCE14DF0441F42FEFC21A25
:10197000D20A3AE0C316D104B1F7E3CFC414D504B8
:10198000A9F3CA14DB0491F389E591E09EA38DA32A
:10199000612C712CF601E75AFE4FF8A7EFA36E14E5
:1019A0007F0471F4FFEF6F1A7F0A2DA13EA12F5F14
:1019B0003F4F3EA32DA33AE06316710481F7D6CFC3
:1019C0006414750479F36A147B0461F36C147D0468
:1019D00049F380912904882369F087019301A601C6
:1019E000B501C2010E9416076BE372E083E394E045
:1019F0000E94BD13E9A5FAA5208130E0EDA1FEA16A
:101A0000408150E0EBA1FCA1608170E0E9A1FAA166
:101A1000808190E00E94C108EBA1FCA1408150E0D0
:101A2000E9A1FAA1608170E08BED92E00E9480084C
:101A3000EBA1FCA1408150E0E9A1FAA1608170E036
:101A400081EE92E00E9480088E010F5F1F4F212CD3
:101A5000312CF8011082118212821382812C912C78
:101A6000EDA1FEA1608170E0E9A1FAA1808140E0D2
:101A700050E090E00E94EA06EFA1F8A580810E9464
:101A8000FC129C010097C9F0F801408151816281EC
:101A9000738181E090E0A0E0B0E0082C04C0880FE2
:101AA000991FAA1FBB1F0A94D2F7482B592B6A2BE8
:101AB0007B2B408351836283738380912904882325
:101AC00039F04AE050E0B90183E394E00E94E11468
:101AD000FFEF8F1A9F0A20E28216910409F6809187
:101AE0002904882389F06DE372E083E394E00E9487
:101AF000BD13F801408151816281738120E130E0A2
:101B000083E394E00E945A15F80181919191A1918B
:101B1000B1918F0180FF0EC08F3F9F4FAF4FBF4FDE
:101B200049F02FEF221A320A38E02316310409F067
:101B300090CF04C02114310409F434CF87019301FC
:101B4000A601B501C2010E9416076BEE72E083E3A5
:101B500094E00E94BD134AE050E0B10183E394E0B9
:101B60000E94E914CE0101964C0100E010E066EFFE
:101B700072E083E394E00E94BD13F401419151911E
:101B8000619171914F0120E130E083E394E00E9484
:101B90005A150F5F1F4F021513054CF303CFFFEFCC
:101BA000EF1AFF0A2AE0E216F10409F0A5CE8BE055
:101BB00093E00E9461094EC36AEF72E08EE094E008
:101BC0000E94FA26892B49F066E073E08EE094E0EB
:101BD0000E94FA26892B09F01CC18FE292E00E9434
:101BE0006109A9E54A2EA1E05A2EB5E4AB2EB1E079
:101BF000BB2EC12CD12C79E5272E71E0372EE5E4E0
:101C00006E2EE1E07E2EE12CF12CEC14FD0471F43B
:101C1000FFEFEF1AFF0A22E0620E711C3FEF231A5A
:101C2000330A8AE0E816F10481F7E2C0F5E48F2E6A
:101C3000F1E09F2E00E010E00C151D0509F4CEC068
:101C40000E151F0509F4CAC080912904882369F183
:101C50006DE771E083E394E00E94BD13F5016081BC
:101C6000718183E394E00E94BD136FE871E083E328
:101C700094E00E94BD13F3016081718183E394E0DD
:101C80000E94BD1369E871E083E394E00E94BD13F4
:101C9000F4016081718183E394E00E94BD136BE3E2
:101CA00072E083E394E00E94BD13F101408150E0B3
:101CB000F20180812FEF3FEF6FEF7FEF90E00E9406
:101CC000C108F801E75AFE4F408150E0F101608100
:101CD00070E0F20180819E012F5F3F4F90E00E94F3
:101CE00095079C018130910571F56FE372E083E304
:101CF00094E00E94BD136DE771E083E394E00E94DD
:101D0000BD13F5016081718183E394E00E94BD13EE
:101D100069E871E083E394E00E94BD13F4016081FF
:101D2000718183E394E00E94BD136FE871E083E367
:101D300094E00E94BD13F3016081718183E394E01C
:101D40000E9408144BC0823091050CF43FC064E53A
:101D500072E083E394E02BA73CA70E94BD136DE7DC
:101D600071E083E394E00E94BD13F501608171810D
:101D700083E394E00E94BD1369E871E083E394E09B
:101D80000E94BD13F4016081718183E394E00E949D
:101D9000BD136FE871E083E394E00E94BD13F3018B
:101DA0006081718183E394E00E94BD136CE572E071
:101DB00083E394E00E94BD134AE050E02BA53CA5CC
:101DC000B90183E394E00E94E91408C080912904DA
:101DD000882321F083E394E00E94D0130F5F1F4F0C
:101DE000F2E08F0E911C0A30110509F025CF10CFBB
:101DF0002FEFC21AD20A32E0A30EB11C8FEF481A9D
:101E0000580A9AE0C916D10409F0F5CE8CE092E0A8
:101E1000D0CE68E073E08EE094E00E94FA26892B31
:101E200049F068EF72E08EE094E00E94FA26892B78
:101E300009F05FC066E173E083E394E00E94BD13A4
:101E400004E010E023E030E042E050E061E070E0C8
:101E500080E090E00E94160783E394E00E94D01394
:101E600080905D01912CA0905B01B12CC0905C0131
:101E7000D12C00915A0110E0E0905901F12C85EC31
:101E800091E00E9461099401A601B801C7010E9476
:101E9000C1089601A801B70185EE92E00E941B09D6
:101EA00000E010E0B501C7010E94A5084AE050E03B
:101EB000682F83E394E00E942015C8018F71992751
:101EC0004F9731F46DE372E083E394E00E94BD1319
:101ED000C8018F7799278F37910521F483E394E028
:101EE0000E94D0130F5F1F4F063CE7E01E07D1F69C
:101EF000B1C16BE173E08EE094E00E94FA26892B79
:101F000049F064E473E08EE094E00E94FA26892BA5
:101F100009F0BBC000915D0110E080915B01282FAA
:101F200030E03AA329A3A0905C01B12C80905A0123
:101F3000912CC0905901D12C88EC90E00E9461094D
:101F40004AE050E065E070E083E394E00E94E91429
:101F50009801A501B401C6010E94C108412C512C71
:101F60003201E2E2F4E080E090E0B301A201082E49
:101F700004C076956795579547950A94D2F74170B6
:101F8000405D419301968530910579F710922704C1
:101F90009501A401B60182E294E00E941B0969A1A7
:101FA0007AA1C6010E94A508282EE12CF12C00E0A0
:101FB00010E069A17AA1C6010E94A508382E8215F9
:101FC00019F00F5F1F4F07C00115110521F4809113
:101FD00029048823E1F04AE050E0622D83E394E095
:101FE0000E942015C7018F7099270F9731F46DE378
:101FF00072E083E394E00E94BD13C7018F779927B5
:102000008F37910521F483E394E00E94D0133FEFD2
:10201000E31AF30A81E6E81687E0F80611F0232CAC
:10202000C8CF0115110521F480912904882301F1FD
:102030004AE050E0632D83E394E00E94201562E2C1
:1020400073E083E394E00E94BD1362E274E083E3F3
:1020500094E00E94BD1367E273E083E394E00E9482
:10206000BD134AE050E0B80183E394E00E94E91414
:102070009FEF491A590A690A790AE0E24E1651049B
:102080006104710409F06DCFE5C066E373E08EE092
:1020900094E00E94FA26892B41F06EE373E08EE013
:1020A00094E00E94FA26892B69F480912904809596
:1020B00080932904882319F06AEF71E003CB65E06F
:1020C00072E000CB60E473E08EE094E00E94FA26B8
:1020D000892B41F068E873E08EE094E00E94FA26D4
:1020E000892B69F4809128048095809328048823A3
:1020F00019F061E172E0E6CA6AE172E0E3CA66E4FF
:1021000073E08EE094E00E94FA26892B41F06CE4A3
:1021100073E08EE094E00E94FA26892B11F56EE4BC
:1021200073E083E394E00E94BD13809101019091DC
:102130000201A0910301B0910401893EF3E09F07E1
:10214000A105B1052CF0885E9340A109B10936C004
:102150000097A105B105D1F184569109A109B109F2
:102160002DC063E673E08EE094E00E94FA26892B8E
:1021700041F069E673E08EE094E00E94FA26892B34
:10218000A1F56EE473E083E394E00E94BD138091B7
:10219000010190910201A0910301B0910401883ED8
:1021A00023E09207A105B1052CF48C599F4FAF4F46
:1021B000BF4F04C088519C4FAF4FBF4F8093010168
:1021C00090930201A0930301B09304014091010197
:1021D0005091020160910301709104012AE030E006
:1021E00083E394E00E94011535C06BE673E08EE056
:1021F00094E00E94FA26892B41F064E972E08EE0B7
:1022000094E00E94FA26892B69F480910001809560
:1022100080930001882319F064E272E053CA6FE2F0
:1022200072E050CA63E773E08EE094E00E94FA2601
:10223000892B71F068E773E08EE094E00E94FA2643
:10224000892B31F06AE773E083E394E00E9408147D
:102250000E94740962EE71E083E394E00E94BD1372
:102260000AC00F5F1F4F83E394E00E94A016F7019E
:1022700081937F01BDC8AC960FB6F894DEBF0FBE48
:10228000CDBFDF91CF911F910F91FF90EF90DF9025
:10229000CF90BF90AF909F908F907F906F905F9006
:1022A0004F903F902F9008951F920F920FB60F926C
:1022B00011242F933F938F939F93AF93BF9380915C
:1022C0002B0490912C04A0912D04B0912E043091F8
:1022D0002A0423E0230F2D3720F40196A11DB11D00
:1022E00005C026E8230F0296A11DB11D20932A04E4
:1022F00080932B0490932C04A0932D04B0932E0470
:1023000080912F0490913004A0913104B091320457
:102310000196A11DB11D80932F0490933004A093CA
:102320003104B0933204BF91AF919F918F913F914F
:102330002F910F900FBE0F901F9018952FB7F89404
:1023400060912B0470912C0480912D0490912E04A7
:102350002FBF08953FB7F89480912F0490913004D7
:10236000A0913104B091320426B5A89B05C02F3F3F
:1023700019F00196A11DB11D3FBF6627782F892F47
:102380009A2F620F711D811D911D42E0660F771F0C
:10239000881F991F4A95D1F70895CF92DF92EF9247
:1023A000FF92CF93DF936B017C010E94AA11EB0196
:1023B000C114D104E104F10479F00E94AA116C1B4C
:1023C0007D0B683E7340A0F381E0C81AD108E10894
:1023D000F108C851DC4FECCFDF91CF91FF90EF9027
:1023E000DF90CF9008950197009739F0880F991FDB
:1023F000880F991F02970197F1F70895789484B593
:10240000826084BD84B5816084BD85B5826085BDF0
:1024100085B5816085BDEEE6F0E0808181608083D6
:10242000E1E8F0E0108280818260808380818160B9
:102430008083E0E8F0E0808181608083E1E9F0E082
:10244000808182608083808181608083E0E9F0E028
:10245000808181608083E1ECF0E080818460808312
:10246000808182608083808181608083E3ECF0E002
:10247000808181608083E0ECF0E0808182608083F5
:10248000E2ECF0E0808181608083EAE7F0E0808127
:10249000846080838081826080838081816080838A
:1024A000808180688083089590E0FC013197EE3050
:1024B000F10590F5EA5AFF4F0C94372A809180007D
:1024C0008F7703C0809180008F7D80938000089576
:1024D00084B58F7702C084B58F7D84BD08958091C7
:1024E00090008F7707C0809190008F7D03C080910E
:1024F0009000877F8093900008958091C0008F772F
:1025000003C08091C0008F7D8093C00008958091AA
:10251000C200877F8093C2000895CF93DF9390E03D
:10252000FC01E259F44F2491FC01E457F44F8491EB
:10253000882349F190E0880F991FFC01EA53F44F7A
:10254000A591B4918854944FFC01C591D4919FB743
:10255000611108C0F8948C91209582238C93888116
:1025600082230AC0623051F4F8948C91322F309556
:1025700083238C938881822B888304C0F8948C9168
:10258000822B8C939FBFDF91CF9108950F931F9360
:10259000CF93DF931F92CDB7DEB7282F30E0F9013C
:1025A000E05BF44F8491F901E259F44F1491F90181
:1025B000E457F44F04910023C9F0882321F0698384
:1025C0000E9454126981E02FF0E0EE0FFF1FE854E3
:1025D000F44FA591B4919FB7F8948C91611103C009
:1025E0001095812301C0812B8C939FBF0F90DF91A9
:1025F000CF911F910F910895CF93DF93282F30E053
:10260000F901E05BF44F8491F901E259F44FD49160
:10261000F901E457F44FC491CC2391F081110E9449
:102620005412EC2FF0E0EE0FFF1FE655F44FA5918A
:10263000B4912C912D2381E090E021F480E002C040
:1026400080E090E0DF91CF910895CF92DF92EF92FA
:10265000FF920F931F93CF93DF936C017A01EB01ED
:10266000E60EF71E00E010E0CE15DF0561F069917F
:10267000D601ED91FC910190F081E02DC601099504
:10268000080F191FF1CFC801DF91CF911F910F9152
:10269000FF90EF90DF90CF9008956115710581F064
:1026A000DB010D900020E9F7AD0141505109461BB7
:1026B000570BDC01ED91FC910280F381E02D099430
:1026C00080E090E00895EF92FF920F931F93CF93D5
:1026D000DF938C01FB01C0E0D0E064917F018FEFBC
:1026E000E81AF80A662361F0D801ED91FC91019097
:1026F000F081E02DC8010995C80FD91FF701EDCF72
:10270000CE01DF91CF911F910F91FF90EF9008952F
:10271000AF92BF92CF92DF92EF92FF920F931F93EF
:10272000CF93DF937C016B01C0E0D0E000E010E0CC
:10273000D60114968D919C911597C817D90788F4E6
:10274000D701ED91FC91A080B180BE01C6010E942D
:10275000701C682FC701F5010995080F191F2196F4
:10276000E7CFC801DF91CF911F910F91FF90EF90BC
:10277000DF90CF90BF90AF9008950C944D13DC0183
:10278000ED91FC910190F081E02D0994DB01ED9138
:10279000FC9111970190F081E02DBC01CD010994CD
:1027A0000F931F93CF93DF93EC016DE00E94BF1353
:1027B0008C016AE0CE010E94BF13800F911FDF9150
:1027C000CF911F910F9108950F931F93CF93DF9394
:1027D000EC010E9463138C01CE010E94D013800F84
:1027E000911FDF91CF911F910F9108950F931F9328
:1027F000CF93DF93EC010E9488138C01CE010E94DD
:10280000D013800F911FDF91CF911F910F910895E9
:102810000F931F93CF93DF93EC010E944D138C0114
:10282000CE010E94D013800F911FDF91CF911F9195
:102830000F9108950F931F93CF93DF93EC010E94A4
:10284000BF138C01CE010E94D013800F911FDF9126
:10285000CF911F910F9108950F931F93CF93DF9303
:10286000EC010E94C6138C01CE010E94D013800F90
:10287000911FDF91CF911F910F9108958F929F9299
:10288000AF92BF92CF92DF92EF92FF920F931F937E
:10289000CF93DF93CDB7DEB7A1970FB6F894DEBF25
:1028A0000FBECDBF7C01C42EE52FCB01D22E19A2C5
:1028B00021E02D1510F02AE0D22E8E010F5D1F4F62
:1028C0008D2C912CA12CB12C6C2D7E2FA501940167
:1028D0000E94152A8C2DD29E8019112401501109B5
:1028E0008A3014F4805D01C0895CF8018083211571
:1028F00031054105510521F0C22EE32FCA01E4CF75
:10290000B801C7010E944D13A1960FB6F894DEBF1F
:102910000FBECDBFDF91CF911F910F91FF90EF9030
:10292000DF90CF90BF90AF909F908F900895CF92FF
:10293000DF92EF92FF920F931F93CF93DF93EC01FF
:102940006A017B012115310579F4E881F981019053
:10295000F081E02D642FDF91CF911F910F91FF90B7
:10296000EF90DF90CF9009942A303105E9F477FF9A
:102970001AC06DE20E94BF138C0144275527BA018B
:102980004C195D096E097F092AE0CE010E943E14B0
:10299000800F911FDF91CF911F910F91FF90EF90CA
:1029A000DF90CF9008952AE0B701A601CE01DF9114
:1029B000CF911F910F91FF90EF90DF90CF900C94EB
:1029C0003E149A01AB01662757FD6095762F0C9453
:1029D00097140F931F93CF93DF93EC019A01AB01F0
:1029E000662757FD6095762F0E9497148C01CE01C3
:1029F0000E94D013800F911FDF91CF911F910F91F3
:102A000008950F931F93CF93DF93EC010E949714C7
:102A10008C01CE010E94D013800F911FDF91CF91C6
:102A20001F910F9108952115310541F4DC01ED91BD
:102A3000FC910190F081E02D642F09940C943E14D8
:102A40009A01462F50E060E070E00C9413150F934C
:102A50001F93CF93DF93EC019A01462F50E060E083
:102A600070E00E9413158C01CE010E94D013800FDC
:102A7000911FDF91CF911F910F9108959A01AB01A2
:102A800060E070E00C9413150F931F93CF93DF93C6
:102A9000EC019A01AB0160E070E00E9413158C011B
:102AA000CE010E94D013800F911FDF91CF911F9113
:102AB0000F9108950F931F93CF93DF93EC010E9422
:102AC00013158C01CE010E94D013800F911FDF914E
:102AD000CF911F910F9108954F925F926F927F92C5
:102AE0008F929F92AF92BF92CF92DF92EF92FF921E
:102AF0000F931F93CF93DF93EC016A017B01B22EFA
:102B00009A01AB01C701B6010E94FE29882319F082
:102B100065ED73E027C026013701E89477F82FEFC1
:102B20003FEF4FE75FE7C301B2010E94FE29811129
:102B30000DC02FEF3FEF4FE75FE7C301B2010E94E7
:102B4000482818161CF469ED73E00CC02FEF3FEF16
:102B50004FE75FE4C701B6010E9497291816ACF44D
:102B60006DED73E0CE01DF91CF911F910F91FF903A
:102B7000EF90DF90CF90BF90AF909F908F907F901D
:102B80006F905F904F900C944D132FEF3FEF4FE7F6
:102B90005FECC701B6010E94482887FDE1CF20E025
:102BA00030E0A901C701B6010E94482887FF0AC08A
:102BB0006DE2CE010E94BF138C01F7FAF094F7F892
:102BC000F09402C000E010E0A12C60E070E080E032
:102BD0009FE3AB1441F020E030E040E251E40E947A
:102BE0004C28A394F6CF9B01AC01C701B6010E940B
:102BF000E4276B017C010E94B9282B013C010E9453
:102C0000E5289B01AC01C701B6010E94E3276B01D7
:102C10007C012AE0B301A201CE010E943E14080FFC
:102C2000191FBB2039F061EE73E0CE010E944D13F5
:102C3000080F191F7B2C772041F120E030E040E2A3
:102C400051E4C701B6010E949B296B017C010E94DF
:102C5000B4284B01AA2497FCA094BA2C2AE030E0B7
:102C6000B501A401CE010E949714080F191FC501D8
:102C7000B4010E94E7289B01AC01C701B6010E9484
:102C8000E3276B017C017A94D6CFC801DF91CF9105
:102C90001F910F91FF90EF90DF90CF90BF90AF907A
:102CA0009F908F907F906F905F904F9008950C94BD
:102CB0006C150F931F93CF93DF93EC010E946C155B
:102CC0008C01CE010E94D013800F911FDF91CF9114
:102CD0001F910F9108950E94FE1186E894E00E94D2
:102CE00053220E947A08C0E0D0E00E94CB092097CE
:102CF000E1F30E940000F9CF809181049091820459
:102D00002091830430918404821B930B8F73992745
:102D100008952091810430918204809183049091E0
:102D200084042817390749F0E0918304F091840462
:102D3000EF5BFB4F808190E008958FEF9FEF089548
:102D400020918104309182048091830490918404C5
:102D500028173907A9F0E0918304F0918404EF5B10
:102D6000FB4F808120918304309184042F5F3F4F7B
:102D70002F733327309384042093830490E00895C5
:102D80008FEF9FEF0895CF93DF93C0918104D0918F
:102D900082042196CF73DD2780918304909184046F
:102DA000C817D90799F082E00E94D31F8F3F2FEFF9
:102DB000920761F0E0918104F0918204EF5BFB4F98
:102DC0008083D0938204C0938104DFCFDF91CF91C1
:102DD000089583E00C9437220F931F93CF93DF93D2
:102DE0001F92CDB7DEB78C01698380916C01882377
:102DF00059F041E050E0BE016F5F7F4F83E00E94D9
:102E00000420181619063CF081E090E0F801938345
:102E1000828380E090E00F90DF91CF911F910F911E
:102E20000895FC0120812E5F208342E450E064ED90
:102E30007BE080E80C949F20FC0181819081913A95
:102E400059F4813209F04BC047E050E065E671E08B
:102E500080E00E949F2045C0913209F040C080323E
:102E600039F467E070E085E691E00E94E32039C024
:102E7000823209F034C0828180936C0180916501B7
:102E800090916601A0916701B0916801803B9440E8
:102E9000A105B10531F580916C0180FD12C087E775
:102EA00097E790930108809300082BE088E190E079
:102EB0000FB6F894A895809360000FBE2093600031
:102EC00010C088E10FB6F894809360001092600003
:102ED0000FBEA895109201081092000802C080E071
:102EE000089581E0089508950895CF93C0916C01ED
:102EF0006AE070E080E090E00E94CD1181E0C111B5
:102F000001C080E0CF9108951092360410923504EC
:102F100088EE93E0A0E0B0E080933704909338040B
:102F2000A0933904B0933A048FEE93E09093340465
:102F30008093330408950C94C2230C94C2230C9400
:102F40005A240C945A24FC0181E090E02081222331
:102F500011F080E090E0089521E0FC0120830895C5
:102F6000089508950C944C270C9462270C94BE2766
:102F70000C949127FC01808191810C945A24CF9369
:102F8000DF93EC0188819981009711F00E945A2407
:102F9000198218821D821C821B821A82DF91CF91B6
:102FA00008950F931F93CF93DF93EC018B016F5F15
:102FB0007F4F888199810E94D922009731F09983AF
:102FC00088831B830A8381E001C080E0DF91CF9179
:102FD0001F910F910895CF93DF93EC018881998120
:102FE000892B29F08A819B818617970760F4CE018F
:102FF0000E94D117882341F08C819D81892B19F47F
:10300000E881F981108281E0DF91CF910895EF92FC
:10301000FF920F931F93CF93DF93EC017B018A0103
:10302000BA010E94EB17811104C0CE010E94BF17A4
:1030300007C01D830C83B701888199810E940327F3
:10304000CE01DF91CF911F910F91FF90EF900895E6
:10305000FC01118210821382128215821482168260
:103060006115710559F0FB0101900020E9F7AF01EE
:1030700041505109461B570B0C9407180895CF93E4
:10308000DF93EC01FB018617970761F06081718186
:103090006115710529F0448155810E94071802C00D
:1030A0000E94BF17CE01DF91CF910895FC011182DC
:1030B0001082138212821582148216820C943F1899
:1030C000CF93DF93EC016115710561F0FB01019075
:1030D0000020E9F7AF0141505109461B570B0E94F0
:1030E000071802C00E94BF17CE01DF91CF9108954B
:1030F000CF93DF9300D0CDB7DEB7FC0111821082F1
:103100001382128215821482168269831A82BE018A
:103110006F5F7F4F0E9460180F900F90DF91CF91EB
:1031200008950F931F93CF93DF93CDB7DEB7299701
:103130000FB6F894DEBF0FBECDBF8C01862FF8010D
:10314000118210821382128215821482168250E03C
:10315000BE016F5F7F4F90E00E94BE27BE016F5F90
:103160007F4FC8010E94601829960FB6F894DEBF01
:103170000FBECDBFDF91CF911F910F9108950F9397
:103180001F93CF93DF93CDB7DEB762970FB6F89456
:10319000DEBF0FBECDBF8C01CB01F80111821082C2
:1031A0001382128215821482168250E0BE016F5F74
:1031B0007F4F0E944C27BE016F5F7F4FC8010E9466
:1031C000601862960FB6F894DEBF0FBECDBFDF91D8
:1031D000CF911F910F9108950F931F93CF93DF937A
:1031E000CDB7DEB761970FB6F894DEBF0FBECDBF87
:1031F0008C01CB01F8011182108213821282158298
:103200001482168250E0BE016F5F7F4F0E94BE277E
:10321000BE016F5F7F4FC8010E94601861960FB6B4
:10322000F894DEBF0FBECDBFDF91CF911F910F91FC
:1032300008950F931F93CF93DF93CDB7DEB7A29777
:103240000FB6F894DEBF0FBECDBF8C01CB01BA0123
:10325000F801118210821382128215821482168262
:1032600030E0AE014F5F5F4F0E946227BE016F5F8B
:103270007F4FC8010E946018A2960FB6F894DEBF77
:103280000FBECDBFDF91CF911F910F9108950F9386
:103290001F93CF93DF93CDB7DEB7A1970FB6F89406
:1032A000DEBF0FBECDBF8C01CB01BA01F801118288
:1032B00010821382128215821482168230E0AE01CF
:1032C0004F5F5F4F0E949127BE016F5F7F4FC80124
:1032D0000E946018A1960FB6F894DEBF0FBECDBF56
:1032E000DF91CF911F910F910895EF92FF920F936D
:1032F0001F93CF93DF93EC017B010C811D8161153E
:10330000710511F480E016C04115510591F0040FCC
:10331000151FB8010E94EB178823A1F3288139817A
:103320008C819D81B701820F931F0E9403271D830B
:103330000C8381E0DF91CF911F910F91FF90EF906F
:103340000895FB0144815581608171810C94751948
:103350006115710559F0FB0101900020E9F7AF01FB
:1033600041505109461B570B0C94751980E0089584
:10337000CF93DF9300D0CDB7DEB769831A8241E0E7
:1033800050E0BE016F5F7F4F0E9475190F900F9044
:10339000DF91CF910895EF92FF920F931F93CF93F8
:1033A000DF9300D000D0CDB7DEB77C01862F4AE096
:1033B00050E08E010F5F1F4FB80190E00E944C2734
:1033C000F80101900020E9F7AF0141505109401B7D
:1033D000510BB801C7010E9475190F900F900F9003
:1033E0000F90DF91CF911F910F91FF90EF90089573
:1033F000EF92FF920F931F93CF93DF93CDB7DEB77A
:1034000027970FB6F894DEBF0FBECDBF7C01CB016E
:103410004AE050E08E010F5F1F4FB8010E944C2719
:10342000F80101900020E9F7AF0141505109401B1C
:10343000510BB801C7010E94751927960FB6F89471
:10344000DEBF0FBECDBFDF91CF911F910F91FF90D7
:10345000EF900895EF92FF920F931F93CF93DF9316
:1034600000D000D000D0CDB7DEB77C01CB014AE060
:1034700050E08E010F5F1F4FB8010E94BE27F80178
:1034800001900020E9F7AF0141505109401B510B59
:10349000B801C7010E94751926960FB6F894DEBFD1
:1034A0000FBECDBFDF91CF911F910F91FF90EF9095
:1034B0000895EF92FF920F931F93CF93DF93CDB7B1
:1034C000DEB72C970FB6F894DEBF0FBECDBF7C01E0
:1034D000CB01BA012AE030E08E010F5F1F4FA80137
:1034E0000E946227F80101900020E9F7AF014150E6
:1034F0005109401B510BB801C7010E9475192C9648
:103500000FB6F894DEBF0FBECDBFDF91CF911F91F4
:103510000F91FF90EF900895EF92FF920F931F93FA
:10352000CF93DF93CDB7DEB72B970FB6F894DEBFFE
:103530000FBECDBF7C01CB01BA012AE030E08E0185
:103540000F5F1F4FA8010E949127F80101900020F2
:10355000E9F7AF0141505109401B510BB801C701B8
:103560000E9475192B960FB6F894DEBF0FBECDBF23
:10357000DF91CF911F910F91FF90EF900895CF931E
:10358000DF93EC01FB0144815581608171810E94D0
:103590007519811103C0CE010E94BF17CE01DF91C2
:1035A000CF910895CF93DF93EC016115710569F018
:1035B000FB0101900020E9F7AF0141505109461B82
:1035C000570B0E947519811103C0CE010E94BF17CD
:1035D000CE01DF91CF910895CF93DF93EC010E944C
:1035E000B819811103C0CE010E94BF17CE01DF912F
:1035F000CF910895CF93DF93EC010E94CB198111F5
:1036000003C0CE010E94BF17CE01DF91CF91089574
:10361000CF93DF93EC010E94F819811103C0CE0112
:103620000E94BF17CE01DF91CF910895CF93DF9312
:10363000EC010E942A1A811103C0CE010E94BF171B
:10364000CE01DF91CF910895CF93DF93EC010E94DB
:10365000591A811103C0CE010E94BF17CE01DF911C
:10366000CF910895CF93DF93EC010E948C1A8111C2
:1036700003C0CE010E94BF17CE01DF91CF91089504
:10368000CF93DF93DC01ED91FC91EB01A881B9812F
:10369000309711F01097C9F4109759F0EB012C8175
:1036A0003D81232B31F08C9190E09195819591098A
:1036B00014C0309781F0DC0114968D919C91159780
:1036C000892B49F0808190E008C0BD01CF01DF91D6
:1036D000CF910C94FA2680E090E0DF91CF9108958D
:1036E000FC0144815581FB01248135814217530738
:1036F00041F40E94401B21E0892B09F020E0822F39
:10370000089580E00895FC0124813581232B31F454
:1037100021E061157105A1F0FB0108C0FC01808169
:1037200091816115710531F421E0FC0180818823CC
:1037300039F005C00E94FA2621E0892B09F020E02B
:10374000822F08950E94401B892F881F8827881F79
:1037500008950E94401B21E0181619060CF020E085
:10376000822F08950E94401B21E0181619060CF4C0
:1037700020E0822F08950E94401B892F8095881F8A
:103780008827881F0895EF92FF920F931F93CF937E
:10379000DF938617970731F1FC0124813581FB0106
:1037A0004481558124173507F9F4232BD9F0FC0106
:1037B00000811181FB01C081D181F80181918F01CC
:1037C000882381F0992787FD90950E94B7267C0178
:1037D0008991992787FD90950E94B726E816F906EA
:1037E00061F302C081E001C080E0DF91CF911F91C1
:1037F0000F91FF90EF900895FA01DB0114964D911F
:103800005C911597DC0114962D913C911597241B22
:10381000350B2E173F0788F08D919C91009769F02A
:10382000DB016D917C916115710539F08E0F9F1F41
:103830000E940A2721E0892B09F020E0822F0895B9
:10384000FC0144815581FB012481358142175307D6
:1038500020F040E050E00C94FC1B80E00895FC0157
:1038600084819581DB0114964D915C9115978417A5
:10387000950798F0208131812115310571F06D9106
:103880007C916115710549F0841B950B820F931F84
:103890000E94FA2621E0892B09F020E0822F08956A
:1038A000DC0114962D913C9115976217730728F44B
:1038B000ED91FC91E60FF71F40830895FC01848190
:1038C00095816817790720F480819181009729F408
:1038D0001092850485E894E00895860F971F089557
:1038E000FC01248135816217730748F4808191813E
:1038F000009729F0FC01E60FF71F8081089580E012
:1039000008950C94701C0F931F93CF93DF93EB01DA
:1039100041155105E9F02097D9F0FC0164817581CA
:1039200026173707A0F4621B730B8A010150110997
:103930006017710708F48B01FC0160817181620FCF
:10394000731FA801CE010E941827C00FD11F188233
:10395000DF91CF911F910F910895CF93DF93FC01D9
:10396000848195814817590778F4C081D1817727E0
:1039700067FD7095CE01840F951F0E94EF2600977A
:1039800019F08C1B9D0B02C08FEF9FEFDF91CF9141
:10399000089540E050E00C94AD1CCF93DF93FC0100
:1039A000848195814817590778F4C081D181FB0142
:1039B00060817181CE01840F951F0E94322700978C
:1039C00019F08C1B9D0B02C08FEF9FEFDF91CF9101
:1039D000089540E050E00C94CD1CDF92EF92FF92EE
:1039E0000F931F93CF93DF93EC018C819D81481738
:1039F000590718F08FEF9FEF1BC08A010F5F1F4F11
:103A0000E881F981E00FF11FD0801082E880F98011
:103A1000772767FD7095C7010E942727F701E00F00
:103A2000F11FD082009731F328813981821B930BDB
:103A3000DF91CF911F910F91FF90EF90DF9008954C
:103A4000FC0144815581415051090C94ED1CAF9209
:103A5000BF92CF92DF92EF92FF920F931F93CF937B
:103A6000DF937B01EA01FB0144815581411551053A
:103A700069F1FC01248135812115310539F12417C3
:103A8000350720F1C217D30710F0E9012197FC0197
:103A900000811181C801AA24AA94BB24BA946801A8
:103AA000CC0EDD1EC816D906A0F0F7016081718129
:103AB0000E943227009769F09C01201B310BC2172E
:103AC000D30708F4950101965901ECCF8FEF9FEFD2
:103AD00001C0C501DF91CF911F910F91FF90EF9031
:103AE000DF90CF90BF90AF900895FC014481558145
:103AF000FB0124813581421B530B0C94271DBF927F
:103B0000CF92DF92EF92FF920F931F93CF93DF93A9
:103B10006C017B01EA0189012417350720F48D2F00
:103B2000E901042F182F6EE372E0C6010E942818E5
:103B3000D70114968D919C9115978C179D07C8F00D
:103B40008017910708F48C01D701ED91FC91119732
:103B5000E00FF11FB08010826D917C916C0F7D1F82
:103B6000C6010E946018D701ED91FC91E00FF11F92
:103B7000B082C601DF91CF911F910F91FF90EF901E
:103B8000DF90CF90BF900895CF93DF93EC01FB01BE
:103B9000248135810E947F1DCE01DF91CF91089550
:103BA000DC01ED91FC91309729F40895861301C052
:103BB0004083319680818111F9CF08952F923F92F1
:103BC0004F925F926F927F928F929F92AF92BF922D
:103BD000CF92DF92EF92FF920F931F93CF93DF93D9
:103BE000EC015B017A014C805D804114510409F4C1
:103BF000C5C0FB01648075806114710409F4BEC006
:103C0000FA01C480D580C618D70808811981C1146B
:103C1000D104C1F4F50160817181C8010E9432278D
:103C2000EC01009709F4AAC0F70160817181448119
:103C30005581CE010E94D426F701048115810C0F15
:103C40001D1FE8CFD7FC05C0FB0120803180420159
:103C500043C04801F50160817181C8010E9432278B
:103C60002C01009719F13201601A710AA301B80101
:103C7000C4010E94D426680C791CF701608171810F
:103C800044815581C3010E94D426F7018480958028
:103C9000860C971CF50104811581040D151D8C817E
:103CA0009D818C0D9D1D9D838C83D4CFB801C40153
:103CB000DF91CF911F910F91FF90EF90DF90CF9008
:103CC000BF90AF909F908F907F906F905F904F903C
:103CD0003F902F900C940327B101C8010E94322716
:103CE000009731F08C01060D171D8C0C9D1CF4CF34
:103CF0008414950409F442C08A819B818815990532
:103D000030F4B401CE010E94D1178823B9F14C815F
:103D10005D814150510957FD31C0B501CE010E946E
:103D2000271D8C0197FD2AC088819981F501248186
:103D30003581200F311F820F931F4C815D81421B03
:103D4000530BBC018C0D9D1D0E94DD268C819D8135
:103D50008C0D9D1D9D838C83E881F981E80FF91FEF
:103D6000108288819981F701608171814481558138
:103D7000800F911F0E94D426A801CBCFDF91CF9155
:103D80001F910F91FF90EF90DF90CF90BF90AF9079
:103D90009F908F907F906F905F904F903F902F906B
:103DA0000895CF93DF93FC01C081D181209751F01A
:103DB0008881882339F0992787FD90950E94B7263E
:103DC0008993F6CFDF91CF910895CF93DF93FC01D4
:103DD000C081D181209751F08881882339F09927BB
:103DE00087FD90950E94BF268993F6CFDF91CF91F2
:103DF0000895AF92BF92CF92DF92EF92FF920F930E
:103E00001F93CF93DF937C01DC01CD90DC90119761
:103E1000C114D10409F441C01496CD91DC911597D9
:103E20002097D9F156018501BFEFAB1ABB0AF80103
:103E30008081992787FD90950E94AF26892B99F75D
:103E40002197CC0DDD1D8881992787FD90950E94D3
:103E5000AF26892B91F4AE014F5F5F4F401B510B92
:103E6000D70115965C934E931497C016D10650F463
:103E7000B801C6010E94D42605C0C017D10758F367
:103E80002197E1CFD701ED91FC91119714968D9177
:103E90009C911597E80FF91F1082DF91CF911F9128
:103EA0000F91FF90EF90DF90CF90BF90AF9008956B
:103EB000FC0180819181009711F00C94852660E0CF
:103EC00070E0CB010895615030F02091F100FC01C9
:103ED00020830196F8CF289884E680938D04089576
:103EE00080918C0408952FB7FC012083F8946770AB
:103EF0006093E9000895CF93DF931F92CDB7DEB7AB
:103F0000682FCE0101960E94731F8091F200998163
:103F10009FBF0F90DF91CF910895FF920F931F9352
:103F2000CF93DF9300D0CDB7DEB7F62E8A01909104
:103F30008C04992311F057FF03C08FEF9FEF2BC024
:103F4000682FCE0101967A830E94731F8091F20040
:103F500090E0A8017A81801791070CF4AC01EF2D55
:103F6000F72FF40E84E6FE1639F0289880938D041E
:103F70009091F1009193F7CF4115510521F0809177
:103F8000F200882321F089818FBFCA0104C08BE62B
:103F90008093E800F8CF0F900F90DF91CF911F91A1
:103FA0000F91FF900895CF93DF931F92CDB7DEB7A7
:103FB00041E050E0BE016F5F7F4F0E948D1F01976F
:103FC00019F4898190E002C08FEF9FEF0F90DF918D
:103FD000CF910895CF93DF931F92CDB7DEB7682FAF
:103FE000CE0101960E94731F9091E800892F807284
:103FF00095FF04C09091F20080E4891B99819FBFD6
:104000000F90DF91CF9108954F925F926F927F92C0
:104010008F929F92AF92BF92CF92DF92EF92FF92D8
:104020000F931F93CF93DF931F92CDB7DEB7582E18
:104030007B01A42E952E80918C04882369F0042F97
:10404000152F8AEFB82E852D8072782E9AE3892E4F
:10405000852D8074682E11C08FEF9FEF53C0852D82
:104060000E94EA1F482E81110CC0BA94A9F361E0A6
:1040700070E080E090E00E94CD110115110579F704
:1040800037C0282F30E0021713070CF4402EC42C41
:10409000D12C0C191D09652DCE0101960E94731FAC
:1040A000772039F04A948FEF4816B1F01092F10062
:1040B000F9CFF701842D57FE07C0815058F0949135
:1040C0009093F1003196F9CF815020F09191909327
:1040D000F100FACFEC0CFD1C8091E80085FF0FC0C9
:1040E0000115110511F461100AC089818FBFC5CF78
:1040F0005D9884E680938E048A2D992D03C080926A
:10410000E800F3CF0F90DF91CF911F910F91FF90B7
:10411000EF90DF90CF90BF90AF909F908F907F9067
:104120006F905F904F9008951092E90010928B0469
:1041300010928A0490938904809388040895CF9301
:10414000DF93FB0120E030E0DEEF24173507A1F11B
:1041500087FF02C0C49101C0C081A0918A04B091C0
:104160008B046091880470918904A617B707B4F492
:104170009091E8009570E1F39091E80092FD1EC0E7
:10418000C093F10060918A0470918B046F5F7F4F40
:104190006F737727672B11F4D093E80060918A043E
:1041A00070918B046F5F7F4F70938B0460938A04D0
:1041B0002F5F3F4F3196C9CFC90102C08FEF9FEFEC
:1041C000DF91CF9108951F93CF93DF931F92CDB7C7
:1041D000DEB7162F2091E80022FFFCCF612F7983F4
:1041E0000E94631F8BEF8093E800812F7981972FC6
:1041F0000F90DF91CF911F910895CF93DF931F927E
:10420000CDB7DEB71982CE0101960E941117CE01FB
:1042100001960E940725898190E00F90DF91CF9150
:1042200008951F920F920FB60F921124EF92FF92F2
:104230000F931F932F933F934F935F936F937F93AE
:104240008F939F93AF93BF93EF93FF93CF93DF939E
:10425000CDB7DEB76297DEBFCDBF1092E900809187
:10426000E80083FFE7C068E0CE010A960E94631F62
:1042700082EF8093E8009A8597FF05C08091E8005F
:1042800080FFFCCF03C08EEF8093E800892F8076FB
:1042900009F0B5C08B85811105C01092F100109214
:1042A000F100C1C0282F2D7F213009F4BCC085301A
:1042B00049F48091E80080FFFCCF8C858068809372
:1042C000E300B1C0863009F072C02D85E888F98816
:1042D000223071F580E090E02A8B0E9494200E94A9
:1042E000FD2099E08E010F5F1F4FF801392F1192C9
:1042F0003A95E9F799832A892A8391E09E8390E889
:1043000098879AEF998720918A0430918B04275FD0
:104310003F4F3C832B838D83C7010E94942049E04B
:1043200050E0B80180E00E949F200E94FD207BC0E9
:10433000C7012A8B0E9494202A89223241F482E20A
:1043400090E00E941225892B09F06DC070C02130C9
:1043500069F488899989089711F4209387048091DA
:104360008704882389F06BE17CE016C0233009F0D4
:104370005EC08C85882359F0823061F0813009F06D
:1043800056C06FE37CE008C06DE27CE005C069E7E1
:104390007CE002C067E57CE06115710509F447C067
:1043A000FB01449150E080E80E949F203CC0873090
:1043B00009F43DC0883021F481E08093F10033C0DE
:1043C000893089F5937099F5E7E1FCE081E021E01F
:1043D00096E38093E9002093EB0034913093EC0056
:1043E0009093ED008F5F3196853099F78EE780933B
:1043F000EA001092EA008C8580938C0414C08889AE
:1044000099890E9494208E85811105C0CE010A965B
:104410000E941C1706C0823051F4CE010A960E94F9
:104420003A25882321F08EEF8093E80003C081E2D3
:104430008093EB0062960FB6F894DEBF0FBECDBF3F
:10444000DF91CF91FF91EF91BF91AF919F918F91AC
:104450007F916F915F914F913F912F911F910F919C
:10446000FF90EF900F900FBE0F901F9018958093C4
:10447000E9008091F200882319F08AE38093E80034
:104480000895CF93C091E40063E070E080E090E095
:104490000E94CD119091E40081E0C91301C080E039
:1044A000CF910895089510928C0481E08093D700F5
:1044B00080EA8093D80082E189BD09B400FEFDCF77
:1044C00061E070E080E090E00E94CD1180E980938F
:1044D000D8008CE08093E2001092E000559A209A78
:1044E0000895089590918C0481E0911101C080E0BD
:1044F000089508951F920F920FB60F9211242F93D3
:104500003F934F935F936F937F938F939F93AF935B
:10451000BF93EF93FF938091E1001092E10083FF3E
:104520000FC01092E90091E09093EB001092EC0024
:1045300092E39093ED0010928C0498E09093F00039
:1045400082FF26C083E00E94372282E00E947B1F08
:10455000882321F083E394E00E94C31680918E04A7
:10456000882339F080918E04815080938E048823B3
:1045700069F080918D04882359F080918D048150D9
:1045800080938D04811104C0289A02C05D9AF1CFF6
:10459000FF91EF91BF91AF919F918F917F916F911B
:1045A0005F914F913F912F910F900FBE0F901F90F1
:1045B00018956F927F928F929F92AF92BF92CF92F7
:1045C000DF92EF92FF920F931F93CF93DF93EC0153
:1045D000CB01209781F4DF91CF911F910F91FF9034
:1045E000EF90DF90CF90BF90AF909F908F907F9093
:1045F0006F900C94C223FE01E60FF71F9E0122501C
:104600003109E217F30708F4ACC0D9010D911C91F0
:10461000119706171707B8F00530110508F49FC069
:10462000A801445051094617570708F498C0025092
:104630001109061B170B019311936D937C93CF0106
:104640000E945A248CC05B01A01AB10A4E01800E50
:10465000911EA0919E04B0919F04612C712C60E08A
:1046600070E0109709F449C0A815B905C9F5ED9097
:10467000FC901197670142E0C40ED11CCA14DB0400
:1046800078F147018A189B08640142E0C40ED11CEE
:104690001296BC9012971396AC91B5E0CB16D1044C
:1046A00040F0B282A38391828082D9018D939C9342
:1046B00009C00E5F1F4F0E0D1F1DF90111830083EE
:1046C000EB2DFA2F6115710531F0DB011396FC9388
:1046D000EE93129744C0F0939F04E0939E043FC072
:1046E0006D917C9111976616770608F43B01BD0128
:1046F00012960D90BC91A02DB4CF60919C04709146
:104700009D0468157905E9F468167906D0F440919E
:104710006D0150916E014115510541F44DB75EB7E1
:104720006091710170917201461B570BE417F507F8
:10473000C0F4F0939D04E0939C04F901918380837D
:104740000EC00E94C2237C01009759F0A801BE014F
:104750000E94D426CE010E945A24C70104C0CE0173
:1047600002C080E090E0DF91CF911F910F91FF9008
:10477000EF90DF90CF90BF90AF909F908F907F9001
:104780006F900895CF93DF938230910510F482E00B
:1047900090E0E0919E04F0919F0420E030E0A0E0E2
:1047A000B0E0309739F14081518148175907B8F08E
:1047B0004817590771F482819381109729F0139655
:1047C0009C938E9312972CC090939F0480939E0489
:1047D00027C02115310531F04217530718F0A90100
:1047E000DB0101C0EF019A01BD01DF010280F3810D
:1047F000E02DD7CF21153105F9F0281B390B2430D6
:10480000310580F48A819B816115710521F0FB01DE
:104810009383828304C090939F0480939E04FE013F
:10482000329644C0FE01E20FF31F81939193225010
:104830003109398328833AC020919C0430919D042A
:10484000232B41F420916F013091700130939D042E
:1048500020939C0420916D0130916E01211531054A
:1048600041F42DB73EB74091710150917201241B64
:10487000350BE0919C04F0919D04E217F307A0F43E
:104880002E1B3F0B2817390778F0AC014E5F5F4FA6
:104890002417350748F04E0F5F1F50939D04409337
:1048A0009C048193919302C0E0E0F0E0CF01DF919E
:1048B000CF910895CF93DF93009709F487C0FC014F
:1048C000329713821282C0919E04D0919F04209748
:1048D00081F420813181280F391F80919C049091AF
:1048E0009D048217930779F5F0939D04E0939C044F
:1048F0006DC0DE0120E030E0AE17BF0750F4129625
:104900004D915C9113979D014115510509F1DA0113
:10491000F3CFB383A28340815181840F951F8A17FF
:104920009B0771F48D919C911197840F951F0296AE
:104930009183808312968D919C91139793838283A8
:104940002115310529F4F0939F04E0939E043EC0A5
:10495000D9011396FC93EE9312974D915D91A40F9C
:10496000B51FEA17FB0779F480819181840F951FA9
:104970000296D90111969C938E938281938113960E
:104980009C938E931297E0E0F0E08A819B810097E0
:1049900019F0FE01EC01F9CFCE0102962881398190
:1049A000820F931F20919C0430919D042817390792
:1049B00069F4309729F410929F0410929E0402C06B
:1049C00013821282D0939D04C0939C04DF91CF91F7
:1049D0000895FF920F931F93CF93DF93EC01F62E70
:1049E000E881F9810480F581E02D09958C01E88149
:1049F000F9810680F781E02D6F2DCE010995C80160
:104A00009927DF91CF911F910F91FF900895FC019D
:104A100020812F5F208349E150E06DEF7CE080E84A
:104A20000C949F2045E650E066E17DE080E80C9420
:104A30009F20EF92FF920F931F93CF93DF931F92CC
:104A4000CDB7DEB789838B017A0141E050E0BE012A
:104A50006F5F7F4F84E00E940420A701B80184E4C7
:104A60000E9404200F90DF91CF911F910F91FF9032
:104A7000EF900895FC0191818081813A31F481E0C9
:104A8000913091F0933089F411C0813271F49B30F0
:104A900021F482818093740105C09A3031F48281BF
:104AA0008093730181E00895089580E00895FC01EA
:104AB0001082089508950895CF93DF9300D000D019
:104AC000CDB7DEB7FC01808189836A834B832C8359
:104AD00044E050E0BE016F5F7F4F81E00E941925E6
:104AE0000F900F900F900F90DF91CF910895CF937B
:104AF000DF93EC01688320E040E060E00E945C25E9
:104B0000188220E040E060E0CE01DF91CF910C946C
:104B10005C25FC012081621731F0608320E040E0D9
:104B200060E00C945C250895FC012081622B0C94BC
:104B300089256095FC01208162230C948925FC0164
:104B40008081682381E009F480E00895FC011382EC
:104B5000128221E034E0318320830895089508957E
:104B600048E050E082E00C941925CF93DF93DC01FC
:104B7000683818F0E8E7E60F25C0E62FF0E067FF99
:104B800011C0E058F10981E090E001C0880FEA957A
:104B9000EAF714969C911497982B14969C9314976B
:104BA000E0E010C0E358F34FE491EE2309F440C075
:104BB000E7FF08C014968C911497826014968C932A
:104BC0001497EF7716968C9116978E1741F11796DA
:104BD0008C9117978E1719F118968C9118978E173C
:104BE000F1F019968C9119978E17C9F01A968C913D
:104BF0001A978E17A1F01B968C911B978E1779F040
:104C000080E090E0ED01C80FD91F2E81211102C074
:104C1000EE8305C0019686309105A1F709C0BD015C
:104C20006C5F7F4FCD010E94B02581E090E008C00D
:104C300081E090E013969C938E93129780E090E031
:104C4000DF91CF910895683818F0E8E7E60F25C0A6
:104C5000E62FF0E067FF12C0E058F10921E030E0F4
:104C600001C0220FEA95EAF72095DC0114963C91E9
:104C70001497322314963C93E0E00FC0E358F34FAF
:104C8000E491EE2329F1E7FF08C0DC0114962C9192
:104C900014972D7F14962C93EF7720E030E0EE23CD
:104CA00051F0DC01A20FB31F16964C9116974E13CC
:104CB00002C016961C922F5F3F4F2630310579F7C0
:104CC000BC016C5F7F4F0E94B02581E090E00895A9
:104CD00080E090E00895FC0116821782108611860C
:104CE000128613861482BC016C5F7F4F0C94B02532
:104CF00010929B04109292041092910481E094E02F
:104D00009093900480938F0408951F93FC0199273A
:104D10008827BC01E89411911032E9F3193010F0A2
:104D20001E30C8F31B3251F01D3249F4689406C09E
:104D30000E947C27610F711D811D911D11911053DF
:104D40001A30B0F33EF490958095709561957F4F41
:104D50008F4F9F4F1F910895F8940C943D2A911105
:104D600051C3803219F089508550D0F708959111C0
:104D7000089581548A5108F4805E855A08959111EE
:104D8000089581568A5108F4805285580895FB0190
:104D9000DC0104C08D910190801921F441505040F4
:104DA000C8F7881B990B0895FB01DC0102C0019034
:104DB0000D9241505040D8F708956817790768F46C
:104DC000FB01DC01E40FF51FA40FB51F02C0029028
:104DD0000E9241505040D8F708950C94D426FC010F
:104DE0008191861721F08823D9F799270895319763
:104DF000CF010895FB01DC018D9101908019011014
:104E0000D9F3990B0895FB01DC0101900D9200206C
:104E1000E1F70895FB01DC014150504030F08D91E5
:104E20000190801919F40020B9F7881B990B089597
:104E3000FB01DC014150504048F001900D920020F0
:104E4000C9F701C01D9241505040E0F70895FC01A0
:104E500081E090E00190061609F4CF010020D1F71F
:104E600001970895FB0151915523A9F0BF01DC0181
:104E70004D9145174111E1F759F4CD010190002002
:104E800049F04D9140154111C9F3FB014111EFCF9C
:104E900081E090E0019708954532510520F44230B9
:104EA00010F00C945727FB011082CB010895BB270B
:104EB0004A3031F4992322F4BDE2909581959F4FB9
:104EC0000C94CA272532310520F4223010F00C94BE
:104ED0006D27FA011082CA010895BB272A3051F4C8
:104EE000992342F4BDE290958095709561957F4F2E
:104EF0008F4F9F4F0C949D27592F482F372F262FC8
:104F0000660F771F881F991F660F771F881F991FCD
:104F1000620F731F841F951F660F771F881F991FCD
:104F200008952532310520F4223010F00C949C278E
:104F3000FA011082CA010895BB27FA01A62F621751
:104F4000710581059105330B30FB66F0AA27660FCA
:104F5000771F881F991FAA1FA21710F0A21B639525
:104F60003850A9F7A05DAA3308F0A95DA19336F7E0
:104F7000B111B1931082CA010C94052A4532510532
:104F800020F4423010F00C94C927FB011082CB01B1
:104F90000895BB27FB015527AA27880F991FAA1F31
:104FA000A41710F0A41B83955051B9F7A05DAA3344
:104FB00008F0A95DA193009779F7B111B19311920F
:104FC000CB010C94052A5058BB27AA270ED075C1D7
:104FD00066D130F06BD120F031F49F3F11F41EF414
:104FE0005BC10EF4E095E7FB51C1E92F77D180F367
:104FF000BA17620773078407950718F071F49EF5D6
:105000008FC10EF4E0950B2EBA2FA02D0B01B90124
:1050100090010C01CA01A0011124FF27591B99F02E
:10502000593F50F4503E68F11A16F040A22F232F3A
:10503000342F4427585FF3CF469537952795A7958A
:10504000F0405395C9F77EF41F16BA0B620B730B31
:10505000840BBAF09150A1F0FF0FBB1F661F771FA2
:10506000881FC2F70EC0BA0F621F731F841F48F457
:10507000879577956795B795F7959E3F08F0B3CFDD
:105080009395880F08F09927EE0F979587950895C7
:10509000D9D008F481E008950CD00FC107D140F0B9
:1050A000FED030F021F45F3F19F0F0C0511139C14A
:1050B000F3C014D198F39923C9F35523B1F3951B89
:1050C000550BBB27AA2762177307840738F09F5F29
:1050D0005F4F220F331F441FAA1FA9F333D00E2E98
:1050E0003AF0E0E830D091505040E695001CCAF705
:1050F00029D0FE2F27D0660F771F881FBB1F2617CA
:1051000037074807AB07B0E809F0BB0B802DBF019C
:10511000FF2793585F4F2AF09E3F510568F0B6C0B5
:1051200000C15F3FECF3983EDCF386957795679579
:10513000B795F7959F5FC9F7880F911D969587954D
:1051400097F90895E1E0660F771F881FBB1F62176C
:1051500073078407BA0720F0621B730B840BBA0B2A
:10516000EE1F88F7E095089504D06894B111D9C076
:105170000895BCD088F09F5790F0B92F9927B75168
:10518000A0F0D1F0660F771F881F991F1AF0BA950B
:10519000C9F712C0B13081F0C3D0B1E00895C0C0EA
:1051A000672F782F8827B85F39F0B93FCCF3869501
:1051B00077956795B395D9F73EF49095809570955E
:1051C00061957F4F8F4F9F4F0895E89409C097FBDB
:1051D0003EF490958095709561957F4F8F4F9F4FCE
:1051E0009923A9F0F92F96E9BB279395F695879512
:1051F00077956795B795F111F8CFFAF4BB0F11F4D5
:1052000060FF1BC06F5F7F4F8F4F9F4F16C088237B
:1052100011F096E911C0772321F09EE8872F762FB1
:1052200005C0662371F096E8862F70E060E02AF0F2
:105230009A95660F771F881FDAF7880F96958795DE
:1052400097F90895990F0008550FAA0BE0E8FEEFB3
:1052500016161706E807F907C0F012161306E4073A
:10526000F50798F0621B730B840B950B39F40A2633
:1052700061F0232B242B252B21F408950A2609F411
:10528000A140A6958FEF811D811D089597F99F6715
:1052900080E870E060E008959FEF80EC08950024BE
:1052A0000A941616170618060906089500240A948B
:1052B00012161306140605060895092E0394000C11
:1052C00011F4882352F0BB0F40F4BF2B11F460FFA0
:1052D00004C06F5F7F4F8F4F9F4F089557FD9058C9
:1052E000440F551F59F05F3F71F04795880F97FBAA
:1052F000991F61F09F3F79F0879508951216130664
:105300001406551FF2CF4695F1DF08C01616170692
:105310001806991FF1CF86957105610508940895C7
:10532000E894BB2766277727CB0197F908958ADF92
:1053300008F48FEF08950BD0C0CFB1DF28F0B6DFAF
:1053400018F0952309F0A2CFA7CF1124EACFC6DF2A
:10535000A0F3959FD1F3950F50E0551F629FF00188
:10536000729FBB27F00DB11D639FAA27F00DB11DE1
:10537000AA1F649F6627B00DA11D661F829F22276A
:10538000B00DA11D621F739FB00DA11D621F839FF1
:10539000A00D611D221F749F3327A00D611D231FC7
:1053A000849F600D211D822F762F6A2F11249F5715
:1053B00050408AF0E1F088234AF0EE0FFF1FBB1F38
:1053C000661F771F881F91505040A9F79E3F5105D7
:1053D00070F05CCFA6CF5F3FECF3983EDCF3869590
:1053E00077956795B795F795E7959F5FC1F7FE2B82
:1053F000880F911D9695879597F9089523DF880B5F
:10540000990B0895992788270895DC01FC01672FDF
:1054100071917723E1F7329704C07C916D9370838B
:105420006291AE17BF07C8F30895A1E21A2EAA1B16
:10543000BB1BFD010DC0AA1FBB1FEE1FFF1FA21744
:10544000B307E407F50720F0A21BB30BE40BF50B41
:10545000661F771F881F991F1A9469F760957095CA
:10546000809590959B01AC01BD01CF010895EE0F91
:0E547000FF1F0590F491E02D0994F894FFCFF2
:10547E00FF8813000030313130303131313031306E
:10548E003031313031313031303030303130313106
:10549E0031303031303031000000000000000000AB
:1054AE0000000000000000000000000000000000EE
:1054BE00000000000097039D03A303A903AF03B5EB
:1054CE0003BB03C103C703CE03020304050607088B
:1054DE00090A0BFFFF00E10000000000000000A021
:1054EE000480000101206E747273743A002074639C
:1054FE006B3A0020746D733A002074646F3A00208A
:10550E007464693A0031313131313031313030002B
:10551E00456E746572206E65772070617474657265
:10552E006E206F6620312773206F72203027732014
:10553E00287465726D696E61746520776974682070
:10554E006E6577206C696E65206F7220272E272975
:10555E003A0D0A3E20006E65772070617474657294
:10556E006E20736574205B005D00566572626F730A
:10557E0065204F4E00566572626F7365204F46462A
:10558E000044656C6179204F4E0044656C61792052
:10559E004F46460050756C6C757073204F4E005020
:1055AE00756C6C757073204F4646000920200046BE
:1055BE004F554E44212000204952206C656E677471
:1055CE00683A200061637469766520000962697427
:1055DE007320746F67676C65643A007061747465EC
:1055EE00726E207363616E2073696E676C65006600
:1055FE006F756E64207061747465726E206F7220A8
:10560E006F74686572006E6F207061747465726E6F
:10561E0020666F756E64007061747465726E2073AF
:10562E006574006C6F6F706261636B206368656395
:10563E006B006C00207265676C656E3A006964637E
:10564E006F6465207363616E0069003131313131F1
:10565E0000313131313130313030000964657669D5
:10566E006365733A20000930780062797061737354
:10567E00207363616E006200626F756E6461727991
:10568E00207363616E0070696E73006972656E756A
:10569E006D000949722000096269747320636861A4
:1056AE006E6765642000766572626F7365007600C2
:1056BE0064656C61790064656C6179202D004465C8
:1056CE006C6179206D6963726F7365636F6E64735D
:1056DE003A200064656C6179202B0070756C6C75D6
:1056EE0070730068656C70006800756E6B6E6F7716
:1056FE006E20636F6D6D616E64007061747465729F
:10570E006E207363616E004449475F32004449471F
:10571E005F33004449475F34004449475F350044D6
:10572E0049475F36004449475F37004449475F3871
:10573E00004449475F39004449475F3130004449CE
:10574E00475F3131006E616E00696E66006F76667E
:10575E00002E0000000000B117251300000000EC21
:10576E001625137C16A0168916E916C3160000001E
:0C577E0000E9242513B52523266B260026
:00000001FF
