:020000000C945E
:1000020066000C9400000C9400000C9400000C9408
:1000120000000C9400000C9400000C9400000C945E
:1000220000000C9400000C9400000C9400000C944E
:1000320000000C9400000C9400000C9400000C943E
:1000420000000C9400000C9400000C9400000C942E
:1000520000000C9400000C9400000C9400000C941E
:1000620000000C9400000C9400000C9400000C940E
:1000720000000C9400000C9400000C9400000C94FE
:1000820000000C9400000C9400001027E8036400A8
:100092000A000100001000011000010041626341EA
:1000A20062634162634162630054657374546573B1
:1000B20074546573740001002D4E414E00494E4642
:1000C200000001000005B8000000F894EE27ECBB28
:1000D200F1E0F5BFE5BFE0936C008DE0A2E0BB2745
:1000E200ED938A95E9F780E090E1A0E0B1E0ED932D
:1000F2000197E9F7E4ECF0E085919591009761F0C2
:10010200A591B59105901590BF01F00105900D9252
:100112000197E1F7FB01F0CF8BBFEFEFEDBFE0E11D
:10012200EEBFC0E0D5E00C949600E6978AE164E168
:1001320070E0EEE9F0E098D100E010E0E0E0EABB28
:10014200EBBBE7BBE8BBE4BBE5BBE1BBE2BBE2B9AF
:10015200E3B9E0936100E0936200E0936400E0930E
:100162006500E0BFE3BFE2BFE1BFEFBDEEBDEDBDA5
:10017200ECBDE7BDE6BDEBBDEABDE9BDE8BDE09380
:100182007900E0937800E5BDE4BDE3BDE0938B0028
:10019200E0938A00E0938900E0938800E093810075
:1001A200E0938000E0938700E0938600E09385006F
:1001B200E0938400E0938300E0938200E7BFE09342
:1001C2007D00E0936A00EABFE9BFEAB9E0939A00D2
:1001D200E0E8E8B9E0E0E0BDE6B9EDB9E09374002B
:1001E200E7BBE6B3E03009F5FE01B196FA93EA9374
:1001F200DE01569632D0DE0191963CD08F010C8BF7
:10020200E1E0E6BBF8012BD1A7D0EAABFBAB6CABCC
:100212007DABAAA9BBA98CA99DA9CBD0EEA7FFA7AC
:1002220068AB79AB62D08F0116C0DE01A00FB11F9F
:10023200E9B3EC93DE011ED032968F01FE01749673
:10024200FA93EA93DE01939608D00333E0E01E07A7
:1002520014F0EFEFEABBC5CFFFCFBA93AA93E991AF
:10026200F991A991B991CD0161916D936623E1F75D
:10027200FC010895BA93AA93A991B991EE27FF2799
:100282006D91662311F03196FBCF0895552342F408
:10029200503811F4E0FF04C03196691F791F6BF0EA
:1002A20050E8572711F45F9373C05F3F31F0660F38
:1002B200000C57956795752F08955F9300200AF0FB
:1002C20072C06BC050E8192E1522880F991F95270E
:1002D200550F879550E8072E0522660F771F752761
:1002E200550F67950895689401C0E8945F93F2DF13
:1002F200703818F07F3F08F44BC056E1571BAAF440
:10030200519558300EF4593030F0EFEFFFEF6FEFA8
:100312007FE777F91AC077275523B9F0EE0FFF1F51
:10032200661F771F5A95D1F710C07727583028F0EB
:10033200EF2FF62F672F5850F9CF552331F07695CE
:100342006795F795E7955A95D1F700200AF47FD083
:100352005F910895689401C0E894309760407040BE
:10036200B1F0002426F0772312F4009470D0172EF7
:100372007EE1112032F07A95EE0FFF1F661F111CED
:10038200F9CFEF2FF62F612D5F938ADF5F910895EA
:10039200EE27FF27BF015F910895EFEFFFEF6FE7B1
:1003A2007FEF5F910895EFEFFFEF6FE77FE75F91D8
:1003B20008955F9387DF703859F3903849F3012429
:1003C2000894791F23F424F300203AF3ECCF0F9220
:1003D2001F932F933F934F93112722279927689FAB
:1003E200A0018F9F302D410D591F6B9F300D411D74
:1003F200591F8E9F27D0BF9F25D06A9F23D0BE9FB3
:100402001DD0AF9F1BD0AE9F110D291F391F491F51
:10041200591FE32FF42F652F522F4F913F912F91A8
:100422001F910F9066232AF0550FEE1FFF1F661FC4
:1004320002C073954BF22ADF5F910895100D211DC2
:10044200391F02C0200D311D491F591F0895F09513
:1004520060957095E195FF4F6F4F7F4F08956F2F15
:10046200660F660B762F0895AF93BF93DB01AC0F37
:10047200BD1F05900D928A95E1F7BF91AF91089546
:00000001FF
