:100000000C94E7030C9404040C9404040C9404046E
:100010000C9404040C9404040C9404040C94040440
:100020000C9404040C9404040C9404040C94040430
:100030000C9404040C9404040C9404040C94040420
:100040000C9404040C9404040C9404040C94040410
:100050000C9404040C9404040C9404040C94040400
:100060000C9404040C940404190EDD0EDD0E8F0EA6
:10007000DD0EDD0EDD0EDD0E5D0EDD0EF10D830EEF
:10008000DD0EDD0E690EDD0EF40D010204081020F8
:1000900040801B36637C777BF26B6FC53001672B2A
:1000A000FED7AB76CA82C97DFA5947F0ADD4A2AF6C
:1000B0009CA472C0B7FD9326363FF7CC34A5E5F17A
:1000C00071D8311504C723C31896059A071280E228
:1000D000EB27B27509832C1A1B6E5AA0523BD6B37C
:1000E00029E32F8453D100ED20FCB15B6ACBBE39EC
:1000F0004A4C58CFD0EFAAFB434D338545F9027FD8
:10010000503C9FA851A3408F929D38F5BCB6DA2190
:1001100010FFF3D2CD0C13EC5F974417C4A77E3DBC
:10012000645D197360814FDC222A908846EEB81412
:10013000DE5E0BDBE0323A0A4906245CC2D3AC62D5
:100140009195E479E7C8376D8DD54EA96C56F4EAE0
:10015000657AAE08BA78252E1CA6B4C6E8DD741FF1
:100160004BBD8B8A703EB5664803F60E613557B9B4
:1001700086C11D9EE1F8981169D98E949B1E87E96E
:10018000CE5528DF8CA1890DBFE6426841992D0F1D
:10019000B054BB1646696E697368656420707269F5
:1001A0006E74696E670D0A00506C6561736520732B
:1001B00074617274207468652061757468656E740A
:1001C00069636174696F6E2070726F636573732009
:1001D00077697468207468617420737465700D0A9F
:1001E00000596F752068617665206E6F74207265A6
:1001F0007175657374656420616E206175746865DE
:100200006E7469636174696F6E206E6F6E63650DE5
:100210000A00596F7572206E6F6E636520697320D6
:100220006E6F7720696E76616C69642C20706C65E6
:1002300061736520726571756573742061206E65E8
:1002400077206F6E6520746F20706572666F726DB7
:100250002061757468656E7469636174696F6E0D91
:100260000A0041757468656E7469636174696F6EC4
:10027000207375636365737366756C2061732061A9
:10028000646D696E6973747261746F720D0A0041F6
:10029000757468656E7469636174696F6E207375D7
:1002A000636365737366756C206173207072697621
:1002B000696C6567656420757365720D0A00417528
:1002C0007468656E7469636174696F6E20737563B9
:1002D0006365737366756C20617320757365720D49
:1002E0000A00506C65617365207375626D697420D6
:1002F000796F757220726573706F6E736520746F9D
:100300002066696E69736820746865206175746819
:10031000656E7469636174696F6E2070726F636576
:1003200073730D0A0047657474696E6720636C6FA0
:100330007365722121526973637572652069732038
:10034000636F6F6C2166756E6374696F6E20736581
:100350006E645F6963735F636F6D6D616E64206E61
:100360006F7420696D706C656D656E7465640D0ADF
:1003700000696E76616C6964206C656E6774680DE7
:100380000A0064697361626C696E67207465726DDE
:10039000696E616C0D0A00737461636B206275662F
:1003A000666572206F766572666C6F77206465741F
:1003B00065637465640D0A0054686520696E736531
:1003C0007274656420636F6D6D616E642077617314
:1003D0000D0A000D0A0000496E7365727420696E83
:1003E000737472756374696F6E206F70636F646588
:1003F0000D0A000D0A00496E7365727420696E73F0
:100400007472756374696F6E206C656E67746820B2
:10041000286D696E20302C206D61782034290D0AFA
:100420000043616C6C696E6720656570726F6D5F0B
:100430007365745F6D656D6F72795F70726F7465EF
:10044000637465640D0A0043616C6C696E672065B6
:100450006570726F6D5F7365745F6D656D6F7279D6
:100460005F756E70726F7465637465640D0A004D1C
:1004700043552066616D696C790941544D6567612A
:10048000333238500D0A4669726D776172650931F1
:100490002E322E302D414C5048410D0A4275696C68
:1004A0006420646174650930312D31302D32303172
:1004B000350D0A4275696C6420666C616773092D9D
:1004C0004F202B78202D2D656570207277202D2DE3
:1004D00070676D656D2072202D2D64656275670DE6
:1004E0000A0D0A00506C6561736520696E73657250
:1004F0007420796F757220544F5450207573657253
:1005000020746F6B656E0D0A000D0A00436F6E74E8
:10051000616374696E6720544F54502076616C6932
:10052000646174696F6E207365727665720D0A007E
:10053000546F6B656E2076616C6964617465640DDF
:100540000A000D0A00696E737472756374696F6EC8
:1005500020617420756E74727573746564206164B3
:10056000647265737320617474656D707465642062
:10057000746F20726561642066726F6D20756E61A4
:100580007574686F72697A6564206D656D6F7279D4
:1005900020616464726573730D0A0066756E63741E
:1005A000696F6E20746F74705F76616C69646174DA
:1005B000696F6E206E6F7420696D706C656D656E0D
:1005C0007465640D0A0072657475726E696E6720D9
:1005D000310D0A00696E742070617273696E672054
:1005E000726F7574696E65206465746563746564A3
:1005F00020696E76616C696420696E707574207311
:10060000697A650D0A00696E742070617273696E93
:100610006720726F7574696E6520646574656374B4
:10062000656420696E76616C6964206368617261DB
:1006300063746572730D0A00506C656173652065A3
:100640006E7465722061206E756D62657220736DC7
:10065000616C6C6572207468616E20350D0A00490A
:100660006E707574206973206E6F742061207661DE
:100670006C6964206E756D626572200D0A000D0A4A
:1006800000486F77206D616E7920766172696162D2
:100690006C65732073686F756C642062652070727E
:1006A000696E7465643F20286D61782035290D0AD4
:1006B000000D0A0009480973686F772068656C703F
:1006C0000D0A0D0A000958096C6F67206F75740DCB
:1006D0000A00094B097265616420746865204164F1
:1006E0006D696E206B65790D0A00095609636861B2
:1006F0006E6765207468652076616C76652073741A
:100700006174650D0A09530973656E6420636F6D2A
:100710006D616E6420746F206261636B656E64202E
:10072000494353206E6574776F726B0D0A0009524E
:10073000097265616420666C61736820636F6E6620
:1007400069670D0A0950097072696E7420746865D2
:100750002076616C76652073746174650D0A0009FA
:10076000410961757468656E7469636174650D0A29
:10077000095278787878097375626D6974207265AA
:1007800073706F6E7365202878787878203D2072BA
:100790006573706F6E736520696E20686578290DCA
:1007A0000A09560972657472696576652076617208
:1007B0006961626C65730D0A00506F737369626CD6
:1007C0006520636F6D6D616E64733A0D0A001124CC
:1007D0001FBECFEFD8E0DEBFCDBF12E0A0E0B1E09A
:1007E000ECEBFDE202C005900D92A43BB107D9F7F6
:1007F00023E0A4EBB2E001C01D92A734B207E1F7F9
:100800000E9406040C94DC160C940000CF93DF9336
:10081000CDB7DEB784E190E00E942A0F9093B60234
:100820008093B50210923D031092380310923F035B
:10083000109240030E94690485E290E025E230E0D6
:10084000F90120812160FC01208384E290E024E210
:1008500030E0F90120812160FC0120830E9417050E
:100860000E94AC0B0E94010D80E090E0DF91CF91DF
:1008700008952FB7F8949AE0E5B1EE7FE5B900004E
:100880000000000000000000EDE9F1E03197F1F711
:1008900000000000E5B180FDE16080FFEE7FE5B97A
:1008A000089487959A9581F72FBF08951F93CF934A
:1008B000DF93EC0110E0FE01E10FF11D8081882340
:1008C00021F01F5F0E943904F6CFDF91CF911F9175
:1008D00008951092C5001092C40088E18093C10071
:1008E00086E08093C20008959091C00095FFFCCFF0
:1008F0008093C6000895CF93DF93EC0189918823FC
:1009000019F00E947404FACFDF91CF91089580917D
:10091000C000881F8827881F08950E9487048823A5
:10092000E1F38091C6000895CF92DF92EF92FF929B
:100930000F931F93CF93DF937C01D12C062F10E0F0
:10094000015011090E948D04C82ECD2DD0E08DE0FC
:10095000C81215C00E948D048A30C9F0C017D10793
:1009600024F4CE0DDF1DC882D3942D2D30E0201746
:10097000310744F7F701E20FF31F808306C0C01769
:10098000D10704F7CE0DDF1DC882D394DBCFCE0D87
:10099000DF1D1882DF91CF911F910F91FF90EF9093
:1009A000DF90CF9008950C947404CF93DF93CDB76C
:1009B000DEB7FE013596419151919F0168E770E0E5
:1009C00087EB92E00E94751387EB92E00E947B0414
:1009D000DF91CF910895CF93DF93CDB7DEB7FE01BE
:1009E0003596419151919F0168E770E087EB92E065
:1009F0000E94751387EB92E00E945604DF91CF911D
:100A000008950C94940480917C00887F8160809389
:100A10007C0080917A00806480937A0080917A00D3
:100A200086FDFCCF8091780090917900089580E454
:100A300080937C0087E880937A0008950C940305E6
:100A4000CF92DF92EF92FF920F931F9310E2C12C8F
:100A5000D12C76010E940305837080FDFBCF82308C
:100A600011F46894C0F8CC0CDD1CEE1CFF1C115076
:100A700089F7C701B6010E94A5100E94A0107B0152
:100A8000DD24CC240E94A0108B019C012227332757
:100A90000C291D292E293F29C901B8014FE096953F
:100AA0008795779567954A95D1F76801790157E061
:100AB000F694E794D794C7945A95D1F76C257D2581
:100AC0008E259F2568017901E3E1F694E794D79498
:100AD000C794EA95D1F76C257D258E259F25680161
:100AE0007901F6E1F694E794D794C794FA95D1F793
:100AF0006C257D258E259F2568017901AAE1F69454
:100B0000E794D794C794AA95D1F76C257D258E25B7
:100B10009F2568017901BDE1F694E794D794C794C5
:100B2000BA95D1F76C257D258E259F259927669549
:100B300097958827772766273695279517950795E0
:100B4000602B712B822B932B1F910F91FF90EF90B5
:100B5000DF90CF900895242F4AE00C94EE05CF93B8
:100B6000DF9300D000D0CDB7DEB7FC018081898350
:100B700084818A8380858B8384858C83862F837090
:100B8000A1E0B0E0AC0FBD1FA80FB11D8C91808318
:100B900070E0CB0101968370992721E030E02C0FA3
:100BA0003D1F820F931FDC018C918483CB01029641
:100BB00083709927820F931FDC018C918087DB0162
:100BC0001396A370BB27A20FB31F8C9184870F903D
:100BD0000F900F900F90DF91CF9108952F923F9239
:100BE0004F925F926F927F928F929F92AF92BF923D
:100BF000CF92DF92EF92FF920F931F93CF93DF93E9
:100C0000CDB7DEB76A970FB6F894DEBF0FBECDBF83
:100C10008C012B01242E2A8FDB01FC0180E02D9119
:100C20009081922791938F5F8031C9F79201205F65
:100C30003F4F398F288F31E03F8B9E012F5E3F4F12
:100C40003C8B2B8B31E0321508F0CEC0DE011196C3
:100C5000C801FC012191CF01E22FF0E0EC56FF4FDB
:100C6000E491ED932B893C89A217B30791F761E0DA
:100C7000CE0102960E94AF0562E0CE0103960E946B
:100C8000AF0563E0CE0104960E94AF05CE01029647
:100C90005C01FE0133966F019E012C5F3F4F79018D
:100CA00001974C01612C712CF5013080F401808199
:100CB0003826F60180813826F701808138262A8D72
:100CC000213041F1F5016081F401808168274BE119
:100CD00082E00E94F2079801260D371D3E8B2D8B76
:100CE000F401908193259827F9019083F6016081A2
:100CF000F501808168274BE182E00E94F207F5014F
:100D0000908193259827ED89FE8991832A8D213042
:100D100081F448C00E94A01073707A8B698B898916
:100D20009A89892B79F289899A8901979A8B898B7B
:100D3000F6CFF7016081F601808168274BE182E000
:100D40000E94F207F601908193259827ED89FE898C
:100D50009283F4016081F701808168274BE182E092
:100D60000E94F207F701908193259827ED89FE896B
:100D70009383F4E08F0E911C24E0620E711C34E02A
:100D8000A30EB11C84E0C80ED11C94E0E90EF11C46
:100D9000E0E16E16710409F087CFF801A88DB98DD6
:100DA00080E010C00E94A01073707A8B698B8989D3
:100DB0009A89892B09F4BDCF89899A8901979A8BE1
:100DC000898BF5CF2D919081922791938F5F803100
:100DD000C9F72F892F5F2F8B2A94288D398D205F9B
:100DE0003F4F398F288F2ECF2F8980E1289F400CCD
:100DF000511C1124D80180E0EC91F0E0EC56FF4F3B
:100E0000E491ED938F5F8031B9F761E0C8010196FD
:100E10000E94AF0562E0C80102960E94AF0563E040
:100E2000C80103960E94AF05D201F80180E12D911F
:100E30009081922791938150D1F76A960FB6F894DA
:100E4000DEBF0FBECDBFDF91CF911F910F91FF90FD
:100E5000EF90DF90CF90BF90AF909F908F907F905A
:100E60006F905F904F903F902F9008958F929F9238
:100E7000AF92BF92CF92DF92EF92FF920F931F93A8
:100E8000CF93DF93EA018B0135E0169507953A95EC
:100E9000E1F7D02E7801FF249701295F3F4FC22E42
:100EA000CC0CCC0CAB0163E0569547956A95E1F705
:100EB000BC01CE010E943413902E990CA02E60E04C
:100EC00070E0B12CF62FED2DE60FEC1508F06EC09A
:100ED0008E2F90E0AC014150504C440F551F440FF1
:100EE000551F4C0F5D1FDA010D911D912D913C9105
:100EF000EA1501F1B8E0DB1240C0E770E43009F018
:100F00003CC0E02FF0E0EC56FF4FE4910E2FE12FB4
:100F1000F0E0EC56FF4FE4911E2FE22FF0E0EC568C
:100F2000FF4FE4912E2FE32FF0E0EC56FF4FE491BA
:100F30003E2F23C0AF2EA90CB02F832EE12FF0E05F
:100F4000EC56FF4FA491E22FF0E0EC56FF4FE491F6
:100F50001E2FE82DF0E0EC56FF4FE4912E2FEB2FE3
:100F6000F0E0EC56FF4FE4913E2FEB2DF0E0E6571A
:100F7000FF4FE4910E2F0A27B394FC01EE19FF09ED
:100F8000EE0FFF1FEE0FFF1FEC0FFD1F8081918101
:100F9000A281B38180279127A227B327FA018483F6
:100FA0009583A683B7836F5F7F4F8CCFDF91CF91FF
:100FB0001F910F91FF90EF90DF90CF90BF90AF9077
:100FC0009F908F900895AB0160E870E00C94360715
:100FD000AB0160EC70E00C943607AB0160E071E0AF
:100FE0000C943607782F8827769531F008F48627F9
:100FF000660F08F46427F8CF08F486270895CF9287
:10100000DF92EF92FF920F931F93CF93DF93C82E3F
:10101000C0E0D1E0D12C8FE2E82E81E0F82EDC1484
:10102000E1F008811981F801808190E00E94161397
:10103000892B81F08B818F938A818F931F930F93DC
:10104000FF92EF920E94D5040F900F900F900F9097
:101050000F900F90D3942496E2CF84E991E09F9370
:101060008F938AE391E09F938F930E94D5040F9012
:101070000F900F900F90DF91CF911F910F91FF90E4
:10108000EF90DF90CF900895AF92BF92CF92DF9212
:10109000EF92FF920F93CF93DF93CDB7DEB7C55D8D
:1010A000D1090FB6F894DEBF0FBECDBF7A0122235F
:1010B00029F0223031F4E5E2F3E005C0E5E3F3E0A6
:1010C00002C0E0E0F5E351EBA52EB12CAC0EBD1E45
:1010D00030E1A30EB11CDE01AF54BF4F34913D93FC
:1010E0003196AA15BB05D1F7CF52DF4F6883C15D9A
:1010F000D040CE52DF4F7883C25DD040CD52DF4F1B
:101100008883C35DD040CC52DF4F9883C45DD0400C
:10111000CC53DF4F6883C45CD040CD53DF4F78831E
:10112000C35CD040CD52DF4F8881C35DD040CE53E9
:10113000DF4F8883C25CD040CF53DF4F9883C15CC0
:10114000D040E1ECF0E0EC0FFD1F349641ECC42EF2
:10115000D12CCC0EDD1E80E1C80ED11C1192EC15F5
:10116000FD05E1F7BE016F5F7F4FCE018F549F4FAA
:10117000CB52DF4F2883C55DD0400E94E307402F4C
:10118000BE016F5F7F4FCE018F539F4F0E94AB0513
:10119000FE01EF54FF4FCB52DF4F2881C55DD04099
:1011A0001192EA15FB05E1F7E1ECF0E0EC0FFD1F11
:1011B0003C9680E090E0DC01BA2FA92F982F882779
:1011C0003191832BEC15FD05B9F7211103C0AF70E8
:1011D000BB2703C0223009F4BB27F701808391832A
:1011E000A283B383CB52DF4F0FB6F894DEBF0FBE9E
:1011F000CDBFDF91CF910F91FF90EF90DF90CF9017
:10120000BF90AF9008950F93CF93DF93CDB7DEB724
:101210002C970FB6F894DEBF0FBECDBF81E0809350
:10122000400310923E030E9420056093390370939F
:101230003A0380933B0390933C0300E020E0AE012F
:101240004F5F5F4F0E9444086091390370913A03E9
:1012500080913B0390913C0301E021E0AE014B5FA4
:101260005F4F0E9444086091390370913A03809166
:101270003B0390913C0300E022E0AE01475F5F4FEB
:101280000E9444088C818F938B818F938A818F93E6
:1012900089818F938BEE91E09F938F931F9289E0CA
:1012A0008F938FE293E09F938F930E9445138091D9
:1012B0003C038F9380913B038F9380913A038F93EC
:1012C000809139038F938FEE91E09F938F930E94CB
:1012D000D50482EE92E09F938F938AE391E09F93EF
:1012E0008F930E94D5040FB6F894DEBF0FBECDBF1A
:1012F0002C960FB6F894DEBF0FBECDBFDF91CF9115
:101300000F9108952F923F924F925F926F927F922A
:101310008F929F92AF92BF92CF92DF92EF92FF9205
:101320000F931F93CF93DF93CDB7DEB76E970FB6B2
:10133000F894DEBF0FBECDBF80914003813009F02D
:10134000CCC08091B5029091B60240E150E060E0DF
:1013500070E001960E94E2112B013C01CE01019642
:101360006C0110E0382E2D2C4E0199E1890E911C54
:101370006AE3E62E61E0F62E498A5A8A6B8A7C8AF5
:101380008C89888F8B898F8B8A898E8B89898D8BAD
:10139000DE0155965D019E8E8D8E609139037091B0
:1013A0003A0380913B0390913C0300E020E0432D01
:1013B000522D0E9444086091390370913A03809144
:1013C0003B0390913C0301E021E0AE014B5F5F4F96
:1013D0000E9444086091390370913A0380913B0365
:1013E00090913C0302E022E0AE01475F5F4F0E9414
:1013F0004408F60180819181A281B3818D879E8707
:10140000AF87B88B88898C8F8F858B8F8E858A8FDD
:101410008D85898FD5019D915D01ED8DFE8D819129
:10142000FE8FED8F98132DC0A815B90509F0B5CF23
:1014300001E000933D03111109C0AEEBB2E0BF9390
:10144000AF93FF92EF920E94D50417C0123059F467
:10145000AFE8B2E0BF93AF93FF92EF920E94D50442
:10146000009338030AC0A2E6B2E0BF93AF93FF92A5
:10147000EF920E94D50400933F030F900F900F90BE
:101480000F901F5FF4E0CF0ED11C133009F074CF22
:1014900080913D03811138C080913E038F5F80931E
:1014A0003E038F3F89F41092400382E192E09F93C4
:1014B0008F938AE391E09F938F930E94D5040F90BE
:1014C0000F900F900F9020C085E092E09F938F9334
:1014D0000E94D5040F900F9017C081EE91E09F936A
:1014E0008F930AE311E01F930F930E94D50488EABB
:1014F00091E09F938F931F930F930E94D5040FB693
:10150000F894DEBF0FBECDBF6E960FB6F894DEBF67
:101510000FBECDBFDF91CF911F910F91FF90EF9044
:10152000DF90CF90BF90AF909F908F907F906F9003
:101530005F904F903F902F90089585E493E09F93A4
:101540008F938AE391E09F938F930E94EB040F9017
:101550000F900F900F900895AF92BF92CF92DF92AD
:10156000EF92FF920F931F93CF93DF93CDB7DEB728
:1015700027970FB6F894DEBF0FBECDBF88EC8F83E0
:101580008E010F5F1F4F1F930F9397E0E92E92E09C
:10159000F92EFF92EF920E94D504CE0107969F93F9
:1015A0008F93FF92EF920E94D50486EF93E09F9372
:1015B0008F932AE3E22E21E0F22EFF92EF920E9417
:1015C000D50464E18091B5029091B6020E940105B4
:1015D00083EF93E09F938F93FF92EF920E94D50445
:1015E0008091B5029091B6020FB6F894DEBF0FBE9F
:1015F000CDBFFC012081222349F021912223A9F0B3
:1016000030E0205331092A303105B8F381E793E007
:101610009F938F938AE391E09F938F930E94EB04B3
:101620000F900F900F900F907BC04AE050E060E069
:1016300070E00E94E2116B017C01FF92EF92DF9259
:101640006F938CE092E09F938F930E94D50487ED77
:1016500093E09F938F938AE3A82E81E0B82EBF92E8
:10166000AF920E94D50486ED93E09F938F93BF9233
:10167000AF920E94D50461E06C0DC8010E94010583
:1016800083ED93E09F938F93BF92AF920E94D50416
:1016900088EB93E09F938F93BF92AF920E94D50403
:1016A0000FB6F894DEBF0FBECDBFB12C8B2D99279E
:1016B00087FD9095A92FB92F8C159D05AE05BF0507
:1016C00050F4F801EB0DF11DB7FCFA9580810E94F2
:1016D000D304B394EBCF86E992E09F938F930E945B
:1016E000D5048F810F900F90883CC1F087E993E07B
:1016F0009F938F930AE311E01F930F930E94EB04D3
:1017000082E893E09F938F931F930F930E94EB04C3
:101710000FB6F894DEBF0FBECDBFFFCF0E949D0A6B
:1017200027960FB6F894DEBF0FBECDBFDF91CF91E5
:101730001F910F91FF90EF90DF90CF90BF90AF90EF
:101740000895CF93DF93CDB7DEB786E290E00E9495
:101750007315DF91CF910895CF93DF93CDB7DEB7A7
:1017600081E294E0292F2F938F9386E291E0892FD5
:101770008F9386E291E08F930E94D5040F900F9093
:101780000F900F9061E086E290E00E947B15DF9160
:10179000CF910895CF93DF93CDB7DEB787E494E080
:1017A000292F2F938F9386E291E0892F8F9386E2E2
:1017B00091E08F930E94D5040F900F900F900F909F
:1017C00060E086E290E00E947B15DF91CF91089562
:1017D000CF93DF93CDB7DEB7A0970FB6F894DEBFF7
:1017E0000FBECDBF81E08F838FE694E09F8F8E8FF9
:1017F00084EE94E0292F2F938F9389E291E0892F33
:101800008F9389E291E08F930E94D5040F900F90FF
:101810000F900F90CE010A9667E10E94010589E0C2
:1018200095E0292F2F938F9389E291E0892F8F9351
:1018300089E291E08F930E94D5040F900F900F9052
:101840000F908CE095E0292F2F938F9389E291E000
:10185000892F8F9389E291E08F930E94D5040F9096
:101860000F900F900F90CE010A960E94F612AA27B1
:1018700097FDA095BA2FBC01CD010E94CB0C882307
:1018800009F480C080E395E0292F2F938F9389E29C
:1018900091E0892F8F9389E291E08F930E94D50484
:1018A0000F900F900F900F908E8D9F8D9C012F5F4A
:1018B0003F4F3F8F2E8F9A83898389819A81FC01C4
:1018C00084918B838B81898759C00E94A10B888763
:1018D0008885813039F48E8D9F8D8130F5E39F07A7
:1018E00008F01F828F81813021F58985882F90E053
:1018F000292F2F938F938CE291E0892F8F938CE285
:1019000091E08F930E94D5040F900F900F900F904D
:101910008E8D9F8D9C012F5F3F4F3F8F2E8F9D831C
:101920008C838C819D81FC0184918E838E8189873B
:1019300025C082E495E0292F2F938F9389E291E0CF
:10194000892F8F9389E291E08F930E94D5040F90A5
:101950000F900F900F9085E495E0292F2F938F9390
:1019600089E291E0892F8F9389E291E08F930E9421
:10197000EB040F900F900F900F9004C0898588237F
:1019800009F0A3CFA0960FB6F894DEBF0FBECDBF6F
:10199000DF91CF910895CF93DF9300D000D0CDB7E2
:1019A000DEB769837A838B839C838BE995E0292F4B
:1019B0002F938F9389E291E0892F8F9389E291E0B1
:1019C0008F930E94EB040F900F900F900F9086EC76
:1019D00095E0292F2F938F9389E291E0892F8F93A0
:1019E00089E291E08F930E94EB040F900F900F908B
:1019F0000F9081E00F900F900F900F90DF91CF919B
:101A00000895CF93DF93CDB7DEB76F970FB6F894F5
:101A1000DEBF0FBECDBF88E192E09F938F938AE334
:101A200092E09F938F930E94D50489EB97E09F9358
:101A30008F930AE311E01F930F930E94D5048FE563
:101A400097E09F938F931F930F930E94D50484EB8D
:101A500096E09F938F931F930F930E94D5040FB628
:101A6000F894DEBF0FBECDBF81EB282E86E0382E66
:101A700095E5E92E92E0F92E29E9422E22E0522E38
:101A800031EB632E32E0732ECE0101965C014AE306
:101A9000C42E42E0D42E59E8852E52E0952E64E102
:101AA0008091B5029091B6020E9401053F922F925B
:101AB0001F930F930E94D5040F900F900F900F90DB
:101AC00080913D032091B5023091B602D901811178
:101AD0007BC08C91813419F40E940309E0CF8235D8
:101AE00019F40E948209DBCF863509F053C081E8E2
:101AF00096E09F938F931F930F930E94D50464E108
:101B00008091B5029091B6020E9401058EE796E0A1
:101B10009F938F931F930F930E94D5048091B502DA
:101B20009091B602FC0101900020E9F73197E81B83
:101B3000F90B0FB6F894DEBF0FBECDBFDC019D01DF
:101B4000281B390B2E173F076CF44D91242F30E0E2
:101B5000205331092A30310590F34D3281F386E06C
:101B600096E00DC0DC012C912D3221F4E230F1051C
:101B700009F444C1319709F441C184ED95E09F9384
:101B80008F931F930F930E94EB040F900F900F9071
:101B90000F901EC1883409F010C189EB97E09F9324
:101BA0008F931F930F930E94D5048FE597E09F9327
:101BB0008F931F930F930E94D50484EB96E09F931D
:101BC0008F931F930F9312C18C9190E088549109C9
:101BD0008131910508F0F1C08C5C9F4FFC010C94A1
:101BE000240F0E94E80B5BCF10923D0310923F033D
:101BF0001092380388E192E09F938F93DF92CF9207
:101C00000E94D50489EB97E09F938F931F930F93C6
:101C10000E94D5048FE597E09F938F931F930F93B6
:101C20000E94D50484EB96E09F938F931F930F93AC
:101C3000DDC089EB97E09F938F931F930F930E94D2
:101C4000D5048EE297E09F938F931F930F930E948A
:101C5000D5040FB6F894DEBF0FBECDBF8091380318
:101C6000813021F080913F03813061F48AEE96E06B
:101C70009F938F931F930F930E94D5040F900F9003
:101C80000F900F9080913F03882361F082ED96E0E2
:101C90009F938F931F930F930E94D5040F900F90E3
:101CA0000F900F9085EC96E09F938F931F930F9367
:101CB0000E94D50484EB96E095C08091B402811116
:101CC00003C08DE692E002C08CE792E09F938F9371
:101CD00015C080913803813029F080913F03813015
:101CE00009F06BC08091B402811104C081E080933F
:101CF000B40202C01092B4029F928F920E94D50447
:101D00000F900F90CCCE80913803813029F08091D4
:101D10003F03813009F051C00E94AC0AC0CE8091CF
:101D20003F03813009F049C05F924F920E94D50471
:101D30000F900F9021E01B8E1C8E1D8E1E8E8B8DA2
:101D40009C8DAD8DBE8D803A9B4BAD40B10560F44E
:101D50008B8D9C8DAD8DBE8D0196A11DB11D8B8F80
:101D60009C8FAD8FBE8FEBCF7F926F922F8F0E9493
:101D7000D5042F8D822F6AE00E94180F0F900F90CC
:101D8000911116C0FAE1F89FB0011124605F7A4CFE
:101D90004AE150E0C5010E942513BF92AF92DF9245
:101DA000CF920E94D5040F900F900F900F902F8D1F
:101DB0002F5F233809F0BFCF72CE3F932F93FF924E
:101DC000EF920E94D5040F900F900F900F9067CE66
:101DD0008FE596E09F938F931F930F930E94D504F6
:101DE00088E396E09F938F931F930F930E94D504EF
:101DF0000FB6F894DEBF0FBECDBF51CE4AE050E023
:101E000060E070E00E94AE10862F66300CF7282F3D
:101E1000332727FD30953F938F932DE332E03F9397
:101E20002F938F8F0E94D5048F8D0E94FF07CBCFF9
:101E3000991B79E004C0991F961708F0961B881F1C
:101E40007A95C9F780950895EE0FFF1F0590F491DC
:101E5000E02D0994CF93DF938230910510F482E056
:101E600090E0E0914303F091440320E030E0A0E0F3
:101E7000B0E0309739F14081518148175907B8F0E7
:101E80004817590771F482819381109729F01396AE
:101E90009C938E9312972CC090934403809343039A
:101EA00027C02115310531F04217530718F0A90159
:101EB000DB0101C0EF019A01BD01DF010280F38166
:101EC000E02DD7CF21153105F9F0281B390B24302F
:101ED000310580F48A819B816115710521F0FB0138
:101EE0009383828304C09093440380934303FE0151
:101EF000329644C0FE01E20FF31F8193919322506A
:101F00003109398328833AC020914103309142033B
:101F1000232B41F420911E0130911F013093420385
:101F20002093410320911C0130911D0121153105A1
:101F300041F42DB73EB74091200150912101241B5F
:101F4000350BE0914103F0914203E217F307A0F44F
:101F50002E1B3F0B2817390778F0AC014E5F5F4FFF
:101F60002417350748F04E0F5F1F509342034093EC
:101F700041038193919302C0E0E0F0E0CF01DF9153
:101F8000CF910895CF93DF93009709F487C0FC01A8
:101F9000329713821282C0914303D0914403209759
:101FA00081F420813181280F391F80914103909164
:101FB00042038217930779F5F0934203E0934103BC
:101FC0006DC0DE0120E030E0AE17BF0750F412967E
:101FD0004D915C9113979D014115510509F1DA016D
:101FE000F3CFB383A28340815181840F951F8A1759
:101FF0009B0771F48D919C911197840F951F029608
:102000009183808312968D919C9113979383828301
:102010002115310529F4F0934403E09343033EC0B6
:10202000D9011396FC93EE9312974D915D91A40FF5
:10203000B51FEA17FB0779F480819181840F951F02
:102040000296D90111969C938E9382819381139667
:102050009C938E931297E0E0F0E08A819B81009739
:1020600019F0FE01EC01F9CFCE01029628813981E9
:10207000820F931F209141033091420328173907A3
:1020800069F4309729F4109244031092430302C07C
:1020900013821282D0934203C0934103DF91CF9108
:1020A00008958F929F92AF92BF92CF92DF92EF925C
:1020B000FF92CF93DF93EC01688179818A819B81C4
:1020C000611571058105910521F464E279ED8BE5D7
:1020D00097E02DE133EF41E050E00E9464164901A2
:1020E0005A019B01AC01A7EAB1E40E9483166B017F
:1020F0007C01ACEEB4EFA50194010E949116C60ECE
:10210000D71EE81EF91EF7FE06C081E0C81AD108E6
:10211000E10880E8F80AC882D982EA82FB82C70116
:10212000B6019F77DF91CF91FF90EF90DF90CF9036
:10213000BF90AF909F908F9008950E945110089586
:1021400082E291E00E945110089560932201709301
:102150002301809324019093250108952F923F92AB
:102160005F926F927F928F929F92AF92BF92CF9227
:10217000DF92EF92FF920F931F93CF93DF938B0128
:10218000EA016115710521F0DB018C9311969C9396
:10219000209739F09E01225031092332310508F091
:1021A000FBC07C016701BFEFCB1ADB0A5601F701C8
:1021B0006080862D90E00E941D13892B11F076011E
:1021C000F1CFFDE26F120AC0570182E0A80EB11CE8
:1021D000D70111966C90772473940BC0BBE26B12FD
:1021E00007C05701E2E0AE0EB11CD70111966C900A
:1021F000712CCE018F7E892B89F4B0E36B1222C043
:10220000F50180818F7D883541F56180F2E0AF0E68
:10221000B11C872D8260782EC0E1D0E0C830D10596
:10222000F1F04CF4C230D10511F5C12CD12CE12CC8
:10223000B0E4FB2E2FC0CA30D10531F0C031D1053A
:1022400021F115C0209751F7CAE0D0E0ACECCA2EBE
:10225000DC2CEC2CACE0FA2E1DC02097F9F6C8E07F
:10226000D0E0C12CD12CE12CF0E1FF2E13C060E0B6
:1022700070E080E090E89E01442737FD4095542FA0
:102280000E94421669017A0105C0C12CD12CE12CB3
:10229000E8E0FE2EF50160E020E030E0A9014E010B
:1022A000AA2497FCA094BA2C1F0170ED572E560C4F
:1022B000A9E0A51570F48FEB860D8A3118F499EC1E
:1022C000592E06C08FE9860D8A3130F589EA582EDD
:1022D000560C852D90E08C179D07F4F467FD18C00F
:1022E000C216D306E406F50680F0C501B4010E94CB
:1022F00032169B01AC01250D311D411D511D2130B0
:1023000031054105B0E85B0710F06FEF01C061E0F7
:102310003196D1016C90C8CF872D817001151105C0
:1023200071F0662329F03197D801ED93FC9307C033
:1023300071FE19C03297D801ED93FC9314C067FF6A
:1023400012C0882329F020E030E040E050E804C0CB
:102350002FEF3FEF4FEF5FE782E290E0909346036D
:102360008093450316C0882341F0509540953095E1
:1023700021953F4F4F4F5F4F0CC057FF0AC082E27D
:1023800090E090934603809345032FEF3FEF4FEF8C
:102390005FE7B901CA0104C060E070E080E090E04E
:1023A000DF91CF911F910F91FF90EF90DF90CF9031
:1023B000BF90AF909F908F907F906F905F903F9075
:1023C0002F9008952F923F925F926F927F928F92FB
:1023D0009F92AF92BF92CF92DF92EF92FF920F93B4
:1023E0001F93CF93DF938B01EA016115710521F0F3
:1023F000DB018C9311969C93209739F09E0122501B
:1024000031092332310508F0D8C07C016701BFEFE4
:10241000CB1ADB0A5601F7016080862D90E00E94FE
:102420001D13892B11F07601F1CFFDE26F120AC066
:10243000570182E0A80EB11CD70111966C90772449
:1024400073940BC0BBE26B1207C05701E2E0AE0E03
:10245000B11CD70111966C90712CCE018F7E892B07
:1024600089F4B0E36B1237C0F50180818F7D883528
:10247000D1F46180F2E0AF0EB11C872D8260782E1E
:10248000C0E1D0E0CA30D10551F1C031D10521F011
:10249000C830D10599F409C0CC24CA94DC2CEC2CAA
:1024A000AFE0FA2E22C0209769F7C8E0D0E0CC2434
:1024B000CA94DC2CEC2CFFE1FF2E17C06FEF7FEFEE
:1024C000CB019E01442737FD4095542F0E944216B0
:1024D00069017A010AC02097A9F6CAE0D0E0E9E9CB
:1024E000CE2EDC2CEC2CE9E1FE2EF50160E020E0A4
:1024F00030E0A9014E01AA2497FCA094BA2C1F0138
:1025000070ED572E560CA9E0A51570F48FEB860DD3
:102510008A3118F499EC592E06C08FE9860D8A315C
:1025200048F589EA582E560C852D90E08C179D07AA
:102530000CF56F3FD9F0C216D306E406F50698F005
:10254000C501B4010E9432169B01AC01852D90E0BB
:10255000A0E0B0E0280F391F4A1F5B1F281739077A
:102560004A075B0710F46FEF01C061E03196D101BB
:102570006C90C5CF0115110551F0662311F031970C
:1025800003C071FE04C03297D801ED93FC9370FE36
:1025900007C050954095309521953F4F4F4F5F4F65
:1025A00067FF10C082E290E090934603809345035A
:1025B0006FEF7FEF8FEF9FEF07C060E070E080E08C
:1025C00090E002C0B901CA01DF91CF911F910F9134
:1025D000FF90EF90DF90CF90BF90AF909F908F9043
:1025E0007F906F905F903F902F900895FC01882717
:1025F0009927E89421912032E9F3293010F02E3008
:10260000C8F32B3241F02D3239F4689404C00E9493
:102610003D13820F911D219120532A30C0F31EF4E7
:10262000909581959F4F089585FD73C280629111A9
:1026300070C281568A51E0F7089591116AC28032C2
:1026400019F089508550D0F70895FB01DC01415005
:10265000504048F005900D920020C9F701C01D922E
:1026600041505040E0F70895FB01DC0102C00190A9
:102670000D9241505040D8F708957AE0979F902DE1
:10268000879F802D910D11240895AEE0B0E0EBE41A
:10269000F3E10C94A4160D891E898F89988D26E08C
:1026A0002C831A83098397FF02C080E090E801978A
:1026B0009E838D83AE01455E5F4F698D7A8DCE011D
:1026C00001960E94A1134D815E8157FD0AC02F81A2
:1026D0003885421753070CF49A01F801E20FF31FF3
:1026E00010822E96E4E00C94C016AEE0B0E0EBE76A
:1026F000F3E10C94A4168C01CA0146E04C831A83C2
:10270000098377FF02C060E070E8615071097E8341
:102710006D83A901BC01CE0101960E94A1134D81D8
:102720005E8157FD0AC02F813885421753070CF48C
:102730009A01F801E20FF31F10822E96E4E00C9448
:10274000C016ACE0B0E0E7EAF3E10C9496167C0129
:102750006B018A01FC0117821682838181FFBDC152
:10276000CE0101964C01F7019381F60193FD85910D
:1027700093FF81916F01882309F4ABC1853239F44D
:1027800093FD859193FF81916F01853229F4B70103
:1027900090E00E94A215E7CF512C312C20E020328E
:1027A000A0F48B3269F030F4803259F0833269F44E
:1027B00020612CC08D3239F0803339F4216026C07D
:1027C0002260246023C0286021C027FD27C030ED8F
:1027D000380F3A3078F426FF06C0FAE05F9E300DDD
:1027E0001124532E13C08AE0389E300D1124332E4D
:1027F00020620CC08E3221F426FD6BC1206406C01D
:102800008C3611F4206802C0883641F4F60193FD3D
:10281000859193FF81916F018111C1CF982F9F7D89
:102820009554933028F40C5F1F4FFFE3F9830DC0DC
:10283000833631F0833771F0833509F05BC022C0F5
:10284000F801808189830E5F1F4F44244394512CEB
:10285000540115C03801F2E06F0E711CF801A08020
:10286000B18026FF03C0652D70E002C06FEF7FEFDF
:10287000C5012C870E9497152C0183012C852F7789
:10288000222E17C03801F2E06F0E711CF801A080F3
:10289000B18026FF03C0652D70E002C06FEF7FEFAF
:1028A000C5012C870E948C152C012C852068222EB6
:1028B000830123FC1BC0832D90E048165906B0F419
:1028C000B70180E290E00E94A2153A94F4CFF5019E
:1028D00027FC859127FE81915F01B70190E00E945E
:1028E000A21531103A94F1E04F1A510841145104E5
:1028F00071F7E5C0843611F0893639F5F80127FF04
:1029000007C060817181828193810C5F1F4F08C075
:1029100060817181882777FD8095982F0E5F1F4F0A
:102920002F76B22E97FF09C090958095709561958E
:102930007F4F8F4F9F4F2068B22E2AE030E0A401D6
:102940000E94D415A82EA81844C0853729F42F7EDC
:10295000B22E2AE030E025C0F22FF97FBF2E8F364D
:10296000C1F018F4883579F0B4C0803719F0883791
:1029700021F0AFC02F2F2061B22EB4FE0DC08B2DE1
:102980008460B82E09C024FF0AC09F2F9660B92E1C
:1029900006C028E030E005C020E130E002C020E1C0
:1029A00032E0F801B7FE07C06081718182819381B6
:1029B0000C5F1F4F06C06081718180E090E00E5F68
:1029C0001F4FA4010E94D415A82EA818FB2DFF7735
:1029D000BF2EB6FE0BC02B2D2E7FA51450F4B4FED7
:1029E0000AC0B2FC08C02B2D2E7E05C07A2C2B2DE0
:1029F00003C07A2C01C0752C24FF0DC0FE01EA0D26
:102A0000F11D8081803311F4297E09C022FF06C0A8
:102A10007394739404C0822F867809F0739423FD15
:102A200013C020FF06C05A2C731418F4530C571807
:102A3000732C731468F4B70180E290E02C870E9435
:102A4000A21573942C85F5CF731410F4371801C0B8
:102A5000312C24FF12C0B70180E390E02C870E9444
:102A6000A2152C8522FF17C021FF03C088E590E046
:102A700002C088E790E0B7010CC0822F867859F039
:102A800021FD02C080E201C08BE227FD8DE2B7018B
:102A900090E00E94A215A51438F4B70180E390E0FD
:102AA0000E94A2155A94F7CFAA94F401EA0DF11DE1
:102AB0008081B70190E00E94A215A110F5CF3320CC
:102AC00009F451CEB70180E290E00E94A2153A9439
:102AD000F6CFF7018681978102C08FEF9FEF2C968A
:102AE000E2E10C94B216F999FECF92BD81BDF89A3D
:102AF000992780B50895262FF999FECF1FBA92BD68
:102B000081BD20BD0FB6F894FA9AF99A0FBE0196CE
:102B10000895992788270895FC0105906150704019
:102B20000110D8F7809590958E0F9F1F0895FC0196
:102B30006150704001900110D8F7809590958E0FEC
:102B40009F1F08950F931F93CF93DF93182F092F83
:102B5000EB018B8181FD03C08FEF9FEF20C082FFCF
:102B600010C04E815F812C813D81421753077CF458
:102B7000E881F9819F012F5F3F4F398328831083BC
:102B800006C0E885F985812F0995892B29F72E81C3
:102B90003F812F5F3F4F3F832E83812F902FDF9107
:102BA000CF911F910F910895FA01AA27283051F172
:102BB000203181F1E8946F936E7F6E5F7F4F8F4F6E
:102BC0009F4FAF4FB1E03ED0B4E03CD0670F781FCD
:102BD000891F9A1FA11D680F791F8A1F911DA11DB2
:102BE0006A0F711D811D911DA11D20D009F46894EB
:102BF0003F912AE0269F11243019305D3193DEF693
:102C0000CF010895462F4770405D4193B3E00FD048
:102C1000C9F7F6CF462F4F70405D4A3318F0495D33
:102C200031FD4052419302D0A9F7EACFB4E0A69516
:102C30009795879577956795BA95C9F70097610538
:102C4000710508959B01AC010A2E0694579547958E
:102C500037952795BA95C9F7620F731F841F951F83
:102C6000A01D0895DB018F939F930E948316BF914F
:102C7000AF91A29F800D911DA39F900DB29F900DCB
:102C800011240895A1E21A2EAA1BBB1BFD010DC041
:102C9000AA1FBB1FEE1FFF1FA217B307E407F5070C
:102CA00020F0A21BB30BE40BF50B661F771F881FE8
:102CB000991F1A9469F760957095809590959B017E
:102CC000AC01BD01CF010895052E97FB1EF40094C1
:102CD0000E947B1657FD07D00E94421607FC03D0C6
:102CE0004EF40C947B1650954095309521953F4FAE
:102CF0004F4F5F4F089590958095709561957F4FE8
:102D00008F4F9F4F08950E94CD16A59F900DB49FA1
:102D1000900DA49F800D911D11240895B7FF0C9470
:102D200083160E948316821B930B08952F923F9265
:102D30004F925F926F927F928F929F92AF92BF92CB
:102D4000CF92DF92EF92FF920F931F93CF93DF9377
:102D5000CDB7DEB7CA1BDB0B0FB6F894DEBF0FBED4
:102D6000CDBF09942A88398848885F846E847D8421
:102D70008C849B84AA84B984C884DF80EE80FD8023
:102D80000C811B81AA81B981CE0FD11D0FB6F89499
:102D9000DEBF0FBECDBFED010895A29FB001B39F6E
:102DA000C001A39F700D811D1124911DB29F700D54
:0C2DB000811D1124911D0895F894FFCF9F
:102DBC003D014B0156015F017B018C0194018C019B
:102DCC009F01B101C4012F03DE01E40100004703A0
:102DDC002000010000002553002553002563002529
:102DEC002D3330732025730D0A0025530054657262
:102DFC006D696E616C206E616D65004572756373F3
:102E0C006972303037004163636F756E74730045BF
:102E1C006E61626C65642028322F32292C2041634C
:102E2C00746976652028322F3229004F70657261E3
:102E3C0074696F6E616C206D6F646500456E6162C4
:102E4C006C6564004465627567206D6F6465005045
:102E5C006879736963616C206C6F636174696F6E00
:102E6C000044656C66742C204E65746865726C61E8
:102E7C006E647300557365722061757468656E7449
:102E8C0069636174696F6E20746F6B656E00486561
:102E9C006C6C6F00576F726C642100256C78005954
:102EAC006F7572206E6F6E636520697320253038E4
:102EBC006C780D0A00450025700D0A004C656E6794
:102ECC0074682025780D0A0057656C636F6D65205A
:102EDC00746F204572756373697220494353207473
:102EEC0065726D696E616C0D0A0025730050726914
:102EFC006E74696E67202564207661726961626CFC
:102F0C0065730D0A00436F6D6D616E64202573202F
:102F1C00697320696E76616C69640D0A0056616C88
:102F2C00766520636C6F7365640D0A0056616C7670
:102F3C0065206F70656E0D0A0056616C76652063B6
:102F4C0068616E6765640D0A005265747269766912
:102F5C006E67207468652041646D696E204B6579DD
:042F6C00002E000033
:1035000052486D652B2043306E376163375F7535E8
:103510000D0A43616C63756C6174696E6720696E36
:10352000646578000000000000000D0A43686563D0
:103530006B696E67204B65792043524300000000A1
:10354000000000000D0A53687566666C696E67209E
:1035500062697473000000000000000000000D0AA2
:103560004D6F72652073687566666C696E670000E2
:1035700000000000000000000D0A4576656E206D19
:103580006F72652073687566666C696E67210000EE
:1035900000000D0A446573687566666C696E672085
:1035A0006269747300000000000000000D0A45729B
:1035B000726F72212044697A7A79206269742100DD
:1035C0000000000000000D0A4170706C79696E67A0
:1035D0002044696D656E68796472696E6174650016
:1035E0000D0A5468652062697420646F65736E7497
:1035F00020726573706F6E6421000D0A416E792030
:10360000646F63746F7220696E20726F6F6D3F001C
:10361000000000000D0A426974207265636F7665D0
:103620007265642E5072696E74696E6700000D0ACF
:10363000546865206B657920697300000000000004
:1036400000000000000000000D0A4D5541484148AF
:1036500041414821212054524F4C4C4544210D0AF0
:02366000000068
:00000001FF
